{
	"voting.sol": {
		"Dv0TE": {
			"abi": [
				{
					"inputs": [],
					"stateMutability": "nonpayable",
					"type": "constructor"
				},
				{
					"anonymous": false,
					"inputs": [
						{
							"indexed": false,
							"internalType": "uint256",
							"name": "id",
							"type": "uint256"
						},
						{
							"indexed": false,
							"internalType": "string",
							"name": "name",
							"type": "string"
						},
						{
							"indexed": false,
							"internalType": "string",
							"name": "party",
							"type": "string"
						}
					],
					"name": "CandidateAdded",
					"type": "event"
				},
				{
					"anonymous": false,
					"inputs": [
						{
							"indexed": false,
							"internalType": "uint256",
							"name": "StartDate",
							"type": "uint256"
						},
						{
							"indexed": false,
							"internalType": "uint256",
							"name": "EndDate",
							"type": "uint256"
						}
					],
					"name": "VotingDateset",
					"type": "event"
				},
				{
					"anonymous": false,
					"inputs": [
						{
							"indexed": true,
							"internalType": "address",
							"name": "voter",
							"type": "address"
						},
						{
							"indexed": false,
							"internalType": "uint256",
							"name": "CandidateID",
							"type": "uint256"
						}
					],
					"name": "voted",
					"type": "event"
				},
				{
					"inputs": [],
					"name": "CountCandidates",
					"outputs": [
						{
							"internalType": "uint256",
							"name": "",
							"type": "uint256"
						}
					],
					"stateMutability": "view",
					"type": "function"
				},
				{
					"inputs": [],
					"name": "Owner",
					"outputs": [
						{
							"internalType": "address",
							"name": "",
							"type": "address"
						}
					],
					"stateMutability": "view",
					"type": "function"
				},
				{
					"inputs": [
						{
							"internalType": "string",
							"name": "name",
							"type": "string"
						},
						{
							"internalType": "string",
							"name": "party",
							"type": "string"
						}
					],
					"name": "addCandidate",
					"outputs": [
						{
							"internalType": "uint256",
							"name": "",
							"type": "uint256"
						}
					],
					"stateMutability": "nonpayable",
					"type": "function"
				},
				{
					"inputs": [
						{
							"internalType": "uint256",
							"name": "",
							"type": "uint256"
						}
					],
					"name": "candidates",
					"outputs": [
						{
							"internalType": "string",
							"name": "name",
							"type": "string"
						},
						{
							"internalType": "uint256",
							"name": "id",
							"type": "uint256"
						},
						{
							"internalType": "string",
							"name": "party",
							"type": "string"
						},
						{
							"internalType": "uint256",
							"name": "voteCount",
							"type": "uint256"
						}
					],
					"stateMutability": "view",
					"type": "function"
				},
				{
					"inputs": [],
					"name": "checkVote",
					"outputs": [
						{
							"internalType": "bool",
							"name": "",
							"type": "bool"
						}
					],
					"stateMutability": "view",
					"type": "function"
				},
				{
					"inputs": [
						{
							"internalType": "uint256",
							"name": "CandidateID",
							"type": "uint256"
						}
					],
					"name": "getCandidate",
					"outputs": [
						{
							"internalType": "string",
							"name": "",
							"type": "string"
						},
						{
							"internalType": "uint256",
							"name": "",
							"type": "uint256"
						},
						{
							"internalType": "string",
							"name": "",
							"type": "string"
						},
						{
							"internalType": "uint256",
							"name": "",
							"type": "uint256"
						}
					],
					"stateMutability": "view",
					"type": "function"
				},
				{
					"inputs": [],
					"name": "getDates",
					"outputs": [
						{
							"internalType": "uint256",
							"name": "",
							"type": "uint256"
						},
						{
							"internalType": "uint256",
							"name": "",
							"type": "uint256"
						}
					],
					"stateMutability": "view",
					"type": "function"
				},
				{
					"inputs": [],
					"name": "getWinner",
					"outputs": [
						{
							"internalType": "string",
							"name": "",
							"type": "string"
						},
						{
							"internalType": "string",
							"name": "",
							"type": "string"
						},
						{
							"internalType": "uint256",
							"name": "",
							"type": "uint256"
						}
					],
					"stateMutability": "view",
					"type": "function"
				},
				{
					"inputs": [
						{
							"internalType": "uint256",
							"name": "_startDate",
							"type": "uint256"
						},
						{
							"internalType": "uint256",
							"name": "_endDate",
							"type": "uint256"
						}
					],
					"name": "setDates",
					"outputs": [],
					"stateMutability": "nonpayable",
					"type": "function"
				},
				{
					"inputs": [
						{
							"internalType": "uint256",
							"name": "CandidateID",
							"type": "uint256"
						}
					],
					"name": "vote",
					"outputs": [],
					"stateMutability": "nonpayable",
					"type": "function"
				},
				{
					"inputs": [
						{
							"internalType": "address",
							"name": "",
							"type": "address"
						}
					],
					"name": "voters",
					"outputs": [
						{
							"internalType": "bool",
							"name": "",
							"type": "bool"
						}
					],
					"stateMutability": "view",
					"type": "function"
				},
				{
					"inputs": [],
					"name": "votingEnd",
					"outputs": [
						{
							"internalType": "uint256",
							"name": "",
							"type": "uint256"
						}
					],
					"stateMutability": "view",
					"type": "function"
				},
				{
					"inputs": [],
					"name": "votingStart",
					"outputs": [
						{
							"internalType": "uint256",
							"name": "",
							"type": "uint256"
						}
					],
					"stateMutability": "view",
					"type": "function"
				}
			],
			"devdoc": {
				"kind": "dev",
				"methods": {},
				"version": 1
			},
			"evm": {
				"assembly": "    /* \"voting.sol\":58:3682  contract Dv0TE{... */\n  mstore(0x40, 0x80)\n    /* \"voting.sol\":975:1027  constructor (){... */\n  callvalue\n  dup1\n  iszero\n  tag_1\n  jumpi\n  0x00\n  dup1\n  revert\ntag_1:\n  pop\n    /* \"voting.sol\":1008:1018  msg.sender */\n  caller\n    /* \"voting.sol\":1000:1005  Owner */\n  0x00\n  dup1\n    /* \"voting.sol\":1000:1018  Owner = msg.sender */\n  0x0100\n  exp\n  dup2\n  sload\n  dup2\n  0xffffffffffffffffffffffffffffffffffffffff\n  mul\n  not\n  and\n  swap1\n  dup4\n  0xffffffffffffffffffffffffffffffffffffffff\n  and\n  mul\n  or\n  swap1\n  sstore\n  pop\n    /* \"voting.sol\":58:3682  contract Dv0TE{... */\n  dataSize(sub_0)\n  dup1\n  dataOffset(sub_0)\n  0x00\n  codecopy\n  0x00\n  return\nstop\n\nsub_0: assembly {\n        /* \"voting.sol\":58:3682  contract Dv0TE{... */\n      mstore(0x40, 0x80)\n      callvalue\n      dup1\n      iszero\n      tag_1\n      jumpi\n      0x00\n      dup1\n      revert\n    tag_1:\n      pop\n      jumpi(tag_2, lt(calldatasize, 0x04))\n      shr(0xe0, calldataload(0x00))\n      dup1\n      0x4c083141\n      gt\n      tag_16\n      jumpi\n      dup1\n      0xa3ec138d\n      gt\n      tag_17\n      jumpi\n      dup1\n      0xa3ec138d\n      eq\n      tag_12\n      jumpi\n      dup1\n      0xb0417e98\n      eq\n      tag_13\n      jumpi\n      dup1\n      0xb4a99a4e\n      eq\n      tag_14\n      jumpi\n      dup1\n      0xdedf141e\n      eq\n      tag_15\n      jumpi\n      jump(tag_2)\n    tag_17:\n      dup1\n      0x4c083141\n      eq\n      tag_9\n      jumpi\n      dup1\n      0x85a38635\n      eq\n      tag_10\n      jumpi\n      dup1\n      0x8e7ea5b2\n      eq\n      tag_11\n      jumpi\n      jump(tag_2)\n    tag_16:\n      dup1\n      0x0121b93f\n      eq\n      tag_3\n      jumpi\n      dup1\n      0x101158af\n      eq\n      tag_4\n      jumpi\n      dup1\n      0x16441813\n      eq\n      tag_5\n      jumpi\n      dup1\n      0x26541b56\n      eq\n      tag_6\n      jumpi\n      dup1\n      0x3477ee2e\n      eq\n      tag_7\n      jumpi\n      dup1\n      0x35b8e820\n      eq\n      tag_8\n      jumpi\n    tag_2:\n      0x00\n      dup1\n      revert\n        /* \"voting.sol\":1562:1911  function vote(uint CandidateID) public votingActive{... */\n    tag_3:\n      tag_18\n      0x04\n      dup1\n      calldatasize\n      sub\n      dup2\n      add\n      swap1\n      tag_19\n      swap2\n      swap1\n      tag_20\n      jump\t// in\n    tag_19:\n      tag_21\n      jump\t// in\n    tag_18:\n      stop\n        /* \"voting.sol\":306:332  uint256 public votingStart */\n    tag_4:\n      tag_22\n      tag_23\n      jump\t// in\n    tag_22:\n      mload(0x40)\n      tag_24\n      swap2\n      swap1\n      tag_25\n      jump\t// in\n    tag_24:\n      mload(0x40)\n      dup1\n      swap2\n      sub\n      swap1\n      return\n        /* \"voting.sol\":2912:3019  function getDates() public view returns(uint256, uint256){... */\n    tag_5:\n      tag_26\n      tag_27\n      jump\t// in\n    tag_26:\n      mload(0x40)\n      tag_28\n      swap3\n      swap2\n      swap1\n      tag_29\n      jump\t// in\n    tag_28:\n      mload(0x40)\n      dup1\n      swap2\n      sub\n      swap1\n      return\n        /* \"voting.sol\":1069:1537  function addCandidate(string memory name, string memory party) public isOwner returns (uint) {... */\n    tag_6:\n      tag_30\n      0x04\n      dup1\n      calldatasize\n      sub\n      dup2\n      add\n      swap1\n      tag_31\n      swap2\n      swap1\n      tag_32\n      jump\t// in\n    tag_31:\n      tag_33\n      jump\t// in\n    tag_30:\n      mload(0x40)\n      tag_34\n      swap2\n      swap1\n      tag_25\n      jump\t// in\n    tag_34:\n      mload(0x40)\n      dup1\n      swap2\n      sub\n      swap1\n      return\n        /* \"voting.sol\":386:429  mapping(uint=> Candidate) public candidates */\n    tag_7:\n      tag_35\n      0x04\n      dup1\n      calldatasize\n      sub\n      dup2\n      add\n      swap1\n      tag_36\n      swap2\n      swap1\n      tag_20\n      jump\t// in\n    tag_36:\n      tag_37\n      jump\t// in\n    tag_35:\n      mload(0x40)\n      tag_38\n      swap5\n      swap4\n      swap3\n      swap2\n      swap1\n      tag_39\n      jump\t// in\n    tag_38:\n      mload(0x40)\n      dup1\n      swap2\n      sub\n      swap1\n      return\n        /* \"voting.sol\":2029:2421  function getCandidate(uint CandidateID) public view returns(string memory, uint, string memory, uint){... */\n    tag_8:\n      tag_40\n      0x04\n      dup1\n      calldatasize\n      sub\n      dup2\n      add\n      swap1\n      tag_41\n      swap2\n      swap1\n      tag_20\n      jump\t// in\n    tag_41:\n      tag_42\n      jump\t// in\n    tag_40:\n      mload(0x40)\n      tag_43\n      swap5\n      swap4\n      swap3\n      swap2\n      swap1\n      tag_39\n      jump\t// in\n    tag_43:\n      mload(0x40)\n      dup1\n      swap2\n      sub\n      swap1\n      return\n        /* \"voting.sol\":269:299  uint256 public CountCandidates */\n    tag_9:\n      tag_44\n      tag_45\n      jump\t// in\n    tag_44:\n      mload(0x40)\n      tag_46\n      swap2\n      swap1\n      tag_25\n      jump\t// in\n    tag_46:\n      mload(0x40)\n      dup1\n      swap2\n      sub\n      swap1\n      return\n        /* \"voting.sol\":339:363  uint256 public votingEnd */\n    tag_10:\n      tag_47\n      tag_48\n      jump\t// in\n    tag_47:\n      mload(0x40)\n      tag_49\n      swap2\n      swap1\n      tag_25\n      jump\t// in\n    tag_49:\n      mload(0x40)\n      dup1\n      swap2\n      sub\n      swap1\n      return\n        /* \"voting.sol\":3039:3677  function getWinner() public view isOwner returns (string memory, string memory, uint) {... */\n    tag_11:\n      tag_50\n      tag_51\n      jump\t// in\n    tag_50:\n      mload(0x40)\n      tag_52\n      swap4\n      swap3\n      swap2\n      swap1\n      tag_53\n      jump\t// in\n    tag_52:\n      mload(0x40)\n      dup1\n      swap2\n      sub\n      swap1\n      return\n        /* \"voting.sol\":436:472  mapping(address=>bool) public voters */\n    tag_12:\n      tag_54\n      0x04\n      dup1\n      calldatasize\n      sub\n      dup2\n      add\n      swap1\n      tag_55\n      swap2\n      swap1\n      tag_56\n      jump\t// in\n    tag_55:\n      tag_57\n      jump\t// in\n    tag_54:\n      mload(0x40)\n      tag_58\n      swap2\n      swap1\n      tag_59\n      jump\t// in\n    tag_58:\n      mload(0x40)\n      dup1\n      swap2\n      sub\n      swap1\n      return\n        /* \"voting.sol\":1917:2007  function checkVote() public view returns(bool){... */\n    tag_13:\n      tag_60\n      tag_61\n      jump\t// in\n    tag_60:\n      mload(0x40)\n      tag_62\n      swap2\n      swap1\n      tag_59\n      jump\t// in\n    tag_62:\n      mload(0x40)\n      dup1\n      swap2\n      sub\n      swap1\n      return\n        /* \"voting.sol\":242:262  address public Owner */\n    tag_14:\n      tag_63\n      tag_64\n      jump\t// in\n    tag_63:\n      mload(0x40)\n      tag_65\n      swap2\n      swap1\n      tag_66\n      jump\t// in\n    tag_65:\n      mload(0x40)\n      dup1\n      swap2\n      sub\n      swap1\n      return\n        /* \"voting.sol\":2440:2893  function setDates(uint256 _startDate, uint256 _endDate) public isOwner{... */\n    tag_15:\n      tag_67\n      0x04\n      dup1\n      calldatasize\n      sub\n      dup2\n      add\n      swap1\n      tag_68\n      swap2\n      swap1\n      tag_69\n      jump\t// in\n    tag_68:\n      tag_70\n      jump\t// in\n    tag_67:\n      stop\n        /* \"voting.sol\":1562:1911  function vote(uint CandidateID) public votingActive{... */\n    tag_21:\n        /* \"voting.sol\":861:872  votingStart */\n      sload(0x02)\n        /* \"voting.sol\":842:857  block.timestamp */\n      timestamp\n        /* \"voting.sol\":842:872  block.timestamp >= votingStart */\n      lt\n      iszero\n        /* \"voting.sol\":842:904  block.timestamp >= votingStart && block.timestamp <= votingEnd */\n      dup1\n      iszero\n      tag_72\n      jumpi\n      pop\n        /* \"voting.sol\":895:904  votingEnd */\n      sload(0x03)\n        /* \"voting.sol\":876:891  block.timestamp */\n      timestamp\n        /* \"voting.sol\":876:904  block.timestamp <= votingEnd */\n      gt\n      iszero\n        /* \"voting.sol\":842:904  block.timestamp >= votingStart && block.timestamp <= votingEnd */\n    tag_72:\n        /* \"voting.sol\":834:930  require(block.timestamp >= votingStart && block.timestamp <= votingEnd, \"Voting is not active.\") */\n      tag_73\n      jumpi\n      mload(0x40)\n      0x08c379a000000000000000000000000000000000000000000000000000000000\n      dup2\n      mstore\n      0x04\n      add\n      tag_74\n      swap1\n      tag_75\n      jump\t// in\n    tag_74:\n      mload(0x40)\n      dup1\n      swap2\n      sub\n      swap1\n      revert\n    tag_73:\n        /* \"voting.sol\":1646:1647  0 */\n      0x00\n        /* \"voting.sol\":1632:1643  CandidateID */\n      dup2\n        /* \"voting.sol\":1632:1647  CandidateID > 0 */\n      gt\n        /* \"voting.sol\":1632:1681  CandidateID > 0 && CandidateID <= CountCandidates */\n      dup1\n      iszero\n      tag_77\n      jumpi\n      pop\n        /* \"voting.sol\":1666:1681  CountCandidates */\n      sload(0x01)\n        /* \"voting.sol\":1651:1662  CandidateID */\n      dup2\n        /* \"voting.sol\":1651:1681  CandidateID <= CountCandidates */\n      gt\n      iszero\n        /* \"voting.sol\":1632:1681  CandidateID > 0 && CandidateID <= CountCandidates */\n    tag_77:\n        /* \"voting.sol\":1624:1707  require(CandidateID > 0 && CandidateID <= CountCandidates, \"Invalid Candidate ID.\") */\n      tag_78\n      jumpi\n      mload(0x40)\n      0x08c379a000000000000000000000000000000000000000000000000000000000\n      dup2\n      mstore\n      0x04\n      add\n      tag_79\n      swap1\n      tag_80\n      jump\t// in\n    tag_79:\n      mload(0x40)\n      dup1\n      swap2\n      sub\n      swap1\n      revert\n    tag_78:\n        /* \"voting.sol\":1727:1733  voters */\n      0x05\n        /* \"voting.sol\":1727:1745  voters[msg.sender] */\n      0x00\n        /* \"voting.sol\":1734:1744  msg.sender */\n      caller\n        /* \"voting.sol\":1727:1745  voters[msg.sender] */\n      0xffffffffffffffffffffffffffffffffffffffff\n      and\n      0xffffffffffffffffffffffffffffffffffffffff\n      and\n      dup2\n      mstore\n      0x20\n      add\n      swap1\n      dup2\n      mstore\n      0x20\n      add\n      0x00\n      keccak256\n      0x00\n      swap1\n      sload\n      swap1\n      0x0100\n      exp\n      swap1\n      div\n      0xff\n      and\n        /* \"voting.sol\":1726:1745  !voters[msg.sender] */\n      iszero\n        /* \"voting.sol\":1718:1773  require(!voters[msg.sender], \"You have already voted.\") */\n      tag_81\n      jumpi\n      mload(0x40)\n      0x08c379a000000000000000000000000000000000000000000000000000000000\n      dup2\n      mstore\n      0x04\n      add\n      tag_82\n      swap1\n      tag_83\n      jump\t// in\n    tag_82:\n      mload(0x40)\n      dup1\n      swap2\n      sub\n      swap1\n      revert\n    tag_81:\n        /* \"voting.sol\":1805:1809  true */\n      0x01\n        /* \"voting.sol\":1784:1790  voters */\n      0x05\n        /* \"voting.sol\":1784:1802  voters[msg.sender] */\n      0x00\n        /* \"voting.sol\":1791:1801  msg.sender */\n      caller\n        /* \"voting.sol\":1784:1802  voters[msg.sender] */\n      0xffffffffffffffffffffffffffffffffffffffff\n      and\n      0xffffffffffffffffffffffffffffffffffffffff\n      and\n      dup2\n      mstore\n      0x20\n      add\n      swap1\n      dup2\n      mstore\n      0x20\n      add\n      0x00\n      keccak256\n      0x00\n        /* \"voting.sol\":1784:1809  voters[msg.sender] = true */\n      0x0100\n      exp\n      dup2\n      sload\n      dup2\n      0xff\n      mul\n      not\n      and\n      swap1\n      dup4\n      iszero\n      iszero\n      mul\n      or\n      swap1\n      sstore\n      pop\n        /* \"voting.sol\":1820:1830  candidates */\n      0x04\n        /* \"voting.sol\":1820:1843  candidates[CandidateID] */\n      0x00\n        /* \"voting.sol\":1831:1842  CandidateID */\n      dup3\n        /* \"voting.sol\":1820:1843  candidates[CandidateID] */\n      dup2\n      mstore\n      0x20\n      add\n      swap1\n      dup2\n      mstore\n      0x20\n      add\n      0x00\n      keccak256\n        /* \"voting.sol\":1820:1853  candidates[CandidateID].voteCount */\n      0x03\n      add\n      0x00\n        /* \"voting.sol\":1820:1855  candidates[CandidateID].voteCount++ */\n      dup2\n      sload\n      dup1\n      swap3\n      swap2\n      swap1\n      tag_84\n      swap1\n      tag_85\n      jump\t// in\n    tag_84:\n      swap2\n      swap1\n      pop\n      sstore\n      pop\n        /* \"voting.sol\":1879:1889  msg.sender */\n      caller\n        /* \"voting.sol\":1873:1903  voted(msg.sender, CandidateID) */\n      0xffffffffffffffffffffffffffffffffffffffff\n      and\n      0xc591aa98f3e7d1c3a106f4653e39eba694fcc03ba3c686dfbefbf82f6b06bcea\n        /* \"voting.sol\":1891:1902  CandidateID */\n      dup3\n        /* \"voting.sol\":1873:1903  voted(msg.sender, CandidateID) */\n      mload(0x40)\n      tag_86\n      swap2\n      swap1\n      tag_25\n      jump\t// in\n    tag_86:\n      mload(0x40)\n      dup1\n      swap2\n      sub\n      swap1\n      log2\n        /* \"voting.sol\":1562:1911  function vote(uint CandidateID) public votingActive{... */\n      pop\n      jump\t// out\n        /* \"voting.sol\":306:332  uint256 public votingStart */\n    tag_23:\n      sload(0x02)\n      dup2\n      jump\t// out\n        /* \"voting.sol\":2912:3019  function getDates() public view returns(uint256, uint256){... */\n    tag_27:\n        /* \"voting.sol\":2952:2959  uint256 */\n      0x00\n        /* \"voting.sol\":2961:2968  uint256 */\n      dup1\n        /* \"voting.sol\":2988:2999  votingStart */\n      sload(0x02)\n        /* \"voting.sol\":3001:3010  votingEnd */\n      sload(0x03)\n        /* \"voting.sol\":2980:3011  return (votingStart, votingEnd) */\n      swap2\n      pop\n      swap2\n      pop\n        /* \"voting.sol\":2912:3019  function getDates() public view returns(uint256, uint256){... */\n      swap1\n      swap2\n      jump\t// out\n        /* \"voting.sol\":1069:1537  function addCandidate(string memory name, string memory party) public isOwner returns (uint) {... */\n    tag_33:\n        /* \"voting.sol\":1156:1160  uint */\n      0x00\n        /* \"voting.sol\":735:740  Owner */\n      dup1\n      0x00\n      swap1\n      sload\n      swap1\n      0x0100\n      exp\n      swap1\n      div\n      0xffffffffffffffffffffffffffffffffffffffff\n      and\n        /* \"voting.sol\":723:740  msg.sender==Owner */\n      0xffffffffffffffffffffffffffffffffffffffff\n      and\n        /* \"voting.sol\":723:733  msg.sender */\n      caller\n        /* \"voting.sol\":723:740  msg.sender==Owner */\n      0xffffffffffffffffffffffffffffffffffffffff\n      and\n      eq\n        /* \"voting.sol\":715:780  require(msg.sender==Owner, \"Only owner can perform this action.\") */\n      tag_89\n      jumpi\n      mload(0x40)\n      0x08c379a000000000000000000000000000000000000000000000000000000000\n      dup2\n      mstore\n      0x04\n      add\n      tag_90\n      swap1\n      tag_91\n      jump\t// in\n    tag_90:\n      mload(0x40)\n      dup1\n      swap2\n      sub\n      swap1\n      revert\n    tag_89:\n        /* \"voting.sol\":1202:1203  0 */\n      0x00\n        /* \"voting.sol\":1187:1191  name */\n      dup4\n        /* \"voting.sol\":1181:1199  bytes(name).length */\n      mload\n        /* \"voting.sol\":1181:1203  bytes(name).length > 0 */\n      gt\n        /* \"voting.sol\":1173:1239  require(bytes(name).length > 0, \"Candidate Name cannot be empty.\") */\n      tag_93\n      jumpi\n      mload(0x40)\n      0x08c379a000000000000000000000000000000000000000000000000000000000\n      dup2\n      mstore\n      0x04\n      add\n      tag_94\n      swap1\n      tag_95\n      jump\t// in\n    tag_94:\n      mload(0x40)\n      dup1\n      swap2\n      sub\n      swap1\n      revert\n    tag_93:\n        /* \"voting.sol\":1280:1281  0 */\n      0x00\n        /* \"voting.sol\":1264:1269  party */\n      dup3\n        /* \"voting.sol\":1258:1277  bytes(party).length */\n      mload\n        /* \"voting.sol\":1258:1281  bytes(party).length > 0 */\n      gt\n        /* \"voting.sol\":1250:1325  require(bytes(party).length > 0, \"Candidate's party name cannot be empty.\") */\n      tag_96\n      jumpi\n      mload(0x40)\n      0x08c379a000000000000000000000000000000000000000000000000000000000\n      dup2\n      mstore\n      0x04\n      add\n      tag_97\n      swap1\n      tag_98\n      jump\t// in\n    tag_97:\n      mload(0x40)\n      dup1\n      swap2\n      sub\n      swap1\n      revert\n    tag_96:\n        /* \"voting.sol\":1336:1351  CountCandidates */\n      0x01\n      0x00\n        /* \"voting.sol\":1336:1353  CountCandidates++ */\n      dup2\n      sload\n      dup1\n      swap3\n      swap2\n      swap1\n      tag_99\n      swap1\n      tag_85\n      jump\t// in\n    tag_99:\n      swap2\n      swap1\n      pop\n      sstore\n      pop\n        /* \"voting.sol\":1394:1435  Candidate(name,CountCandidates, party, 0) */\n      mload(0x40)\n      dup1\n      0x80\n      add\n      0x40\n      mstore\n      dup1\n        /* \"voting.sol\":1404:1408  name */\n      dup5\n        /* \"voting.sol\":1394:1435  Candidate(name,CountCandidates, party, 0) */\n      dup2\n      mstore\n      0x20\n      add\n        /* \"voting.sol\":1409:1424  CountCandidates */\n      sload(0x01)\n        /* \"voting.sol\":1394:1435  Candidate(name,CountCandidates, party, 0) */\n      dup2\n      mstore\n      0x20\n      add\n        /* \"voting.sol\":1426:1431  party */\n      dup4\n        /* \"voting.sol\":1394:1435  Candidate(name,CountCandidates, party, 0) */\n      dup2\n      mstore\n      0x20\n      add\n        /* \"voting.sol\":1433:1434  0 */\n      0x00\n        /* \"voting.sol\":1394:1435  Candidate(name,CountCandidates, party, 0) */\n      dup2\n      mstore\n      pop\n        /* \"voting.sol\":1364:1374  candidates */\n      0x04\n        /* \"voting.sol\":1364:1391  candidates[CountCandidates] */\n      0x00\n        /* \"voting.sol\":1375:1390  CountCandidates */\n      sload(0x01)\n        /* \"voting.sol\":1364:1391  candidates[CountCandidates] */\n      dup2\n      mstore\n      0x20\n      add\n      swap1\n      dup2\n      mstore\n      0x20\n      add\n      0x00\n      keccak256\n        /* \"voting.sol\":1364:1435  candidates[CountCandidates] = Candidate(name,CountCandidates, party, 0) */\n      0x00\n      dup3\n      add\n      mload\n      dup2\n      0x00\n      add\n      swap1\n      dup2\n      tag_100\n      swap2\n      swap1\n      tag_101\n      jump\t// in\n    tag_100:\n      pop\n      0x20\n      dup3\n      add\n      mload\n      dup2\n      0x01\n      add\n      sstore\n      0x40\n      dup3\n      add\n      mload\n      dup2\n      0x02\n      add\n      swap1\n      dup2\n      tag_102\n      swap2\n      swap1\n      tag_101\n      jump\t// in\n    tag_102:\n      pop\n      0x60\n      dup3\n      add\n      mload\n      dup2\n      0x03\n      add\n      sstore\n      swap1\n      pop\n      pop\n        /* \"voting.sol\":1453:1496  CandidateAdded(CountCandidates,name, party) */\n      0xe64f834082661dd9ed89427b87edb6270fd6dad17198b0938f0edd058914c87f\n        /* \"voting.sol\":1468:1483  CountCandidates */\n      sload(0x01)\n        /* \"voting.sol\":1484:1488  name */\n      dup5\n        /* \"voting.sol\":1490:1495  party */\n      dup5\n        /* \"voting.sol\":1453:1496  CandidateAdded(CountCandidates,name, party) */\n      mload(0x40)\n      tag_103\n      swap4\n      swap3\n      swap2\n      swap1\n      tag_104\n      jump\t// in\n    tag_103:\n      mload(0x40)\n      dup1\n      swap2\n      sub\n      swap1\n      log1\n        /* \"voting.sol\":1514:1529  CountCandidates */\n      sload(0x01)\n        /* \"voting.sol\":1507:1529  return CountCandidates */\n      swap1\n      pop\n        /* \"voting.sol\":1069:1537  function addCandidate(string memory name, string memory party) public isOwner returns (uint) {... */\n      swap3\n      swap2\n      pop\n      pop\n      jump\t// out\n        /* \"voting.sol\":386:429  mapping(uint=> Candidate) public candidates */\n    tag_37:\n      mstore(0x20, 0x04)\n      dup1\n      0x00\n      mstore\n      keccak256(0x00, 0x40)\n      0x00\n      swap2\n      pop\n      swap1\n      pop\n      dup1\n      0x00\n      add\n      dup1\n      sload\n      tag_105\n      swap1\n      tag_106\n      jump\t// in\n    tag_105:\n      dup1\n      0x1f\n      add\n      0x20\n      dup1\n      swap2\n      div\n      mul\n      0x20\n      add\n      mload(0x40)\n      swap1\n      dup2\n      add\n      0x40\n      mstore\n      dup1\n      swap3\n      swap2\n      swap1\n      dup2\n      dup2\n      mstore\n      0x20\n      add\n      dup3\n      dup1\n      sload\n      tag_107\n      swap1\n      tag_106\n      jump\t// in\n    tag_107:\n      dup1\n      iszero\n      tag_108\n      jumpi\n      dup1\n      0x1f\n      lt\n      tag_109\n      jumpi\n      0x0100\n      dup1\n      dup4\n      sload\n      div\n      mul\n      dup4\n      mstore\n      swap2\n      0x20\n      add\n      swap2\n      jump(tag_108)\n    tag_109:\n      dup3\n      add\n      swap2\n      swap1\n      0x00\n      mstore\n      keccak256(0x00, 0x20)\n      swap1\n    tag_110:\n      dup2\n      sload\n      dup2\n      mstore\n      swap1\n      0x01\n      add\n      swap1\n      0x20\n      add\n      dup1\n      dup4\n      gt\n      tag_110\n      jumpi\n      dup3\n      swap1\n      sub\n      0x1f\n      and\n      dup3\n      add\n      swap2\n    tag_108:\n      pop\n      pop\n      pop\n      pop\n      pop\n      swap1\n      dup1\n      0x01\n      add\n      sload\n      swap1\n      dup1\n      0x02\n      add\n      dup1\n      sload\n      tag_111\n      swap1\n      tag_106\n      jump\t// in\n    tag_111:\n      dup1\n      0x1f\n      add\n      0x20\n      dup1\n      swap2\n      div\n      mul\n      0x20\n      add\n      mload(0x40)\n      swap1\n      dup2\n      add\n      0x40\n      mstore\n      dup1\n      swap3\n      swap2\n      swap1\n      dup2\n      dup2\n      mstore\n      0x20\n      add\n      dup3\n      dup1\n      sload\n      tag_112\n      swap1\n      tag_106\n      jump\t// in\n    tag_112:\n      dup1\n      iszero\n      tag_113\n      jumpi\n      dup1\n      0x1f\n      lt\n      tag_114\n      jumpi\n      0x0100\n      dup1\n      dup4\n      sload\n      div\n      mul\n      dup4\n      mstore\n      swap2\n      0x20\n      add\n      swap2\n      jump(tag_113)\n    tag_114:\n      dup3\n      add\n      swap2\n      swap1\n      0x00\n      mstore\n      keccak256(0x00, 0x20)\n      swap1\n    tag_115:\n      dup2\n      sload\n      dup2\n      mstore\n      swap1\n      0x01\n      add\n      swap1\n      0x20\n      add\n      dup1\n      dup4\n      gt\n      tag_115\n      jumpi\n      dup3\n      swap1\n      sub\n      0x1f\n      and\n      dup3\n      add\n      swap2\n    tag_113:\n      pop\n      pop\n      pop\n      pop\n      pop\n      swap1\n      dup1\n      0x03\n      add\n      sload\n      swap1\n      pop\n      dup5\n      jump\t// out\n        /* \"voting.sol\":2029:2421  function getCandidate(uint CandidateID) public view returns(string memory, uint, string memory, uint){... */\n    tag_42:\n        /* \"voting.sol\":2089:2102  string memory */\n      0x60\n        /* \"voting.sol\":2104:2108  uint */\n      0x00\n        /* \"voting.sol\":2110:2123  string memory */\n      0x60\n        /* \"voting.sol\":2125:2129  uint */\n      0x00\n        /* \"voting.sol\":2163:2164  0 */\n      dup1\n        /* \"voting.sol\":2149:2160  CandidateID */\n      dup6\n        /* \"voting.sol\":2149:2164  CandidateID > 0 */\n      gt\n        /* \"voting.sol\":2149:2198  CandidateID > 0 && CandidateID <= CountCandidates */\n      dup1\n      iszero\n      tag_117\n      jumpi\n      pop\n        /* \"voting.sol\":2183:2198  CountCandidates */\n      sload(0x01)\n        /* \"voting.sol\":2168:2179  CandidateID */\n      dup6\n        /* \"voting.sol\":2168:2198  CandidateID <= CountCandidates */\n      gt\n      iszero\n        /* \"voting.sol\":2149:2198  CandidateID > 0 && CandidateID <= CountCandidates */\n    tag_117:\n        /* \"voting.sol\":2141:2224  require(CandidateID > 0 && CandidateID <= CountCandidates, \"Invalid Candidate ID.\") */\n      tag_118\n      jumpi\n      mload(0x40)\n      0x08c379a000000000000000000000000000000000000000000000000000000000\n      dup2\n      mstore\n      0x04\n      add\n      tag_119\n      swap1\n      tag_80\n      jump\t// in\n    tag_119:\n      mload(0x40)\n      dup1\n      swap2\n      sub\n      swap1\n      revert\n    tag_118:\n        /* \"voting.sol\":2275:2301  Candidate memory candidate */\n      0x00\n        /* \"voting.sol\":2304:2314  candidates */\n      0x04\n        /* \"voting.sol\":2304:2327  candidates[CandidateID] */\n      0x00\n        /* \"voting.sol\":2315:2326  CandidateID */\n      dup8\n        /* \"voting.sol\":2304:2327  candidates[CandidateID] */\n      dup2\n      mstore\n      0x20\n      add\n      swap1\n      dup2\n      mstore\n      0x20\n      add\n      0x00\n      keccak256\n        /* \"voting.sol\":2275:2327  Candidate memory candidate = candidates[CandidateID] */\n      mload(0x40)\n      dup1\n      0x80\n      add\n      0x40\n      mstore\n      swap1\n      dup2\n      0x00\n      dup3\n      add\n      dup1\n      sload\n      tag_120\n      swap1\n      tag_106\n      jump\t// in\n    tag_120:\n      dup1\n      0x1f\n      add\n      0x20\n      dup1\n      swap2\n      div\n      mul\n      0x20\n      add\n      mload(0x40)\n      swap1\n      dup2\n      add\n      0x40\n      mstore\n      dup1\n      swap3\n      swap2\n      swap1\n      dup2\n      dup2\n      mstore\n      0x20\n      add\n      dup3\n      dup1\n      sload\n      tag_121\n      swap1\n      tag_106\n      jump\t// in\n    tag_121:\n      dup1\n      iszero\n      tag_122\n      jumpi\n      dup1\n      0x1f\n      lt\n      tag_123\n      jumpi\n      0x0100\n      dup1\n      dup4\n      sload\n      div\n      mul\n      dup4\n      mstore\n      swap2\n      0x20\n      add\n      swap2\n      jump(tag_122)\n    tag_123:\n      dup3\n      add\n      swap2\n      swap1\n      0x00\n      mstore\n      keccak256(0x00, 0x20)\n      swap1\n    tag_124:\n      dup2\n      sload\n      dup2\n      mstore\n      swap1\n      0x01\n      add\n      swap1\n      0x20\n      add\n      dup1\n      dup4\n      gt\n      tag_124\n      jumpi\n      dup3\n      swap1\n      sub\n      0x1f\n      and\n      dup3\n      add\n      swap2\n    tag_122:\n      pop\n      pop\n      pop\n      pop\n      pop\n      dup2\n      mstore\n      0x20\n      add\n      0x01\n      dup3\n      add\n      sload\n      dup2\n      mstore\n      0x20\n      add\n      0x02\n      dup3\n      add\n      dup1\n      sload\n      tag_125\n      swap1\n      tag_106\n      jump\t// in\n    tag_125:\n      dup1\n      0x1f\n      add\n      0x20\n      dup1\n      swap2\n      div\n      mul\n      0x20\n      add\n      mload(0x40)\n      swap1\n      dup2\n      add\n      0x40\n      mstore\n      dup1\n      swap3\n      swap2\n      swap1\n      dup2\n      dup2\n      mstore\n      0x20\n      add\n      dup3\n      dup1\n      sload\n      tag_126\n      swap1\n      tag_106\n      jump\t// in\n    tag_126:\n      dup1\n      iszero\n      tag_127\n      jumpi\n      dup1\n      0x1f\n      lt\n      tag_128\n      jumpi\n      0x0100\n      dup1\n      dup4\n      sload\n      div\n      mul\n      dup4\n      mstore\n      swap2\n      0x20\n      add\n      swap2\n      jump(tag_127)\n    tag_128:\n      dup3\n      add\n      swap2\n      swap1\n      0x00\n      mstore\n      keccak256(0x00, 0x20)\n      swap1\n    tag_129:\n      dup2\n      sload\n      dup2\n      mstore\n      swap1\n      0x01\n      add\n      swap1\n      0x20\n      add\n      dup1\n      dup4\n      gt\n      tag_129\n      jumpi\n      dup3\n      swap1\n      sub\n      0x1f\n      and\n      dup3\n      add\n      swap2\n    tag_127:\n      pop\n      pop\n      pop\n      pop\n      pop\n      dup2\n      mstore\n      0x20\n      add\n      0x03\n      dup3\n      add\n      sload\n      dup2\n      mstore\n      pop\n      pop\n      swap1\n      pop\n        /* \"voting.sol\":2346:2355  candidate */\n      dup1\n        /* \"voting.sol\":2346:2360  candidate.name */\n      0x00\n      add\n      mload\n        /* \"voting.sol\":2362:2371  candidate */\n      dup2\n        /* \"voting.sol\":2362:2374  candidate.id */\n      0x20\n      add\n      mload\n        /* \"voting.sol\":2376:2385  candidate */\n      dup3\n        /* \"voting.sol\":2376:2391  candidate.party */\n      0x40\n      add\n      mload\n        /* \"voting.sol\":2393:2402  candidate */\n      dup4\n        /* \"voting.sol\":2393:2412  candidate.voteCount */\n      0x60\n      add\n      mload\n        /* \"voting.sol\":2338:2413  return (candidate.name, candidate.id, candidate.party, candidate.voteCount) */\n      swap5\n      pop\n      swap5\n      pop\n      swap5\n      pop\n      swap5\n      pop\n      pop\n        /* \"voting.sol\":2029:2421  function getCandidate(uint CandidateID) public view returns(string memory, uint, string memory, uint){... */\n      swap2\n      swap4\n      pop\n      swap2\n      swap4\n      jump\t// out\n        /* \"voting.sol\":269:299  uint256 public CountCandidates */\n    tag_45:\n      sload(0x01)\n      dup2\n      jump\t// out\n        /* \"voting.sol\":339:363  uint256 public votingEnd */\n    tag_48:\n      sload(0x03)\n      dup2\n      jump\t// out\n        /* \"voting.sol\":3039:3677  function getWinner() public view isOwner returns (string memory, string memory, uint) {... */\n    tag_51:\n        /* \"voting.sol\":3089:3102  string memory */\n      0x60\n        /* \"voting.sol\":3104:3117  string memory */\n      dup1\n        /* \"voting.sol\":3119:3123  uint */\n      0x00\n        /* \"voting.sol\":735:740  Owner */\n      dup1\n      0x00\n      swap1\n      sload\n      swap1\n      0x0100\n      exp\n      swap1\n      div\n      0xffffffffffffffffffffffffffffffffffffffff\n      and\n        /* \"voting.sol\":723:740  msg.sender==Owner */\n      0xffffffffffffffffffffffffffffffffffffffff\n      and\n        /* \"voting.sol\":723:733  msg.sender */\n      caller\n        /* \"voting.sol\":723:740  msg.sender==Owner */\n      0xffffffffffffffffffffffffffffffffffffffff\n      and\n      eq\n        /* \"voting.sol\":715:780  require(msg.sender==Owner, \"Only owner can perform this action.\") */\n      tag_131\n      jumpi\n      mload(0x40)\n      0x08c379a000000000000000000000000000000000000000000000000000000000\n      dup2\n      mstore\n      0x04\n      add\n      tag_132\n      swap1\n      tag_91\n      jump\t// in\n    tag_132:\n      mload(0x40)\n      dup1\n      swap2\n      sub\n      swap1\n      revert\n    tag_131:\n        /* \"voting.sol\":3162:3171  votingEnd */\n      sload(0x03)\n        /* \"voting.sol\":3144:3159  block.timestamp */\n      timestamp\n        /* \"voting.sol\":3144:3171  block.timestamp > votingEnd */\n      gt\n        /* \"voting.sol\":3136:3202  require(block.timestamp > votingEnd, \"Voting period is not over.\") */\n      tag_134\n      jumpi\n      mload(0x40)\n      0x08c379a000000000000000000000000000000000000000000000000000000000\n      dup2\n      mstore\n      0x04\n      add\n      tag_135\n      swap1\n      tag_136\n      jump\t// in\n    tag_135:\n      mload(0x40)\n      dup1\n      swap2\n      sub\n      swap1\n      revert\n    tag_134:\n        /* \"voting.sol\":3215:3232  uint highestVotes */\n      0x00\n        /* \"voting.sol\":3247:3260  uint winnerId */\n      dup1\n        /* \"voting.sol\":3282:3288  uint i */\n      0x00\n        /* \"voting.sol\":3291:3292  1 */\n      0x01\n        /* \"voting.sol\":3282:3292  uint i = 1 */\n      swap1\n      pop\n        /* \"voting.sol\":3277:3495  for (uint i = 1; i <= CountCandidates; i++) {... */\n    tag_137:\n        /* \"voting.sol\":3299:3314  CountCandidates */\n      sload(0x01)\n        /* \"voting.sol\":3294:3295  i */\n      dup2\n        /* \"voting.sol\":3294:3314  i <= CountCandidates */\n      gt\n        /* \"voting.sol\":3277:3495  for (uint i = 1; i <= CountCandidates; i++) {... */\n      tag_138\n      jumpi\n        /* \"voting.sol\":3366:3378  highestVotes */\n      dup3\n        /* \"voting.sol\":3340:3350  candidates */\n      0x04\n        /* \"voting.sol\":3340:3353  candidates[i] */\n      0x00\n        /* \"voting.sol\":3351:3352  i */\n      dup4\n        /* \"voting.sol\":3340:3353  candidates[i] */\n      dup2\n      mstore\n      0x20\n      add\n      swap1\n      dup2\n      mstore\n      0x20\n      add\n      0x00\n      keccak256\n        /* \"voting.sol\":3340:3363  candidates[i].voteCount */\n      0x03\n      add\n      sload\n        /* \"voting.sol\":3340:3378  candidates[i].voteCount > highestVotes */\n      gt\n        /* \"voting.sol\":3336:3484  if (candidates[i].voteCount > highestVotes) {... */\n      iszero\n      tag_140\n      jumpi\n        /* \"voting.sol\":3414:3424  candidates */\n      0x04\n        /* \"voting.sol\":3414:3427  candidates[i] */\n      0x00\n        /* \"voting.sol\":3425:3426  i */\n      dup3\n        /* \"voting.sol\":3414:3427  candidates[i] */\n      dup2\n      mstore\n      0x20\n      add\n      swap1\n      dup2\n      mstore\n      0x20\n      add\n      0x00\n      keccak256\n        /* \"voting.sol\":3414:3437  candidates[i].voteCount */\n      0x03\n      add\n      sload\n        /* \"voting.sol\":3399:3437  highestVotes = candidates[i].voteCount */\n      swap3\n      pop\n        /* \"voting.sol\":3467:3468  i */\n      dup1\n        /* \"voting.sol\":3456:3468  winnerId = i */\n      swap2\n      pop\n        /* \"voting.sol\":3336:3484  if (candidates[i].voteCount > highestVotes) {... */\n    tag_140:\n        /* \"voting.sol\":3316:3319  i++ */\n      dup1\n      dup1\n      tag_141\n      swap1\n      tag_85\n      jump\t// in\n    tag_141:\n      swap2\n      pop\n      pop\n        /* \"voting.sol\":3277:3495  for (uint i = 1; i <= CountCandidates; i++) {... */\n      jump(tag_137)\n    tag_138:\n      pop\n        /* \"voting.sol\":3527:3528  0 */\n      0x00\n        /* \"voting.sol\":3515:3523  winnerId */\n      dup2\n        /* \"voting.sol\":3515:3528  winnerId != 0 */\n      sub\n        /* \"voting.sol\":3507:3547  require(winnerId != 0, \"No votes cast.\") */\n      tag_142\n      jumpi\n      mload(0x40)\n      0x08c379a000000000000000000000000000000000000000000000000000000000\n      dup2\n      mstore\n      0x04\n      add\n      tag_143\n      swap1\n      tag_144\n      jump\t// in\n    tag_143:\n      mload(0x40)\n      dup1\n      swap2\n      sub\n      swap1\n      revert\n    tag_142:\n        /* \"voting.sol\":3560:3583  Candidate memory winner */\n      0x00\n        /* \"voting.sol\":3586:3596  candidates */\n      0x04\n        /* \"voting.sol\":3586:3606  candidates[winnerId] */\n      0x00\n        /* \"voting.sol\":3597:3605  winnerId */\n      dup4\n        /* \"voting.sol\":3586:3606  candidates[winnerId] */\n      dup2\n      mstore\n      0x20\n      add\n      swap1\n      dup2\n      mstore\n      0x20\n      add\n      0x00\n      keccak256\n        /* \"voting.sol\":3560:3606  Candidate memory winner = candidates[winnerId] */\n      mload(0x40)\n      dup1\n      0x80\n      add\n      0x40\n      mstore\n      swap1\n      dup2\n      0x00\n      dup3\n      add\n      dup1\n      sload\n      tag_145\n      swap1\n      tag_106\n      jump\t// in\n    tag_145:\n      dup1\n      0x1f\n      add\n      0x20\n      dup1\n      swap2\n      div\n      mul\n      0x20\n      add\n      mload(0x40)\n      swap1\n      dup2\n      add\n      0x40\n      mstore\n      dup1\n      swap3\n      swap2\n      swap1\n      dup2\n      dup2\n      mstore\n      0x20\n      add\n      dup3\n      dup1\n      sload\n      tag_146\n      swap1\n      tag_106\n      jump\t// in\n    tag_146:\n      dup1\n      iszero\n      tag_147\n      jumpi\n      dup1\n      0x1f\n      lt\n      tag_148\n      jumpi\n      0x0100\n      dup1\n      dup4\n      sload\n      div\n      mul\n      dup4\n      mstore\n      swap2\n      0x20\n      add\n      swap2\n      jump(tag_147)\n    tag_148:\n      dup3\n      add\n      swap2\n      swap1\n      0x00\n      mstore\n      keccak256(0x00, 0x20)\n      swap1\n    tag_149:\n      dup2\n      sload\n      dup2\n      mstore\n      swap1\n      0x01\n      add\n      swap1\n      0x20\n      add\n      dup1\n      dup4\n      gt\n      tag_149\n      jumpi\n      dup3\n      swap1\n      sub\n      0x1f\n      and\n      dup3\n      add\n      swap2\n    tag_147:\n      pop\n      pop\n      pop\n      pop\n      pop\n      dup2\n      mstore\n      0x20\n      add\n      0x01\n      dup3\n      add\n      sload\n      dup2\n      mstore\n      0x20\n      add\n      0x02\n      dup3\n      add\n      dup1\n      sload\n      tag_150\n      swap1\n      tag_106\n      jump\t// in\n    tag_150:\n      dup1\n      0x1f\n      add\n      0x20\n      dup1\n      swap2\n      div\n      mul\n      0x20\n      add\n      mload(0x40)\n      swap1\n      dup2\n      add\n      0x40\n      mstore\n      dup1\n      swap3\n      swap2\n      swap1\n      dup2\n      dup2\n      mstore\n      0x20\n      add\n      dup3\n      dup1\n      sload\n      tag_151\n      swap1\n      tag_106\n      jump\t// in\n    tag_151:\n      dup1\n      iszero\n      tag_152\n      jumpi\n      dup1\n      0x1f\n      lt\n      tag_153\n      jumpi\n      0x0100\n      dup1\n      dup4\n      sload\n      div\n      mul\n      dup4\n      mstore\n      swap2\n      0x20\n      add\n      swap2\n      jump(tag_152)\n    tag_153:\n      dup3\n      add\n      swap2\n      swap1\n      0x00\n      mstore\n      keccak256(0x00, 0x20)\n      swap1\n    tag_154:\n      dup2\n      sload\n      dup2\n      mstore\n      swap1\n      0x01\n      add\n      swap1\n      0x20\n      add\n      dup1\n      dup4\n      gt\n      tag_154\n      jumpi\n      dup3\n      swap1\n      sub\n      0x1f\n      and\n      dup3\n      add\n      swap2\n    tag_152:\n      pop\n      pop\n      pop\n      pop\n      pop\n      dup2\n      mstore\n      0x20\n      add\n      0x03\n      dup3\n      add\n      sload\n      dup2\n      mstore\n      pop\n      pop\n      swap1\n      pop\n        /* \"voting.sol\":3625:3631  winner */\n      dup1\n        /* \"voting.sol\":3625:3636  winner.name */\n      0x00\n      add\n      mload\n        /* \"voting.sol\":3638:3644  winner */\n      dup2\n        /* \"voting.sol\":3638:3650  winner.party */\n      0x40\n      add\n      mload\n        /* \"voting.sol\":3652:3658  winner */\n      dup3\n        /* \"voting.sol\":3652:3668  winner.voteCount */\n      0x60\n      add\n      mload\n        /* \"voting.sol\":3617:3669  return (winner.name, winner.party, winner.voteCount) */\n      swap6\n      pop\n      swap6\n      pop\n      swap6\n      pop\n      pop\n      pop\n      pop\n        /* \"voting.sol\":3039:3677  function getWinner() public view isOwner returns (string memory, string memory, uint) {... */\n      swap1\n      swap2\n      swap3\n      jump\t// out\n        /* \"voting.sol\":436:472  mapping(address=>bool) public voters */\n    tag_57:\n      mstore(0x20, 0x05)\n      dup1\n      0x00\n      mstore\n      keccak256(0x00, 0x40)\n      0x00\n      swap2\n      pop\n      sload\n      swap1\n      0x0100\n      exp\n      swap1\n      div\n      0xff\n      and\n      dup2\n      jump\t// out\n        /* \"voting.sol\":1917:2007  function checkVote() public view returns(bool){... */\n    tag_61:\n        /* \"voting.sol\":1958:1962  bool */\n      0x00\n        /* \"voting.sol\":1981:1987  voters */\n      0x05\n        /* \"voting.sol\":1981:1999  voters[msg.sender] */\n      0x00\n        /* \"voting.sol\":1988:1998  msg.sender */\n      caller\n        /* \"voting.sol\":1981:1999  voters[msg.sender] */\n      0xffffffffffffffffffffffffffffffffffffffff\n      and\n      0xffffffffffffffffffffffffffffffffffffffff\n      and\n      dup2\n      mstore\n      0x20\n      add\n      swap1\n      dup2\n      mstore\n      0x20\n      add\n      0x00\n      keccak256\n      0x00\n      swap1\n      sload\n      swap1\n      0x0100\n      exp\n      swap1\n      div\n      0xff\n      and\n        /* \"voting.sol\":1974:1999  return voters[msg.sender] */\n      swap1\n      pop\n        /* \"voting.sol\":1917:2007  function checkVote() public view returns(bool){... */\n      swap1\n      jump\t// out\n        /* \"voting.sol\":242:262  address public Owner */\n    tag_64:\n      0x00\n      dup1\n      sload\n      swap1\n      0x0100\n      exp\n      swap1\n      div\n      0xffffffffffffffffffffffffffffffffffffffff\n      and\n      dup2\n      jump\t// out\n        /* \"voting.sol\":2440:2893  function setDates(uint256 _startDate, uint256 _endDate) public isOwner{... */\n    tag_70:\n        /* \"voting.sol\":735:740  Owner */\n      0x00\n      dup1\n      sload\n      swap1\n      0x0100\n      exp\n      swap1\n      div\n      0xffffffffffffffffffffffffffffffffffffffff\n      and\n        /* \"voting.sol\":723:740  msg.sender==Owner */\n      0xffffffffffffffffffffffffffffffffffffffff\n      and\n        /* \"voting.sol\":723:733  msg.sender */\n      caller\n        /* \"voting.sol\":723:740  msg.sender==Owner */\n      0xffffffffffffffffffffffffffffffffffffffff\n      and\n      eq\n        /* \"voting.sol\":715:780  require(msg.sender==Owner, \"Only owner can perform this action.\") */\n      tag_157\n      jumpi\n      mload(0x40)\n      0x08c379a000000000000000000000000000000000000000000000000000000000\n      dup2\n      mstore\n      0x04\n      add\n      tag_158\n      swap1\n      tag_91\n      jump\t// in\n    tag_158:\n      mload(0x40)\n      dup1\n      swap2\n      sub\n      swap1\n      revert\n    tag_157:\n        /* \"voting.sol\":2544:2545  0 */\n      0x00\n        /* \"voting.sol\":2529:2540  votingStart */\n      sload(0x02)\n        /* \"voting.sol\":2529:2545  votingStart == 0 */\n      eq\n        /* \"voting.sol\":2529:2563  votingStart == 0 && votingEnd == 0 */\n      dup1\n      iszero\n      tag_160\n      jumpi\n      pop\n        /* \"voting.sol\":2562:2563  0 */\n      0x00\n        /* \"voting.sol\":2549:2558  votingEnd */\n      sload(0x03)\n        /* \"voting.sol\":2549:2563  votingEnd == 0 */\n      eq\n        /* \"voting.sol\":2529:2563  votingStart == 0 && votingEnd == 0 */\n    tag_160:\n        /* \"voting.sol\":2521:2593  require(votingStart == 0 && votingEnd == 0, \"Voting Dates already set.\") */\n      tag_161\n      jumpi\n      mload(0x40)\n      0x08c379a000000000000000000000000000000000000000000000000000000000\n      dup2\n      mstore\n      0x04\n      add\n      tag_162\n      swap1\n      tag_163\n      jump\t// in\n    tag_162:\n      mload(0x40)\n      dup1\n      swap2\n      sub\n      swap1\n      revert\n    tag_161:\n        /* \"voting.sol\":2625:2640  block.timestamp */\n      timestamp\n        /* \"voting.sol\":2612:2622  _startDate */\n      dup3\n        /* \"voting.sol\":2612:2640  _startDate > block.timestamp */\n      gt\n        /* \"voting.sol\":2604:2677  require(_startDate > block.timestamp, \"Voting has not been started yet.\") */\n      tag_164\n      jumpi\n      mload(0x40)\n      0x08c379a000000000000000000000000000000000000000000000000000000000\n      dup2\n      mstore\n      0x04\n      add\n      tag_165\n      swap1\n      tag_166\n      jump\t// in\n    tag_165:\n      mload(0x40)\n      dup1\n      swap2\n      sub\n      swap1\n      revert\n    tag_164:\n        /* \"voting.sol\":2707:2717  _startDate */\n      dup2\n        /* \"voting.sol\":2696:2704  _endDate */\n      dup2\n        /* \"voting.sol\":2696:2717  _endDate > _startDate */\n      gt\n        /* \"voting.sol\":2688:2760  require(_endDate > _startDate, \"End date must be after the start date.\") */\n      tag_167\n      jumpi\n      mload(0x40)\n      0x08c379a000000000000000000000000000000000000000000000000000000000\n      dup2\n      mstore\n      0x04\n      add\n      tag_168\n      swap1\n      tag_169\n      jump\t// in\n    tag_168:\n      mload(0x40)\n      dup1\n      swap2\n      sub\n      swap1\n      revert\n    tag_167:\n        /* \"voting.sol\":2787:2797  _startDate */\n      dup2\n        /* \"voting.sol\":2773:2784  votingStart */\n      0x02\n        /* \"voting.sol\":2773:2797  votingStart = _startDate */\n      dup2\n      swap1\n      sstore\n      pop\n        /* \"voting.sol\":2820:2828  _endDate */\n      dup1\n        /* \"voting.sol\":2808:2817  votingEnd */\n      0x03\n        /* \"voting.sol\":2808:2828  votingEnd = _endDate */\n      dup2\n      swap1\n      sstore\n      pop\n        /* \"voting.sol\":2846:2883  VotingDateset(votingStart, votingEnd) */\n      0x5a6072db5fcfd686f9c78d6f55fa1ac09576848e350673f1c3ec3c8f433346a3\n        /* \"voting.sol\":2860:2871  votingStart */\n      sload(0x02)\n        /* \"voting.sol\":2873:2882  votingEnd */\n      sload(0x03)\n        /* \"voting.sol\":2846:2883  VotingDateset(votingStart, votingEnd) */\n      mload(0x40)\n      tag_170\n      swap3\n      swap2\n      swap1\n      tag_29\n      jump\t// in\n    tag_170:\n      mload(0x40)\n      dup1\n      swap2\n      sub\n      swap1\n      log1\n        /* \"voting.sol\":2440:2893  function setDates(uint256 _startDate, uint256 _endDate) public isOwner{... */\n      pop\n      pop\n      jump\t// out\n        /* \"#utility.yul\":7:82   */\n    tag_171:\n        /* \"#utility.yul\":40:46   */\n      0x00\n        /* \"#utility.yul\":73:75   */\n      0x40\n        /* \"#utility.yul\":67:76   */\n      mload\n        /* \"#utility.yul\":57:76   */\n      swap1\n      pop\n        /* \"#utility.yul\":7:82   */\n      swap1\n      jump\t// out\n        /* \"#utility.yul\":88:205   */\n    tag_172:\n        /* \"#utility.yul\":197:198   */\n      0x00\n        /* \"#utility.yul\":194:195   */\n      dup1\n        /* \"#utility.yul\":187:199   */\n      revert\n        /* \"#utility.yul\":211:328   */\n    tag_173:\n        /* \"#utility.yul\":320:321   */\n      0x00\n        /* \"#utility.yul\":317:318   */\n      dup1\n        /* \"#utility.yul\":310:322   */\n      revert\n        /* \"#utility.yul\":334:411   */\n    tag_174:\n        /* \"#utility.yul\":371:378   */\n      0x00\n        /* \"#utility.yul\":400:405   */\n      dup2\n        /* \"#utility.yul\":389:405   */\n      swap1\n      pop\n        /* \"#utility.yul\":334:411   */\n      swap2\n      swap1\n      pop\n      jump\t// out\n        /* \"#utility.yul\":417:539   */\n    tag_175:\n        /* \"#utility.yul\":490:514   */\n      tag_244\n        /* \"#utility.yul\":508:513   */\n      dup2\n        /* \"#utility.yul\":490:514   */\n      tag_174\n      jump\t// in\n    tag_244:\n        /* \"#utility.yul\":483:488   */\n      dup2\n        /* \"#utility.yul\":480:515   */\n      eq\n        /* \"#utility.yul\":470:533   */\n      tag_245\n      jumpi\n        /* \"#utility.yul\":529:530   */\n      0x00\n        /* \"#utility.yul\":526:527   */\n      dup1\n        /* \"#utility.yul\":519:531   */\n      revert\n        /* \"#utility.yul\":470:533   */\n    tag_245:\n        /* \"#utility.yul\":417:539   */\n      pop\n      jump\t// out\n        /* \"#utility.yul\":545:684   */\n    tag_176:\n        /* \"#utility.yul\":591:596   */\n      0x00\n        /* \"#utility.yul\":629:635   */\n      dup2\n        /* \"#utility.yul\":616:636   */\n      calldataload\n        /* \"#utility.yul\":607:636   */\n      swap1\n      pop\n        /* \"#utility.yul\":645:678   */\n      tag_247\n        /* \"#utility.yul\":672:677   */\n      dup2\n        /* \"#utility.yul\":645:678   */\n      tag_175\n      jump\t// in\n    tag_247:\n        /* \"#utility.yul\":545:684   */\n      swap3\n      swap2\n      pop\n      pop\n      jump\t// out\n        /* \"#utility.yul\":690:1019   */\n    tag_20:\n        /* \"#utility.yul\":749:755   */\n      0x00\n        /* \"#utility.yul\":798:800   */\n      0x20\n        /* \"#utility.yul\":786:795   */\n      dup3\n        /* \"#utility.yul\":777:784   */\n      dup5\n        /* \"#utility.yul\":773:796   */\n      sub\n        /* \"#utility.yul\":769:801   */\n      slt\n        /* \"#utility.yul\":766:885   */\n      iszero\n      tag_249\n      jumpi\n        /* \"#utility.yul\":804:883   */\n      tag_250\n      tag_172\n      jump\t// in\n    tag_250:\n        /* \"#utility.yul\":766:885   */\n    tag_249:\n        /* \"#utility.yul\":924:925   */\n      0x00\n        /* \"#utility.yul\":949:1002   */\n      tag_251\n        /* \"#utility.yul\":994:1001   */\n      dup5\n        /* \"#utility.yul\":985:991   */\n      dup3\n        /* \"#utility.yul\":974:983   */\n      dup6\n        /* \"#utility.yul\":970:992   */\n      add\n        /* \"#utility.yul\":949:1002   */\n      tag_176\n      jump\t// in\n    tag_251:\n        /* \"#utility.yul\":939:1002   */\n      swap2\n      pop\n        /* \"#utility.yul\":895:1012   */\n      pop\n        /* \"#utility.yul\":690:1019   */\n      swap3\n      swap2\n      pop\n      pop\n      jump\t// out\n        /* \"#utility.yul\":1025:1143   */\n    tag_177:\n        /* \"#utility.yul\":1112:1136   */\n      tag_253\n        /* \"#utility.yul\":1130:1135   */\n      dup2\n        /* \"#utility.yul\":1112:1136   */\n      tag_174\n      jump\t// in\n    tag_253:\n        /* \"#utility.yul\":1107:1110   */\n      dup3\n        /* \"#utility.yul\":1100:1137   */\n      mstore\n        /* \"#utility.yul\":1025:1143   */\n      pop\n      pop\n      jump\t// out\n        /* \"#utility.yul\":1149:1371   */\n    tag_25:\n        /* \"#utility.yul\":1242:1246   */\n      0x00\n        /* \"#utility.yul\":1280:1282   */\n      0x20\n        /* \"#utility.yul\":1269:1278   */\n      dup3\n        /* \"#utility.yul\":1265:1283   */\n      add\n        /* \"#utility.yul\":1257:1283   */\n      swap1\n      pop\n        /* \"#utility.yul\":1293:1364   */\n      tag_255\n        /* \"#utility.yul\":1361:1362   */\n      0x00\n        /* \"#utility.yul\":1350:1359   */\n      dup4\n        /* \"#utility.yul\":1346:1363   */\n      add\n        /* \"#utility.yul\":1337:1343   */\n      dup5\n        /* \"#utility.yul\":1293:1364   */\n      tag_177\n      jump\t// in\n    tag_255:\n        /* \"#utility.yul\":1149:1371   */\n      swap3\n      swap2\n      pop\n      pop\n      jump\t// out\n        /* \"#utility.yul\":1377:1709   */\n    tag_29:\n        /* \"#utility.yul\":1498:1502   */\n      0x00\n        /* \"#utility.yul\":1536:1538   */\n      0x40\n        /* \"#utility.yul\":1525:1534   */\n      dup3\n        /* \"#utility.yul\":1521:1539   */\n      add\n        /* \"#utility.yul\":1513:1539   */\n      swap1\n      pop\n        /* \"#utility.yul\":1549:1620   */\n      tag_257\n        /* \"#utility.yul\":1617:1618   */\n      0x00\n        /* \"#utility.yul\":1606:1615   */\n      dup4\n        /* \"#utility.yul\":1602:1619   */\n      add\n        /* \"#utility.yul\":1593:1599   */\n      dup6\n        /* \"#utility.yul\":1549:1620   */\n      tag_177\n      jump\t// in\n    tag_257:\n        /* \"#utility.yul\":1630:1702   */\n      tag_258\n        /* \"#utility.yul\":1698:1700   */\n      0x20\n        /* \"#utility.yul\":1687:1696   */\n      dup4\n        /* \"#utility.yul\":1683:1701   */\n      add\n        /* \"#utility.yul\":1674:1680   */\n      dup5\n        /* \"#utility.yul\":1630:1702   */\n      tag_177\n      jump\t// in\n    tag_258:\n        /* \"#utility.yul\":1377:1709   */\n      swap4\n      swap3\n      pop\n      pop\n      pop\n      jump\t// out\n        /* \"#utility.yul\":1715:1832   */\n    tag_178:\n        /* \"#utility.yul\":1824:1825   */\n      0x00\n        /* \"#utility.yul\":1821:1822   */\n      dup1\n        /* \"#utility.yul\":1814:1826   */\n      revert\n        /* \"#utility.yul\":1838:1955   */\n    tag_179:\n        /* \"#utility.yul\":1947:1948   */\n      0x00\n        /* \"#utility.yul\":1944:1945   */\n      dup1\n        /* \"#utility.yul\":1937:1949   */\n      revert\n        /* \"#utility.yul\":1961:2063   */\n    tag_180:\n        /* \"#utility.yul\":2002:2008   */\n      0x00\n        /* \"#utility.yul\":2053:2055   */\n      0x1f\n        /* \"#utility.yul\":2049:2056   */\n      not\n        /* \"#utility.yul\":2044:2046   */\n      0x1f\n        /* \"#utility.yul\":2037:2042   */\n      dup4\n        /* \"#utility.yul\":2033:2047   */\n      add\n        /* \"#utility.yul\":2029:2057   */\n      and\n        /* \"#utility.yul\":2019:2057   */\n      swap1\n      pop\n        /* \"#utility.yul\":1961:2063   */\n      swap2\n      swap1\n      pop\n      jump\t// out\n        /* \"#utility.yul\":2069:2249   */\n    tag_181:\n        /* \"#utility.yul\":2117:2194   */\n      0x4e487b7100000000000000000000000000000000000000000000000000000000\n        /* \"#utility.yul\":2114:2115   */\n      0x00\n        /* \"#utility.yul\":2107:2195   */\n      mstore\n        /* \"#utility.yul\":2214:2218   */\n      0x41\n        /* \"#utility.yul\":2211:2212   */\n      0x04\n        /* \"#utility.yul\":2204:2219   */\n      mstore\n        /* \"#utility.yul\":2238:2242   */\n      0x24\n        /* \"#utility.yul\":2235:2236   */\n      0x00\n        /* \"#utility.yul\":2228:2243   */\n      revert\n        /* \"#utility.yul\":2255:2536   */\n    tag_182:\n        /* \"#utility.yul\":2338:2365   */\n      tag_264\n        /* \"#utility.yul\":2360:2364   */\n      dup3\n        /* \"#utility.yul\":2338:2365   */\n      tag_180\n      jump\t// in\n    tag_264:\n        /* \"#utility.yul\":2330:2336   */\n      dup2\n        /* \"#utility.yul\":2326:2366   */\n      add\n        /* \"#utility.yul\":2468:2474   */\n      dup2\n        /* \"#utility.yul\":2456:2466   */\n      dup2\n        /* \"#utility.yul\":2453:2475   */\n      lt\n        /* \"#utility.yul\":2432:2450   */\n      0xffffffffffffffff\n        /* \"#utility.yul\":2420:2430   */\n      dup3\n        /* \"#utility.yul\":2417:2451   */\n      gt\n        /* \"#utility.yul\":2414:2476   */\n      or\n        /* \"#utility.yul\":2411:2499   */\n      iszero\n      tag_265\n      jumpi\n        /* \"#utility.yul\":2479:2497   */\n      tag_266\n      tag_181\n      jump\t// in\n    tag_266:\n        /* \"#utility.yul\":2411:2499   */\n    tag_265:\n        /* \"#utility.yul\":2519:2529   */\n      dup1\n        /* \"#utility.yul\":2515:2517   */\n      0x40\n        /* \"#utility.yul\":2508:2530   */\n      mstore\n        /* \"#utility.yul\":2298:2536   */\n      pop\n        /* \"#utility.yul\":2255:2536   */\n      pop\n      pop\n      jump\t// out\n        /* \"#utility.yul\":2542:2671   */\n    tag_183:\n        /* \"#utility.yul\":2576:2582   */\n      0x00\n        /* \"#utility.yul\":2603:2623   */\n      tag_268\n      tag_171\n      jump\t// in\n    tag_268:\n        /* \"#utility.yul\":2593:2623   */\n      swap1\n      pop\n        /* \"#utility.yul\":2632:2665   */\n      tag_269\n        /* \"#utility.yul\":2660:2664   */\n      dup3\n        /* \"#utility.yul\":2652:2658   */\n      dup3\n        /* \"#utility.yul\":2632:2665   */\n      tag_182\n      jump\t// in\n    tag_269:\n        /* \"#utility.yul\":2542:2671   */\n      swap2\n      swap1\n      pop\n      jump\t// out\n        /* \"#utility.yul\":2677:2985   */\n    tag_184:\n        /* \"#utility.yul\":2739:2743   */\n      0x00\n        /* \"#utility.yul\":2829:2847   */\n      0xffffffffffffffff\n        /* \"#utility.yul\":2821:2827   */\n      dup3\n        /* \"#utility.yul\":2818:2848   */\n      gt\n        /* \"#utility.yul\":2815:2871   */\n      iszero\n      tag_271\n      jumpi\n        /* \"#utility.yul\":2851:2869   */\n      tag_272\n      tag_181\n      jump\t// in\n    tag_272:\n        /* \"#utility.yul\":2815:2871   */\n    tag_271:\n        /* \"#utility.yul\":2889:2918   */\n      tag_273\n        /* \"#utility.yul\":2911:2917   */\n      dup3\n        /* \"#utility.yul\":2889:2918   */\n      tag_180\n      jump\t// in\n    tag_273:\n        /* \"#utility.yul\":2881:2918   */\n      swap1\n      pop\n        /* \"#utility.yul\":2973:2977   */\n      0x20\n        /* \"#utility.yul\":2967:2971   */\n      dup2\n        /* \"#utility.yul\":2963:2978   */\n      add\n        /* \"#utility.yul\":2955:2978   */\n      swap1\n      pop\n        /* \"#utility.yul\":2677:2985   */\n      swap2\n      swap1\n      pop\n      jump\t// out\n        /* \"#utility.yul\":2991:3139   */\n    tag_185:\n        /* \"#utility.yul\":3089:3095   */\n      dup3\n        /* \"#utility.yul\":3084:3087   */\n      dup2\n        /* \"#utility.yul\":3079:3082   */\n      dup4\n        /* \"#utility.yul\":3066:3096   */\n      calldatacopy\n        /* \"#utility.yul\":3130:3131   */\n      0x00\n        /* \"#utility.yul\":3121:3127   */\n      dup4\n        /* \"#utility.yul\":3116:3119   */\n      dup4\n        /* \"#utility.yul\":3112:3128   */\n      add\n        /* \"#utility.yul\":3105:3132   */\n      mstore\n        /* \"#utility.yul\":2991:3139   */\n      pop\n      pop\n      pop\n      jump\t// out\n        /* \"#utility.yul\":3145:3570   */\n    tag_186:\n        /* \"#utility.yul\":3223:3228   */\n      0x00\n        /* \"#utility.yul\":3248:3314   */\n      tag_276\n        /* \"#utility.yul\":3264:3313   */\n      tag_277\n        /* \"#utility.yul\":3306:3312   */\n      dup5\n        /* \"#utility.yul\":3264:3313   */\n      tag_184\n      jump\t// in\n    tag_277:\n        /* \"#utility.yul\":3248:3314   */\n      tag_183\n      jump\t// in\n    tag_276:\n        /* \"#utility.yul\":3239:3314   */\n      swap1\n      pop\n        /* \"#utility.yul\":3337:3343   */\n      dup3\n        /* \"#utility.yul\":3330:3335   */\n      dup2\n        /* \"#utility.yul\":3323:3344   */\n      mstore\n        /* \"#utility.yul\":3375:3379   */\n      0x20\n        /* \"#utility.yul\":3368:3373   */\n      dup2\n        /* \"#utility.yul\":3364:3380   */\n      add\n        /* \"#utility.yul\":3413:3416   */\n      dup5\n        /* \"#utility.yul\":3404:3410   */\n      dup5\n        /* \"#utility.yul\":3399:3402   */\n      dup5\n        /* \"#utility.yul\":3395:3411   */\n      add\n        /* \"#utility.yul\":3392:3417   */\n      gt\n        /* \"#utility.yul\":3389:3501   */\n      iszero\n      tag_278\n      jumpi\n        /* \"#utility.yul\":3420:3499   */\n      tag_279\n      tag_179\n      jump\t// in\n    tag_279:\n        /* \"#utility.yul\":3389:3501   */\n    tag_278:\n        /* \"#utility.yul\":3510:3564   */\n      tag_280\n        /* \"#utility.yul\":3557:3563   */\n      dup5\n        /* \"#utility.yul\":3552:3555   */\n      dup3\n        /* \"#utility.yul\":3547:3550   */\n      dup6\n        /* \"#utility.yul\":3510:3564   */\n      tag_185\n      jump\t// in\n    tag_280:\n        /* \"#utility.yul\":3229:3570   */\n      pop\n        /* \"#utility.yul\":3145:3570   */\n      swap4\n      swap3\n      pop\n      pop\n      pop\n      jump\t// out\n        /* \"#utility.yul\":3590:3930   */\n    tag_187:\n        /* \"#utility.yul\":3646:3651   */\n      0x00\n        /* \"#utility.yul\":3695:3698   */\n      dup3\n        /* \"#utility.yul\":3688:3692   */\n      0x1f\n        /* \"#utility.yul\":3680:3686   */\n      dup4\n        /* \"#utility.yul\":3676:3693   */\n      add\n        /* \"#utility.yul\":3672:3699   */\n      slt\n        /* \"#utility.yul\":3662:3784   */\n      tag_282\n      jumpi\n        /* \"#utility.yul\":3703:3782   */\n      tag_283\n      tag_178\n      jump\t// in\n    tag_283:\n        /* \"#utility.yul\":3662:3784   */\n    tag_282:\n        /* \"#utility.yul\":3820:3826   */\n      dup2\n        /* \"#utility.yul\":3807:3827   */\n      calldataload\n        /* \"#utility.yul\":3845:3924   */\n      tag_284\n        /* \"#utility.yul\":3920:3923   */\n      dup5\n        /* \"#utility.yul\":3912:3918   */\n      dup3\n        /* \"#utility.yul\":3905:3909   */\n      0x20\n        /* \"#utility.yul\":3897:3903   */\n      dup7\n        /* \"#utility.yul\":3893:3910   */\n      add\n        /* \"#utility.yul\":3845:3924   */\n      tag_186\n      jump\t// in\n    tag_284:\n        /* \"#utility.yul\":3836:3924   */\n      swap2\n      pop\n        /* \"#utility.yul\":3652:3930   */\n      pop\n        /* \"#utility.yul\":3590:3930   */\n      swap3\n      swap2\n      pop\n      pop\n      jump\t// out\n        /* \"#utility.yul\":3936:4770   */\n    tag_32:\n        /* \"#utility.yul\":4024:4030   */\n      0x00\n        /* \"#utility.yul\":4032:4038   */\n      dup1\n        /* \"#utility.yul\":4081:4083   */\n      0x40\n        /* \"#utility.yul\":4069:4078   */\n      dup4\n        /* \"#utility.yul\":4060:4067   */\n      dup6\n        /* \"#utility.yul\":4056:4079   */\n      sub\n        /* \"#utility.yul\":4052:4084   */\n      slt\n        /* \"#utility.yul\":4049:4168   */\n      iszero\n      tag_286\n      jumpi\n        /* \"#utility.yul\":4087:4166   */\n      tag_287\n      tag_172\n      jump\t// in\n    tag_287:\n        /* \"#utility.yul\":4049:4168   */\n    tag_286:\n        /* \"#utility.yul\":4235:4236   */\n      0x00\n        /* \"#utility.yul\":4224:4233   */\n      dup4\n        /* \"#utility.yul\":4220:4237   */\n      add\n        /* \"#utility.yul\":4207:4238   */\n      calldataload\n        /* \"#utility.yul\":4265:4283   */\n      0xffffffffffffffff\n        /* \"#utility.yul\":4257:4263   */\n      dup2\n        /* \"#utility.yul\":4254:4284   */\n      gt\n        /* \"#utility.yul\":4251:4368   */\n      iszero\n      tag_288\n      jumpi\n        /* \"#utility.yul\":4287:4366   */\n      tag_289\n      tag_173\n      jump\t// in\n    tag_289:\n        /* \"#utility.yul\":4251:4368   */\n    tag_288:\n        /* \"#utility.yul\":4392:4455   */\n      tag_290\n        /* \"#utility.yul\":4447:4454   */\n      dup6\n        /* \"#utility.yul\":4438:4444   */\n      dup3\n        /* \"#utility.yul\":4427:4436   */\n      dup7\n        /* \"#utility.yul\":4423:4445   */\n      add\n        /* \"#utility.yul\":4392:4455   */\n      tag_187\n      jump\t// in\n    tag_290:\n        /* \"#utility.yul\":4382:4455   */\n      swap3\n      pop\n        /* \"#utility.yul\":4178:4465   */\n      pop\n        /* \"#utility.yul\":4532:4534   */\n      0x20\n        /* \"#utility.yul\":4521:4530   */\n      dup4\n        /* \"#utility.yul\":4517:4535   */\n      add\n        /* \"#utility.yul\":4504:4536   */\n      calldataload\n        /* \"#utility.yul\":4563:4581   */\n      0xffffffffffffffff\n        /* \"#utility.yul\":4555:4561   */\n      dup2\n        /* \"#utility.yul\":4552:4582   */\n      gt\n        /* \"#utility.yul\":4549:4666   */\n      iszero\n      tag_291\n      jumpi\n        /* \"#utility.yul\":4585:4664   */\n      tag_292\n      tag_173\n      jump\t// in\n    tag_292:\n        /* \"#utility.yul\":4549:4666   */\n    tag_291:\n        /* \"#utility.yul\":4690:4753   */\n      tag_293\n        /* \"#utility.yul\":4745:4752   */\n      dup6\n        /* \"#utility.yul\":4736:4742   */\n      dup3\n        /* \"#utility.yul\":4725:4734   */\n      dup7\n        /* \"#utility.yul\":4721:4743   */\n      add\n        /* \"#utility.yul\":4690:4753   */\n      tag_187\n      jump\t// in\n    tag_293:\n        /* \"#utility.yul\":4680:4753   */\n      swap2\n      pop\n        /* \"#utility.yul\":4475:4763   */\n      pop\n        /* \"#utility.yul\":3936:4770   */\n      swap3\n      pop\n      swap3\n      swap1\n      pop\n      jump\t// out\n        /* \"#utility.yul\":4776:4875   */\n    tag_188:\n        /* \"#utility.yul\":4828:4834   */\n      0x00\n        /* \"#utility.yul\":4862:4867   */\n      dup2\n        /* \"#utility.yul\":4856:4868   */\n      mload\n        /* \"#utility.yul\":4846:4868   */\n      swap1\n      pop\n        /* \"#utility.yul\":4776:4875   */\n      swap2\n      swap1\n      pop\n      jump\t// out\n        /* \"#utility.yul\":4881:5050   */\n    tag_189:\n        /* \"#utility.yul\":4965:4976   */\n      0x00\n        /* \"#utility.yul\":4999:5005   */\n      dup3\n        /* \"#utility.yul\":4994:4997   */\n      dup3\n        /* \"#utility.yul\":4987:5006   */\n      mstore\n        /* \"#utility.yul\":5039:5043   */\n      0x20\n        /* \"#utility.yul\":5034:5037   */\n      dup3\n        /* \"#utility.yul\":5030:5044   */\n      add\n        /* \"#utility.yul\":5015:5044   */\n      swap1\n      pop\n        /* \"#utility.yul\":4881:5050   */\n      swap3\n      swap2\n      pop\n      pop\n      jump\t// out\n        /* \"#utility.yul\":5056:5195   */\n    tag_190:\n        /* \"#utility.yul\":5145:5151   */\n      dup3\n        /* \"#utility.yul\":5140:5143   */\n      dup2\n        /* \"#utility.yul\":5135:5138   */\n      dup4\n        /* \"#utility.yul\":5129:5152   */\n      mcopy\n        /* \"#utility.yul\":5186:5187   */\n      0x00\n        /* \"#utility.yul\":5177:5183   */\n      dup4\n        /* \"#utility.yul\":5172:5175   */\n      dup4\n        /* \"#utility.yul\":5168:5184   */\n      add\n        /* \"#utility.yul\":5161:5188   */\n      mstore\n        /* \"#utility.yul\":5056:5195   */\n      pop\n      pop\n      pop\n      jump\t// out\n        /* \"#utility.yul\":5201:5578   */\n    tag_191:\n        /* \"#utility.yul\":5289:5292   */\n      0x00\n        /* \"#utility.yul\":5317:5356   */\n      tag_298\n        /* \"#utility.yul\":5350:5355   */\n      dup3\n        /* \"#utility.yul\":5317:5356   */\n      tag_188\n      jump\t// in\n    tag_298:\n        /* \"#utility.yul\":5372:5443   */\n      tag_299\n        /* \"#utility.yul\":5436:5442   */\n      dup2\n        /* \"#utility.yul\":5431:5434   */\n      dup6\n        /* \"#utility.yul\":5372:5443   */\n      tag_189\n      jump\t// in\n    tag_299:\n        /* \"#utility.yul\":5365:5443   */\n      swap4\n      pop\n        /* \"#utility.yul\":5452:5517   */\n      tag_300\n        /* \"#utility.yul\":5510:5516   */\n      dup2\n        /* \"#utility.yul\":5505:5508   */\n      dup6\n        /* \"#utility.yul\":5498:5502   */\n      0x20\n        /* \"#utility.yul\":5491:5496   */\n      dup7\n        /* \"#utility.yul\":5487:5503   */\n      add\n        /* \"#utility.yul\":5452:5517   */\n      tag_190\n      jump\t// in\n    tag_300:\n        /* \"#utility.yul\":5542:5571   */\n      tag_301\n        /* \"#utility.yul\":5564:5570   */\n      dup2\n        /* \"#utility.yul\":5542:5571   */\n      tag_180\n      jump\t// in\n    tag_301:\n        /* \"#utility.yul\":5537:5540   */\n      dup5\n        /* \"#utility.yul\":5533:5572   */\n      add\n        /* \"#utility.yul\":5526:5572   */\n      swap2\n      pop\n        /* \"#utility.yul\":5293:5578   */\n      pop\n        /* \"#utility.yul\":5201:5578   */\n      swap3\n      swap2\n      pop\n      pop\n      jump\t// out\n        /* \"#utility.yul\":5584:6319   */\n    tag_39:\n        /* \"#utility.yul\":5801:5805   */\n      0x00\n        /* \"#utility.yul\":5839:5842   */\n      0x80\n        /* \"#utility.yul\":5828:5837   */\n      dup3\n        /* \"#utility.yul\":5824:5843   */\n      add\n        /* \"#utility.yul\":5816:5843   */\n      swap1\n      pop\n        /* \"#utility.yul\":5889:5898   */\n      dup2\n        /* \"#utility.yul\":5883:5887   */\n      dup2\n        /* \"#utility.yul\":5879:5899   */\n      sub\n        /* \"#utility.yul\":5875:5876   */\n      0x00\n        /* \"#utility.yul\":5864:5873   */\n      dup4\n        /* \"#utility.yul\":5860:5877   */\n      add\n        /* \"#utility.yul\":5853:5900   */\n      mstore\n        /* \"#utility.yul\":5917:5995   */\n      tag_303\n        /* \"#utility.yul\":5990:5994   */\n      dup2\n        /* \"#utility.yul\":5981:5987   */\n      dup8\n        /* \"#utility.yul\":5917:5995   */\n      tag_191\n      jump\t// in\n    tag_303:\n        /* \"#utility.yul\":5909:5995   */\n      swap1\n      pop\n        /* \"#utility.yul\":6005:6077   */\n      tag_304\n        /* \"#utility.yul\":6073:6075   */\n      0x20\n        /* \"#utility.yul\":6062:6071   */\n      dup4\n        /* \"#utility.yul\":6058:6076   */\n      add\n        /* \"#utility.yul\":6049:6055   */\n      dup7\n        /* \"#utility.yul\":6005:6077   */\n      tag_177\n      jump\t// in\n    tag_304:\n        /* \"#utility.yul\":6124:6133   */\n      dup2\n        /* \"#utility.yul\":6118:6122   */\n      dup2\n        /* \"#utility.yul\":6114:6134   */\n      sub\n        /* \"#utility.yul\":6109:6111   */\n      0x40\n        /* \"#utility.yul\":6098:6107   */\n      dup4\n        /* \"#utility.yul\":6094:6112   */\n      add\n        /* \"#utility.yul\":6087:6135   */\n      mstore\n        /* \"#utility.yul\":6152:6230   */\n      tag_305\n        /* \"#utility.yul\":6225:6229   */\n      dup2\n        /* \"#utility.yul\":6216:6222   */\n      dup6\n        /* \"#utility.yul\":6152:6230   */\n      tag_191\n      jump\t// in\n    tag_305:\n        /* \"#utility.yul\":6144:6230   */\n      swap1\n      pop\n        /* \"#utility.yul\":6240:6312   */\n      tag_306\n        /* \"#utility.yul\":6308:6310   */\n      0x60\n        /* \"#utility.yul\":6297:6306   */\n      dup4\n        /* \"#utility.yul\":6293:6311   */\n      add\n        /* \"#utility.yul\":6284:6290   */\n      dup5\n        /* \"#utility.yul\":6240:6312   */\n      tag_177\n      jump\t// in\n    tag_306:\n        /* \"#utility.yul\":5584:6319   */\n      swap6\n      swap5\n      pop\n      pop\n      pop\n      pop\n      pop\n      jump\t// out\n        /* \"#utility.yul\":6325:6949   */\n    tag_53:\n        /* \"#utility.yul\":6514:6518   */\n      0x00\n        /* \"#utility.yul\":6552:6554   */\n      0x60\n        /* \"#utility.yul\":6541:6550   */\n      dup3\n        /* \"#utility.yul\":6537:6555   */\n      add\n        /* \"#utility.yul\":6529:6555   */\n      swap1\n      pop\n        /* \"#utility.yul\":6601:6610   */\n      dup2\n        /* \"#utility.yul\":6595:6599   */\n      dup2\n        /* \"#utility.yul\":6591:6611   */\n      sub\n        /* \"#utility.yul\":6587:6588   */\n      0x00\n        /* \"#utility.yul\":6576:6585   */\n      dup4\n        /* \"#utility.yul\":6572:6589   */\n      add\n        /* \"#utility.yul\":6565:6612   */\n      mstore\n        /* \"#utility.yul\":6629:6707   */\n      tag_308\n        /* \"#utility.yul\":6702:6706   */\n      dup2\n        /* \"#utility.yul\":6693:6699   */\n      dup7\n        /* \"#utility.yul\":6629:6707   */\n      tag_191\n      jump\t// in\n    tag_308:\n        /* \"#utility.yul\":6621:6707   */\n      swap1\n      pop\n        /* \"#utility.yul\":6754:6763   */\n      dup2\n        /* \"#utility.yul\":6748:6752   */\n      dup2\n        /* \"#utility.yul\":6744:6764   */\n      sub\n        /* \"#utility.yul\":6739:6741   */\n      0x20\n        /* \"#utility.yul\":6728:6737   */\n      dup4\n        /* \"#utility.yul\":6724:6742   */\n      add\n        /* \"#utility.yul\":6717:6765   */\n      mstore\n        /* \"#utility.yul\":6782:6860   */\n      tag_309\n        /* \"#utility.yul\":6855:6859   */\n      dup2\n        /* \"#utility.yul\":6846:6852   */\n      dup6\n        /* \"#utility.yul\":6782:6860   */\n      tag_191\n      jump\t// in\n    tag_309:\n        /* \"#utility.yul\":6774:6860   */\n      swap1\n      pop\n        /* \"#utility.yul\":6870:6942   */\n      tag_310\n        /* \"#utility.yul\":6938:6940   */\n      0x40\n        /* \"#utility.yul\":6927:6936   */\n      dup4\n        /* \"#utility.yul\":6923:6941   */\n      add\n        /* \"#utility.yul\":6914:6920   */\n      dup5\n        /* \"#utility.yul\":6870:6942   */\n      tag_177\n      jump\t// in\n    tag_310:\n        /* \"#utility.yul\":6325:6949   */\n      swap5\n      swap4\n      pop\n      pop\n      pop\n      pop\n      jump\t// out\n        /* \"#utility.yul\":6955:7081   */\n    tag_192:\n        /* \"#utility.yul\":6992:6999   */\n      0x00\n        /* \"#utility.yul\":7032:7074   */\n      0xffffffffffffffffffffffffffffffffffffffff\n        /* \"#utility.yul\":7025:7030   */\n      dup3\n        /* \"#utility.yul\":7021:7075   */\n      and\n        /* \"#utility.yul\":7010:7075   */\n      swap1\n      pop\n        /* \"#utility.yul\":6955:7081   */\n      swap2\n      swap1\n      pop\n      jump\t// out\n        /* \"#utility.yul\":7087:7183   */\n    tag_193:\n        /* \"#utility.yul\":7124:7131   */\n      0x00\n        /* \"#utility.yul\":7153:7177   */\n      tag_313\n        /* \"#utility.yul\":7171:7176   */\n      dup3\n        /* \"#utility.yul\":7153:7177   */\n      tag_192\n      jump\t// in\n    tag_313:\n        /* \"#utility.yul\":7142:7177   */\n      swap1\n      pop\n        /* \"#utility.yul\":7087:7183   */\n      swap2\n      swap1\n      pop\n      jump\t// out\n        /* \"#utility.yul\":7189:7311   */\n    tag_194:\n        /* \"#utility.yul\":7262:7286   */\n      tag_315\n        /* \"#utility.yul\":7280:7285   */\n      dup2\n        /* \"#utility.yul\":7262:7286   */\n      tag_193\n      jump\t// in\n    tag_315:\n        /* \"#utility.yul\":7255:7260   */\n      dup2\n        /* \"#utility.yul\":7252:7287   */\n      eq\n        /* \"#utility.yul\":7242:7305   */\n      tag_316\n      jumpi\n        /* \"#utility.yul\":7301:7302   */\n      0x00\n        /* \"#utility.yul\":7298:7299   */\n      dup1\n        /* \"#utility.yul\":7291:7303   */\n      revert\n        /* \"#utility.yul\":7242:7305   */\n    tag_316:\n        /* \"#utility.yul\":7189:7311   */\n      pop\n      jump\t// out\n        /* \"#utility.yul\":7317:7456   */\n    tag_195:\n        /* \"#utility.yul\":7363:7368   */\n      0x00\n        /* \"#utility.yul\":7401:7407   */\n      dup2\n        /* \"#utility.yul\":7388:7408   */\n      calldataload\n        /* \"#utility.yul\":7379:7408   */\n      swap1\n      pop\n        /* \"#utility.yul\":7417:7450   */\n      tag_318\n        /* \"#utility.yul\":7444:7449   */\n      dup2\n        /* \"#utility.yul\":7417:7450   */\n      tag_194\n      jump\t// in\n    tag_318:\n        /* \"#utility.yul\":7317:7456   */\n      swap3\n      swap2\n      pop\n      pop\n      jump\t// out\n        /* \"#utility.yul\":7462:7791   */\n    tag_56:\n        /* \"#utility.yul\":7521:7527   */\n      0x00\n        /* \"#utility.yul\":7570:7572   */\n      0x20\n        /* \"#utility.yul\":7558:7567   */\n      dup3\n        /* \"#utility.yul\":7549:7556   */\n      dup5\n        /* \"#utility.yul\":7545:7568   */\n      sub\n        /* \"#utility.yul\":7541:7573   */\n      slt\n        /* \"#utility.yul\":7538:7657   */\n      iszero\n      tag_320\n      jumpi\n        /* \"#utility.yul\":7576:7655   */\n      tag_321\n      tag_172\n      jump\t// in\n    tag_321:\n        /* \"#utility.yul\":7538:7657   */\n    tag_320:\n        /* \"#utility.yul\":7696:7697   */\n      0x00\n        /* \"#utility.yul\":7721:7774   */\n      tag_322\n        /* \"#utility.yul\":7766:7773   */\n      dup5\n        /* \"#utility.yul\":7757:7763   */\n      dup3\n        /* \"#utility.yul\":7746:7755   */\n      dup6\n        /* \"#utility.yul\":7742:7764   */\n      add\n        /* \"#utility.yul\":7721:7774   */\n      tag_195\n      jump\t// in\n    tag_322:\n        /* \"#utility.yul\":7711:7774   */\n      swap2\n      pop\n        /* \"#utility.yul\":7667:7784   */\n      pop\n        /* \"#utility.yul\":7462:7791   */\n      swap3\n      swap2\n      pop\n      pop\n      jump\t// out\n        /* \"#utility.yul\":7797:7887   */\n    tag_196:\n        /* \"#utility.yul\":7831:7838   */\n      0x00\n        /* \"#utility.yul\":7874:7879   */\n      dup2\n        /* \"#utility.yul\":7867:7880   */\n      iszero\n        /* \"#utility.yul\":7860:7881   */\n      iszero\n        /* \"#utility.yul\":7849:7881   */\n      swap1\n      pop\n        /* \"#utility.yul\":7797:7887   */\n      swap2\n      swap1\n      pop\n      jump\t// out\n        /* \"#utility.yul\":7893:8002   */\n    tag_197:\n        /* \"#utility.yul\":7974:7995   */\n      tag_325\n        /* \"#utility.yul\":7989:7994   */\n      dup2\n        /* \"#utility.yul\":7974:7995   */\n      tag_196\n      jump\t// in\n    tag_325:\n        /* \"#utility.yul\":7969:7972   */\n      dup3\n        /* \"#utility.yul\":7962:7996   */\n      mstore\n        /* \"#utility.yul\":7893:8002   */\n      pop\n      pop\n      jump\t// out\n        /* \"#utility.yul\":8008:8218   */\n    tag_59:\n        /* \"#utility.yul\":8095:8099   */\n      0x00\n        /* \"#utility.yul\":8133:8135   */\n      0x20\n        /* \"#utility.yul\":8122:8131   */\n      dup3\n        /* \"#utility.yul\":8118:8136   */\n      add\n        /* \"#utility.yul\":8110:8136   */\n      swap1\n      pop\n        /* \"#utility.yul\":8146:8211   */\n      tag_327\n        /* \"#utility.yul\":8208:8209   */\n      0x00\n        /* \"#utility.yul\":8197:8206   */\n      dup4\n        /* \"#utility.yul\":8193:8210   */\n      add\n        /* \"#utility.yul\":8184:8190   */\n      dup5\n        /* \"#utility.yul\":8146:8211   */\n      tag_197\n      jump\t// in\n    tag_327:\n        /* \"#utility.yul\":8008:8218   */\n      swap3\n      swap2\n      pop\n      pop\n      jump\t// out\n        /* \"#utility.yul\":8224:8342   */\n    tag_198:\n        /* \"#utility.yul\":8311:8335   */\n      tag_329\n        /* \"#utility.yul\":8329:8334   */\n      dup2\n        /* \"#utility.yul\":8311:8335   */\n      tag_193\n      jump\t// in\n    tag_329:\n        /* \"#utility.yul\":8306:8309   */\n      dup3\n        /* \"#utility.yul\":8299:8336   */\n      mstore\n        /* \"#utility.yul\":8224:8342   */\n      pop\n      pop\n      jump\t// out\n        /* \"#utility.yul\":8348:8570   */\n    tag_66:\n        /* \"#utility.yul\":8441:8445   */\n      0x00\n        /* \"#utility.yul\":8479:8481   */\n      0x20\n        /* \"#utility.yul\":8468:8477   */\n      dup3\n        /* \"#utility.yul\":8464:8482   */\n      add\n        /* \"#utility.yul\":8456:8482   */\n      swap1\n      pop\n        /* \"#utility.yul\":8492:8563   */\n      tag_331\n        /* \"#utility.yul\":8560:8561   */\n      0x00\n        /* \"#utility.yul\":8549:8558   */\n      dup4\n        /* \"#utility.yul\":8545:8562   */\n      add\n        /* \"#utility.yul\":8536:8542   */\n      dup5\n        /* \"#utility.yul\":8492:8563   */\n      tag_198\n      jump\t// in\n    tag_331:\n        /* \"#utility.yul\":8348:8570   */\n      swap3\n      swap2\n      pop\n      pop\n      jump\t// out\n        /* \"#utility.yul\":8576:9050   */\n    tag_69:\n        /* \"#utility.yul\":8644:8650   */\n      0x00\n        /* \"#utility.yul\":8652:8658   */\n      dup1\n        /* \"#utility.yul\":8701:8703   */\n      0x40\n        /* \"#utility.yul\":8689:8698   */\n      dup4\n        /* \"#utility.yul\":8680:8687   */\n      dup6\n        /* \"#utility.yul\":8676:8699   */\n      sub\n        /* \"#utility.yul\":8672:8704   */\n      slt\n        /* \"#utility.yul\":8669:8788   */\n      iszero\n      tag_333\n      jumpi\n        /* \"#utility.yul\":8707:8786   */\n      tag_334\n      tag_172\n      jump\t// in\n    tag_334:\n        /* \"#utility.yul\":8669:8788   */\n    tag_333:\n        /* \"#utility.yul\":8827:8828   */\n      0x00\n        /* \"#utility.yul\":8852:8905   */\n      tag_335\n        /* \"#utility.yul\":8897:8904   */\n      dup6\n        /* \"#utility.yul\":8888:8894   */\n      dup3\n        /* \"#utility.yul\":8877:8886   */\n      dup7\n        /* \"#utility.yul\":8873:8895   */\n      add\n        /* \"#utility.yul\":8852:8905   */\n      tag_176\n      jump\t// in\n    tag_335:\n        /* \"#utility.yul\":8842:8905   */\n      swap3\n      pop\n        /* \"#utility.yul\":8798:8915   */\n      pop\n        /* \"#utility.yul\":8954:8956   */\n      0x20\n        /* \"#utility.yul\":8980:9033   */\n      tag_336\n        /* \"#utility.yul\":9025:9032   */\n      dup6\n        /* \"#utility.yul\":9016:9022   */\n      dup3\n        /* \"#utility.yul\":9005:9014   */\n      dup7\n        /* \"#utility.yul\":9001:9023   */\n      add\n        /* \"#utility.yul\":8980:9033   */\n      tag_176\n      jump\t// in\n    tag_336:\n        /* \"#utility.yul\":8970:9033   */\n      swap2\n      pop\n        /* \"#utility.yul\":8925:9043   */\n      pop\n        /* \"#utility.yul\":8576:9050   */\n      swap3\n      pop\n      swap3\n      swap1\n      pop\n      jump\t// out\n        /* \"#utility.yul\":9056:9227   */\n    tag_199:\n        /* \"#utility.yul\":9196:9219   */\n      0x566f74696e67206973206e6f74206163746976652e0000000000000000000000\n        /* \"#utility.yul\":9192:9193   */\n      0x00\n        /* \"#utility.yul\":9184:9190   */\n      dup3\n        /* \"#utility.yul\":9180:9194   */\n      add\n        /* \"#utility.yul\":9173:9220   */\n      mstore\n        /* \"#utility.yul\":9056:9227   */\n      pop\n      jump\t// out\n        /* \"#utility.yul\":9233:9599   */\n    tag_200:\n        /* \"#utility.yul\":9375:9378   */\n      0x00\n        /* \"#utility.yul\":9396:9463   */\n      tag_339\n        /* \"#utility.yul\":9460:9462   */\n      0x15\n        /* \"#utility.yul\":9455:9458   */\n      dup4\n        /* \"#utility.yul\":9396:9463   */\n      tag_189\n      jump\t// in\n    tag_339:\n        /* \"#utility.yul\":9389:9463   */\n      swap2\n      pop\n        /* \"#utility.yul\":9472:9565   */\n      tag_340\n        /* \"#utility.yul\":9561:9564   */\n      dup3\n        /* \"#utility.yul\":9472:9565   */\n      tag_199\n      jump\t// in\n    tag_340:\n        /* \"#utility.yul\":9590:9592   */\n      0x20\n        /* \"#utility.yul\":9585:9588   */\n      dup3\n        /* \"#utility.yul\":9581:9593   */\n      add\n        /* \"#utility.yul\":9574:9593   */\n      swap1\n      pop\n        /* \"#utility.yul\":9233:9599   */\n      swap2\n      swap1\n      pop\n      jump\t// out\n        /* \"#utility.yul\":9605:10024   */\n    tag_75:\n        /* \"#utility.yul\":9771:9775   */\n      0x00\n        /* \"#utility.yul\":9809:9811   */\n      0x20\n        /* \"#utility.yul\":9798:9807   */\n      dup3\n        /* \"#utility.yul\":9794:9812   */\n      add\n        /* \"#utility.yul\":9786:9812   */\n      swap1\n      pop\n        /* \"#utility.yul\":9858:9867   */\n      dup2\n        /* \"#utility.yul\":9852:9856   */\n      dup2\n        /* \"#utility.yul\":9848:9868   */\n      sub\n        /* \"#utility.yul\":9844:9845   */\n      0x00\n        /* \"#utility.yul\":9833:9842   */\n      dup4\n        /* \"#utility.yul\":9829:9846   */\n      add\n        /* \"#utility.yul\":9822:9869   */\n      mstore\n        /* \"#utility.yul\":9886:10017   */\n      tag_342\n        /* \"#utility.yul\":10012:10016   */\n      dup2\n        /* \"#utility.yul\":9886:10017   */\n      tag_200\n      jump\t// in\n    tag_342:\n        /* \"#utility.yul\":9878:10017   */\n      swap1\n      pop\n        /* \"#utility.yul\":9605:10024   */\n      swap2\n      swap1\n      pop\n      jump\t// out\n        /* \"#utility.yul\":10030:10201   */\n    tag_201:\n        /* \"#utility.yul\":10170:10193   */\n      0x496e76616c69642043616e6469646174652049442e0000000000000000000000\n        /* \"#utility.yul\":10166:10167   */\n      0x00\n        /* \"#utility.yul\":10158:10164   */\n      dup3\n        /* \"#utility.yul\":10154:10168   */\n      add\n        /* \"#utility.yul\":10147:10194   */\n      mstore\n        /* \"#utility.yul\":10030:10201   */\n      pop\n      jump\t// out\n        /* \"#utility.yul\":10207:10573   */\n    tag_202:\n        /* \"#utility.yul\":10349:10352   */\n      0x00\n        /* \"#utility.yul\":10370:10437   */\n      tag_345\n        /* \"#utility.yul\":10434:10436   */\n      0x15\n        /* \"#utility.yul\":10429:10432   */\n      dup4\n        /* \"#utility.yul\":10370:10437   */\n      tag_189\n      jump\t// in\n    tag_345:\n        /* \"#utility.yul\":10363:10437   */\n      swap2\n      pop\n        /* \"#utility.yul\":10446:10539   */\n      tag_346\n        /* \"#utility.yul\":10535:10538   */\n      dup3\n        /* \"#utility.yul\":10446:10539   */\n      tag_201\n      jump\t// in\n    tag_346:\n        /* \"#utility.yul\":10564:10566   */\n      0x20\n        /* \"#utility.yul\":10559:10562   */\n      dup3\n        /* \"#utility.yul\":10555:10567   */\n      add\n        /* \"#utility.yul\":10548:10567   */\n      swap1\n      pop\n        /* \"#utility.yul\":10207:10573   */\n      swap2\n      swap1\n      pop\n      jump\t// out\n        /* \"#utility.yul\":10579:10998   */\n    tag_80:\n        /* \"#utility.yul\":10745:10749   */\n      0x00\n        /* \"#utility.yul\":10783:10785   */\n      0x20\n        /* \"#utility.yul\":10772:10781   */\n      dup3\n        /* \"#utility.yul\":10768:10786   */\n      add\n        /* \"#utility.yul\":10760:10786   */\n      swap1\n      pop\n        /* \"#utility.yul\":10832:10841   */\n      dup2\n        /* \"#utility.yul\":10826:10830   */\n      dup2\n        /* \"#utility.yul\":10822:10842   */\n      sub\n        /* \"#utility.yul\":10818:10819   */\n      0x00\n        /* \"#utility.yul\":10807:10816   */\n      dup4\n        /* \"#utility.yul\":10803:10820   */\n      add\n        /* \"#utility.yul\":10796:10843   */\n      mstore\n        /* \"#utility.yul\":10860:10991   */\n      tag_348\n        /* \"#utility.yul\":10986:10990   */\n      dup2\n        /* \"#utility.yul\":10860:10991   */\n      tag_202\n      jump\t// in\n    tag_348:\n        /* \"#utility.yul\":10852:10991   */\n      swap1\n      pop\n        /* \"#utility.yul\":10579:10998   */\n      swap2\n      swap1\n      pop\n      jump\t// out\n        /* \"#utility.yul\":11004:11177   */\n    tag_203:\n        /* \"#utility.yul\":11144:11169   */\n      0x596f75206861766520616c726561647920766f7465642e000000000000000000\n        /* \"#utility.yul\":11140:11141   */\n      0x00\n        /* \"#utility.yul\":11132:11138   */\n      dup3\n        /* \"#utility.yul\":11128:11142   */\n      add\n        /* \"#utility.yul\":11121:11170   */\n      mstore\n        /* \"#utility.yul\":11004:11177   */\n      pop\n      jump\t// out\n        /* \"#utility.yul\":11183:11549   */\n    tag_204:\n        /* \"#utility.yul\":11325:11328   */\n      0x00\n        /* \"#utility.yul\":11346:11413   */\n      tag_351\n        /* \"#utility.yul\":11410:11412   */\n      0x17\n        /* \"#utility.yul\":11405:11408   */\n      dup4\n        /* \"#utility.yul\":11346:11413   */\n      tag_189\n      jump\t// in\n    tag_351:\n        /* \"#utility.yul\":11339:11413   */\n      swap2\n      pop\n        /* \"#utility.yul\":11422:11515   */\n      tag_352\n        /* \"#utility.yul\":11511:11514   */\n      dup3\n        /* \"#utility.yul\":11422:11515   */\n      tag_203\n      jump\t// in\n    tag_352:\n        /* \"#utility.yul\":11540:11542   */\n      0x20\n        /* \"#utility.yul\":11535:11538   */\n      dup3\n        /* \"#utility.yul\":11531:11543   */\n      add\n        /* \"#utility.yul\":11524:11543   */\n      swap1\n      pop\n        /* \"#utility.yul\":11183:11549   */\n      swap2\n      swap1\n      pop\n      jump\t// out\n        /* \"#utility.yul\":11555:11974   */\n    tag_83:\n        /* \"#utility.yul\":11721:11725   */\n      0x00\n        /* \"#utility.yul\":11759:11761   */\n      0x20\n        /* \"#utility.yul\":11748:11757   */\n      dup3\n        /* \"#utility.yul\":11744:11762   */\n      add\n        /* \"#utility.yul\":11736:11762   */\n      swap1\n      pop\n        /* \"#utility.yul\":11808:11817   */\n      dup2\n        /* \"#utility.yul\":11802:11806   */\n      dup2\n        /* \"#utility.yul\":11798:11818   */\n      sub\n        /* \"#utility.yul\":11794:11795   */\n      0x00\n        /* \"#utility.yul\":11783:11792   */\n      dup4\n        /* \"#utility.yul\":11779:11796   */\n      add\n        /* \"#utility.yul\":11772:11819   */\n      mstore\n        /* \"#utility.yul\":11836:11967   */\n      tag_354\n        /* \"#utility.yul\":11962:11966   */\n      dup2\n        /* \"#utility.yul\":11836:11967   */\n      tag_204\n      jump\t// in\n    tag_354:\n        /* \"#utility.yul\":11828:11967   */\n      swap1\n      pop\n        /* \"#utility.yul\":11555:11974   */\n      swap2\n      swap1\n      pop\n      jump\t// out\n        /* \"#utility.yul\":11980:12160   */\n    tag_205:\n        /* \"#utility.yul\":12028:12105   */\n      0x4e487b7100000000000000000000000000000000000000000000000000000000\n        /* \"#utility.yul\":12025:12026   */\n      0x00\n        /* \"#utility.yul\":12018:12106   */\n      mstore\n        /* \"#utility.yul\":12125:12129   */\n      0x11\n        /* \"#utility.yul\":12122:12123   */\n      0x04\n        /* \"#utility.yul\":12115:12130   */\n      mstore\n        /* \"#utility.yul\":12149:12153   */\n      0x24\n        /* \"#utility.yul\":12146:12147   */\n      0x00\n        /* \"#utility.yul\":12139:12154   */\n      revert\n        /* \"#utility.yul\":12166:12399   */\n    tag_85:\n        /* \"#utility.yul\":12205:12208   */\n      0x00\n        /* \"#utility.yul\":12228:12252   */\n      tag_357\n        /* \"#utility.yul\":12246:12251   */\n      dup3\n        /* \"#utility.yul\":12228:12252   */\n      tag_174\n      jump\t// in\n    tag_357:\n        /* \"#utility.yul\":12219:12252   */\n      swap2\n      pop\n        /* \"#utility.yul\":12274:12340   */\n      0xffffffffffffffffffffffffffffffffffffffffffffffffffffffffffffffff\n        /* \"#utility.yul\":12267:12272   */\n      dup3\n        /* \"#utility.yul\":12264:12341   */\n      sub\n        /* \"#utility.yul\":12261:12364   */\n      tag_358\n      jumpi\n        /* \"#utility.yul\":12344:12362   */\n      tag_359\n      tag_205\n      jump\t// in\n    tag_359:\n        /* \"#utility.yul\":12261:12364   */\n    tag_358:\n        /* \"#utility.yul\":12391:12392   */\n      0x01\n        /* \"#utility.yul\":12384:12389   */\n      dup3\n        /* \"#utility.yul\":12380:12393   */\n      add\n        /* \"#utility.yul\":12373:12393   */\n      swap1\n      pop\n        /* \"#utility.yul\":12166:12399   */\n      swap2\n      swap1\n      pop\n      jump\t// out\n        /* \"#utility.yul\":12405:12627   */\n    tag_206:\n        /* \"#utility.yul\":12545:12579   */\n      0x4f6e6c79206f776e65722063616e20706572666f726d20746869732061637469\n        /* \"#utility.yul\":12541:12542   */\n      0x00\n        /* \"#utility.yul\":12533:12539   */\n      dup3\n        /* \"#utility.yul\":12529:12543   */\n      add\n        /* \"#utility.yul\":12522:12580   */\n      mstore\n        /* \"#utility.yul\":12614:12619   */\n      0x6f6e2e0000000000000000000000000000000000000000000000000000000000\n        /* \"#utility.yul\":12609:12611   */\n      0x20\n        /* \"#utility.yul\":12601:12607   */\n      dup3\n        /* \"#utility.yul\":12597:12612   */\n      add\n        /* \"#utility.yul\":12590:12620   */\n      mstore\n        /* \"#utility.yul\":12405:12627   */\n      pop\n      jump\t// out\n        /* \"#utility.yul\":12633:12999   */\n    tag_207:\n        /* \"#utility.yul\":12775:12778   */\n      0x00\n        /* \"#utility.yul\":12796:12863   */\n      tag_362\n        /* \"#utility.yul\":12860:12862   */\n      0x23\n        /* \"#utility.yul\":12855:12858   */\n      dup4\n        /* \"#utility.yul\":12796:12863   */\n      tag_189\n      jump\t// in\n    tag_362:\n        /* \"#utility.yul\":12789:12863   */\n      swap2\n      pop\n        /* \"#utility.yul\":12872:12965   */\n      tag_363\n        /* \"#utility.yul\":12961:12964   */\n      dup3\n        /* \"#utility.yul\":12872:12965   */\n      tag_206\n      jump\t// in\n    tag_363:\n        /* \"#utility.yul\":12990:12992   */\n      0x40\n        /* \"#utility.yul\":12985:12988   */\n      dup3\n        /* \"#utility.yul\":12981:12993   */\n      add\n        /* \"#utility.yul\":12974:12993   */\n      swap1\n      pop\n        /* \"#utility.yul\":12633:12999   */\n      swap2\n      swap1\n      pop\n      jump\t// out\n        /* \"#utility.yul\":13005:13424   */\n    tag_91:\n        /* \"#utility.yul\":13171:13175   */\n      0x00\n        /* \"#utility.yul\":13209:13211   */\n      0x20\n        /* \"#utility.yul\":13198:13207   */\n      dup3\n        /* \"#utility.yul\":13194:13212   */\n      add\n        /* \"#utility.yul\":13186:13212   */\n      swap1\n      pop\n        /* \"#utility.yul\":13258:13267   */\n      dup2\n        /* \"#utility.yul\":13252:13256   */\n      dup2\n        /* \"#utility.yul\":13248:13268   */\n      sub\n        /* \"#utility.yul\":13244:13245   */\n      0x00\n        /* \"#utility.yul\":13233:13242   */\n      dup4\n        /* \"#utility.yul\":13229:13246   */\n      add\n        /* \"#utility.yul\":13222:13269   */\n      mstore\n        /* \"#utility.yul\":13286:13417   */\n      tag_365\n        /* \"#utility.yul\":13412:13416   */\n      dup2\n        /* \"#utility.yul\":13286:13417   */\n      tag_207\n      jump\t// in\n    tag_365:\n        /* \"#utility.yul\":13278:13417   */\n      swap1\n      pop\n        /* \"#utility.yul\":13005:13424   */\n      swap2\n      swap1\n      pop\n      jump\t// out\n        /* \"#utility.yul\":13430:13611   */\n    tag_208:\n        /* \"#utility.yul\":13570:13603   */\n      0x43616e646964617465204e616d652063616e6e6f7420626520656d7074792e00\n        /* \"#utility.yul\":13566:13567   */\n      0x00\n        /* \"#utility.yul\":13558:13564   */\n      dup3\n        /* \"#utility.yul\":13554:13568   */\n      add\n        /* \"#utility.yul\":13547:13604   */\n      mstore\n        /* \"#utility.yul\":13430:13611   */\n      pop\n      jump\t// out\n        /* \"#utility.yul\":13617:13983   */\n    tag_209:\n        /* \"#utility.yul\":13759:13762   */\n      0x00\n        /* \"#utility.yul\":13780:13847   */\n      tag_368\n        /* \"#utility.yul\":13844:13846   */\n      0x1f\n        /* \"#utility.yul\":13839:13842   */\n      dup4\n        /* \"#utility.yul\":13780:13847   */\n      tag_189\n      jump\t// in\n    tag_368:\n        /* \"#utility.yul\":13773:13847   */\n      swap2\n      pop\n        /* \"#utility.yul\":13856:13949   */\n      tag_369\n        /* \"#utility.yul\":13945:13948   */\n      dup3\n        /* \"#utility.yul\":13856:13949   */\n      tag_208\n      jump\t// in\n    tag_369:\n        /* \"#utility.yul\":13974:13976   */\n      0x20\n        /* \"#utility.yul\":13969:13972   */\n      dup3\n        /* \"#utility.yul\":13965:13977   */\n      add\n        /* \"#utility.yul\":13958:13977   */\n      swap1\n      pop\n        /* \"#utility.yul\":13617:13983   */\n      swap2\n      swap1\n      pop\n      jump\t// out\n        /* \"#utility.yul\":13989:14408   */\n    tag_95:\n        /* \"#utility.yul\":14155:14159   */\n      0x00\n        /* \"#utility.yul\":14193:14195   */\n      0x20\n        /* \"#utility.yul\":14182:14191   */\n      dup3\n        /* \"#utility.yul\":14178:14196   */\n      add\n        /* \"#utility.yul\":14170:14196   */\n      swap1\n      pop\n        /* \"#utility.yul\":14242:14251   */\n      dup2\n        /* \"#utility.yul\":14236:14240   */\n      dup2\n        /* \"#utility.yul\":14232:14252   */\n      sub\n        /* \"#utility.yul\":14228:14229   */\n      0x00\n        /* \"#utility.yul\":14217:14226   */\n      dup4\n        /* \"#utility.yul\":14213:14230   */\n      add\n        /* \"#utility.yul\":14206:14253   */\n      mstore\n        /* \"#utility.yul\":14270:14401   */\n      tag_371\n        /* \"#utility.yul\":14396:14400   */\n      dup2\n        /* \"#utility.yul\":14270:14401   */\n      tag_209\n      jump\t// in\n    tag_371:\n        /* \"#utility.yul\":14262:14401   */\n      swap1\n      pop\n        /* \"#utility.yul\":13989:14408   */\n      swap2\n      swap1\n      pop\n      jump\t// out\n        /* \"#utility.yul\":14414:14640   */\n    tag_210:\n        /* \"#utility.yul\":14554:14588   */\n      0x43616e6469646174652773207061727479206e616d652063616e6e6f74206265\n        /* \"#utility.yul\":14550:14551   */\n      0x00\n        /* \"#utility.yul\":14542:14548   */\n      dup3\n        /* \"#utility.yul\":14538:14552   */\n      add\n        /* \"#utility.yul\":14531:14589   */\n      mstore\n        /* \"#utility.yul\":14623:14632   */\n      0x20656d7074792e00000000000000000000000000000000000000000000000000\n        /* \"#utility.yul\":14618:14620   */\n      0x20\n        /* \"#utility.yul\":14610:14616   */\n      dup3\n        /* \"#utility.yul\":14606:14621   */\n      add\n        /* \"#utility.yul\":14599:14633   */\n      mstore\n        /* \"#utility.yul\":14414:14640   */\n      pop\n      jump\t// out\n        /* \"#utility.yul\":14646:15012   */\n    tag_211:\n        /* \"#utility.yul\":14788:14791   */\n      0x00\n        /* \"#utility.yul\":14809:14876   */\n      tag_374\n        /* \"#utility.yul\":14873:14875   */\n      0x27\n        /* \"#utility.yul\":14868:14871   */\n      dup4\n        /* \"#utility.yul\":14809:14876   */\n      tag_189\n      jump\t// in\n    tag_374:\n        /* \"#utility.yul\":14802:14876   */\n      swap2\n      pop\n        /* \"#utility.yul\":14885:14978   */\n      tag_375\n        /* \"#utility.yul\":14974:14977   */\n      dup3\n        /* \"#utility.yul\":14885:14978   */\n      tag_210\n      jump\t// in\n    tag_375:\n        /* \"#utility.yul\":15003:15005   */\n      0x40\n        /* \"#utility.yul\":14998:15001   */\n      dup3\n        /* \"#utility.yul\":14994:15006   */\n      add\n        /* \"#utility.yul\":14987:15006   */\n      swap1\n      pop\n        /* \"#utility.yul\":14646:15012   */\n      swap2\n      swap1\n      pop\n      jump\t// out\n        /* \"#utility.yul\":15018:15437   */\n    tag_98:\n        /* \"#utility.yul\":15184:15188   */\n      0x00\n        /* \"#utility.yul\":15222:15224   */\n      0x20\n        /* \"#utility.yul\":15211:15220   */\n      dup3\n        /* \"#utility.yul\":15207:15225   */\n      add\n        /* \"#utility.yul\":15199:15225   */\n      swap1\n      pop\n        /* \"#utility.yul\":15271:15280   */\n      dup2\n        /* \"#utility.yul\":15265:15269   */\n      dup2\n        /* \"#utility.yul\":15261:15281   */\n      sub\n        /* \"#utility.yul\":15257:15258   */\n      0x00\n        /* \"#utility.yul\":15246:15255   */\n      dup4\n        /* \"#utility.yul\":15242:15259   */\n      add\n        /* \"#utility.yul\":15235:15282   */\n      mstore\n        /* \"#utility.yul\":15299:15430   */\n      tag_377\n        /* \"#utility.yul\":15425:15429   */\n      dup2\n        /* \"#utility.yul\":15299:15430   */\n      tag_211\n      jump\t// in\n    tag_377:\n        /* \"#utility.yul\":15291:15430   */\n      swap1\n      pop\n        /* \"#utility.yul\":15018:15437   */\n      swap2\n      swap1\n      pop\n      jump\t// out\n        /* \"#utility.yul\":15443:15623   */\n    tag_212:\n        /* \"#utility.yul\":15491:15568   */\n      0x4e487b7100000000000000000000000000000000000000000000000000000000\n        /* \"#utility.yul\":15488:15489   */\n      0x00\n        /* \"#utility.yul\":15481:15569   */\n      mstore\n        /* \"#utility.yul\":15588:15592   */\n      0x22\n        /* \"#utility.yul\":15585:15586   */\n      0x04\n        /* \"#utility.yul\":15578:15593   */\n      mstore\n        /* \"#utility.yul\":15612:15616   */\n      0x24\n        /* \"#utility.yul\":15609:15610   */\n      0x00\n        /* \"#utility.yul\":15602:15617   */\n      revert\n        /* \"#utility.yul\":15629:15949   */\n    tag_106:\n        /* \"#utility.yul\":15673:15679   */\n      0x00\n        /* \"#utility.yul\":15710:15711   */\n      0x02\n        /* \"#utility.yul\":15704:15708   */\n      dup3\n        /* \"#utility.yul\":15700:15712   */\n      div\n        /* \"#utility.yul\":15690:15712   */\n      swap1\n      pop\n        /* \"#utility.yul\":15757:15758   */\n      0x01\n        /* \"#utility.yul\":15751:15755   */\n      dup3\n        /* \"#utility.yul\":15747:15759   */\n      and\n        /* \"#utility.yul\":15778:15796   */\n      dup1\n        /* \"#utility.yul\":15768:15849   */\n      tag_380\n      jumpi\n        /* \"#utility.yul\":15834:15838   */\n      0x7f\n        /* \"#utility.yul\":15826:15832   */\n      dup3\n        /* \"#utility.yul\":15822:15839   */\n      and\n        /* \"#utility.yul\":15812:15839   */\n      swap2\n      pop\n        /* \"#utility.yul\":15768:15849   */\n    tag_380:\n        /* \"#utility.yul\":15896:15898   */\n      0x20\n        /* \"#utility.yul\":15888:15894   */\n      dup3\n        /* \"#utility.yul\":15885:15899   */\n      lt\n        /* \"#utility.yul\":15865:15883   */\n      dup2\n        /* \"#utility.yul\":15862:15900   */\n      sub\n        /* \"#utility.yul\":15859:15943   */\n      tag_381\n      jumpi\n        /* \"#utility.yul\":15915:15933   */\n      tag_382\n      tag_212\n      jump\t// in\n    tag_382:\n        /* \"#utility.yul\":15859:15943   */\n    tag_381:\n        /* \"#utility.yul\":15680:15949   */\n      pop\n        /* \"#utility.yul\":15629:15949   */\n      swap2\n      swap1\n      pop\n      jump\t// out\n        /* \"#utility.yul\":15955:16096   */\n    tag_213:\n        /* \"#utility.yul\":16004:16008   */\n      0x00\n        /* \"#utility.yul\":16027:16030   */\n      dup2\n        /* \"#utility.yul\":16019:16030   */\n      swap1\n      pop\n        /* \"#utility.yul\":16050:16053   */\n      dup2\n        /* \"#utility.yul\":16047:16048   */\n      0x00\n        /* \"#utility.yul\":16040:16054   */\n      mstore\n        /* \"#utility.yul\":16084:16088   */\n      0x20\n        /* \"#utility.yul\":16081:16082   */\n      0x00\n        /* \"#utility.yul\":16071:16089   */\n      keccak256\n        /* \"#utility.yul\":16063:16089   */\n      swap1\n      pop\n        /* \"#utility.yul\":15955:16096   */\n      swap2\n      swap1\n      pop\n      jump\t// out\n        /* \"#utility.yul\":16102:16195   */\n    tag_214:\n        /* \"#utility.yul\":16139:16145   */\n      0x00\n        /* \"#utility.yul\":16186:16188   */\n      0x20\n        /* \"#utility.yul\":16181:16183   */\n      0x1f\n        /* \"#utility.yul\":16174:16179   */\n      dup4\n        /* \"#utility.yul\":16170:16184   */\n      add\n        /* \"#utility.yul\":16166:16189   */\n      div\n        /* \"#utility.yul\":16156:16189   */\n      swap1\n      pop\n        /* \"#utility.yul\":16102:16195   */\n      swap2\n      swap1\n      pop\n      jump\t// out\n        /* \"#utility.yul\":16201:16308   */\n    tag_215:\n        /* \"#utility.yul\":16245:16253   */\n      0x00\n        /* \"#utility.yul\":16295:16300   */\n      dup3\n        /* \"#utility.yul\":16289:16293   */\n      dup3\n        /* \"#utility.yul\":16285:16301   */\n      shl\n        /* \"#utility.yul\":16264:16301   */\n      swap1\n      pop\n        /* \"#utility.yul\":16201:16308   */\n      swap3\n      swap2\n      pop\n      pop\n      jump\t// out\n        /* \"#utility.yul\":16314:16707   */\n    tag_216:\n        /* \"#utility.yul\":16383:16389   */\n      0x00\n        /* \"#utility.yul\":16433:16434   */\n      0x08\n        /* \"#utility.yul\":16421:16431   */\n      dup4\n        /* \"#utility.yul\":16417:16435   */\n      mul\n        /* \"#utility.yul\":16456:16553   */\n      tag_387\n        /* \"#utility.yul\":16486:16552   */\n      0xffffffffffffffffffffffffffffffffffffffffffffffffffffffffffffffff\n        /* \"#utility.yul\":16475:16484   */\n      dup3\n        /* \"#utility.yul\":16456:16553   */\n      tag_215\n      jump\t// in\n    tag_387:\n        /* \"#utility.yul\":16574:16613   */\n      tag_388\n        /* \"#utility.yul\":16604:16612   */\n      dup7\n        /* \"#utility.yul\":16593:16602   */\n      dup4\n        /* \"#utility.yul\":16574:16613   */\n      tag_215\n      jump\t// in\n    tag_388:\n        /* \"#utility.yul\":16562:16613   */\n      swap6\n      pop\n        /* \"#utility.yul\":16646:16650   */\n      dup1\n        /* \"#utility.yul\":16642:16651   */\n      not\n        /* \"#utility.yul\":16635:16640   */\n      dup5\n        /* \"#utility.yul\":16631:16652   */\n      and\n        /* \"#utility.yul\":16622:16652   */\n      swap4\n      pop\n        /* \"#utility.yul\":16695:16699   */\n      dup1\n        /* \"#utility.yul\":16685:16693   */\n      dup7\n        /* \"#utility.yul\":16681:16700   */\n      and\n        /* \"#utility.yul\":16674:16679   */\n      dup5\n        /* \"#utility.yul\":16671:16701   */\n      or\n        /* \"#utility.yul\":16661:16701   */\n      swap3\n      pop\n        /* \"#utility.yul\":16390:16707   */\n      pop\n      pop\n        /* \"#utility.yul\":16314:16707   */\n      swap4\n      swap3\n      pop\n      pop\n      pop\n      jump\t// out\n        /* \"#utility.yul\":16713:16773   */\n    tag_217:\n        /* \"#utility.yul\":16741:16744   */\n      0x00\n        /* \"#utility.yul\":16762:16767   */\n      dup2\n        /* \"#utility.yul\":16755:16767   */\n      swap1\n      pop\n        /* \"#utility.yul\":16713:16773   */\n      swap2\n      swap1\n      pop\n      jump\t// out\n        /* \"#utility.yul\":16779:16921   */\n    tag_218:\n        /* \"#utility.yul\":16829:16838   */\n      0x00\n        /* \"#utility.yul\":16862:16915   */\n      tag_391\n        /* \"#utility.yul\":16880:16914   */\n      tag_392\n        /* \"#utility.yul\":16889:16913   */\n      tag_393\n        /* \"#utility.yul\":16907:16912   */\n      dup5\n        /* \"#utility.yul\":16889:16913   */\n      tag_174\n      jump\t// in\n    tag_393:\n        /* \"#utility.yul\":16880:16914   */\n      tag_217\n      jump\t// in\n    tag_392:\n        /* \"#utility.yul\":16862:16915   */\n      tag_174\n      jump\t// in\n    tag_391:\n        /* \"#utility.yul\":16849:16915   */\n      swap1\n      pop\n        /* \"#utility.yul\":16779:16921   */\n      swap2\n      swap1\n      pop\n      jump\t// out\n        /* \"#utility.yul\":16927:17002   */\n    tag_219:\n        /* \"#utility.yul\":16970:16973   */\n      0x00\n        /* \"#utility.yul\":16991:16996   */\n      dup2\n        /* \"#utility.yul\":16984:16996   */\n      swap1\n      pop\n        /* \"#utility.yul\":16927:17002   */\n      swap2\n      swap1\n      pop\n      jump\t// out\n        /* \"#utility.yul\":17008:17277   */\n    tag_220:\n        /* \"#utility.yul\":17118:17157   */\n      tag_396\n        /* \"#utility.yul\":17149:17156   */\n      dup4\n        /* \"#utility.yul\":17118:17157   */\n      tag_218\n      jump\t// in\n    tag_396:\n        /* \"#utility.yul\":17179:17270   */\n      tag_397\n        /* \"#utility.yul\":17228:17269   */\n      tag_398\n        /* \"#utility.yul\":17252:17268   */\n      dup3\n        /* \"#utility.yul\":17228:17269   */\n      tag_219\n      jump\t// in\n    tag_398:\n        /* \"#utility.yul\":17220:17226   */\n      dup5\n        /* \"#utility.yul\":17213:17217   */\n      dup5\n        /* \"#utility.yul\":17207:17218   */\n      sload\n        /* \"#utility.yul\":17179:17270   */\n      tag_216\n      jump\t// in\n    tag_397:\n        /* \"#utility.yul\":17173:17177   */\n      dup3\n        /* \"#utility.yul\":17166:17271   */\n      sstore\n        /* \"#utility.yul\":17084:17277   */\n      pop\n        /* \"#utility.yul\":17008:17277   */\n      pop\n      pop\n      pop\n      jump\t// out\n        /* \"#utility.yul\":17283:17356   */\n    tag_221:\n        /* \"#utility.yul\":17328:17331   */\n      0x00\n        /* \"#utility.yul\":17283:17356   */\n      swap1\n      jump\t// out\n        /* \"#utility.yul\":17362:17551   */\n    tag_222:\n        /* \"#utility.yul\":17439:17471   */\n      tag_401\n      tag_221\n      jump\t// in\n    tag_401:\n        /* \"#utility.yul\":17480:17545   */\n      tag_402\n        /* \"#utility.yul\":17538:17544   */\n      dup2\n        /* \"#utility.yul\":17530:17536   */\n      dup5\n        /* \"#utility.yul\":17524:17528   */\n      dup5\n        /* \"#utility.yul\":17480:17545   */\n      tag_220\n      jump\t// in\n    tag_402:\n        /* \"#utility.yul\":17415:17551   */\n      pop\n        /* \"#utility.yul\":17362:17551   */\n      pop\n      pop\n      jump\t// out\n        /* \"#utility.yul\":17557:17743   */\n    tag_223:\n        /* \"#utility.yul\":17617:17737   */\n    tag_404:\n        /* \"#utility.yul\":17634:17637   */\n      dup2\n        /* \"#utility.yul\":17627:17632   */\n      dup2\n        /* \"#utility.yul\":17624:17638   */\n      lt\n        /* \"#utility.yul\":17617:17737   */\n      iszero\n      tag_406\n      jumpi\n        /* \"#utility.yul\":17688:17727   */\n      tag_407\n        /* \"#utility.yul\":17725:17726   */\n      0x00\n        /* \"#utility.yul\":17718:17723   */\n      dup3\n        /* \"#utility.yul\":17688:17727   */\n      tag_222\n      jump\t// in\n    tag_407:\n        /* \"#utility.yul\":17661:17662   */\n      0x01\n        /* \"#utility.yul\":17654:17659   */\n      dup2\n        /* \"#utility.yul\":17650:17663   */\n      add\n        /* \"#utility.yul\":17641:17663   */\n      swap1\n      pop\n        /* \"#utility.yul\":17617:17737   */\n      jump(tag_404)\n    tag_406:\n        /* \"#utility.yul\":17557:17743   */\n      pop\n      pop\n      jump\t// out\n        /* \"#utility.yul\":17749:18292   */\n    tag_224:\n        /* \"#utility.yul\":17850:17852   */\n      0x1f\n        /* \"#utility.yul\":17845:17848   */\n      dup3\n        /* \"#utility.yul\":17842:17853   */\n      gt\n        /* \"#utility.yul\":17839:18285   */\n      iszero\n      tag_409\n      jumpi\n        /* \"#utility.yul\":17884:17922   */\n      tag_410\n        /* \"#utility.yul\":17916:17921   */\n      dup2\n        /* \"#utility.yul\":17884:17922   */\n      tag_213\n      jump\t// in\n    tag_410:\n        /* \"#utility.yul\":17968:17997   */\n      tag_411\n        /* \"#utility.yul\":17986:17996   */\n      dup5\n        /* \"#utility.yul\":17968:17997   */\n      tag_214\n      jump\t// in\n    tag_411:\n        /* \"#utility.yul\":17958:17966   */\n      dup2\n        /* \"#utility.yul\":17954:17998   */\n      add\n        /* \"#utility.yul\":18151:18153   */\n      0x20\n        /* \"#utility.yul\":18139:18149   */\n      dup6\n        /* \"#utility.yul\":18136:18154   */\n      lt\n        /* \"#utility.yul\":18133:18182   */\n      iszero\n      tag_412\n      jumpi\n        /* \"#utility.yul\":18172:18180   */\n      dup2\n        /* \"#utility.yul\":18157:18180   */\n      swap1\n      pop\n        /* \"#utility.yul\":18133:18182   */\n    tag_412:\n        /* \"#utility.yul\":18195:18275   */\n      tag_413\n        /* \"#utility.yul\":18251:18273   */\n      tag_414\n        /* \"#utility.yul\":18269:18272   */\n      dup6\n        /* \"#utility.yul\":18251:18273   */\n      tag_214\n      jump\t// in\n    tag_414:\n        /* \"#utility.yul\":18241:18249   */\n      dup4\n        /* \"#utility.yul\":18237:18274   */\n      add\n        /* \"#utility.yul\":18224:18235   */\n      dup3\n        /* \"#utility.yul\":18195:18275   */\n      tag_223\n      jump\t// in\n    tag_413:\n        /* \"#utility.yul\":17854:18285   */\n      pop\n      pop\n        /* \"#utility.yul\":17839:18285   */\n    tag_409:\n        /* \"#utility.yul\":17749:18292   */\n      pop\n      pop\n      pop\n      jump\t// out\n        /* \"#utility.yul\":18298:18415   */\n    tag_225:\n        /* \"#utility.yul\":18352:18360   */\n      0x00\n        /* \"#utility.yul\":18402:18407   */\n      dup3\n        /* \"#utility.yul\":18396:18400   */\n      dup3\n        /* \"#utility.yul\":18392:18408   */\n      shr\n        /* \"#utility.yul\":18371:18408   */\n      swap1\n      pop\n        /* \"#utility.yul\":18298:18415   */\n      swap3\n      swap2\n      pop\n      pop\n      jump\t// out\n        /* \"#utility.yul\":18421:18590   */\n    tag_226:\n        /* \"#utility.yul\":18465:18471   */\n      0x00\n        /* \"#utility.yul\":18498:18549   */\n      tag_417\n        /* \"#utility.yul\":18546:18547   */\n      0x00\n        /* \"#utility.yul\":18542:18548   */\n      not\n        /* \"#utility.yul\":18534:18539   */\n      dup5\n        /* \"#utility.yul\":18531:18532   */\n      0x08\n        /* \"#utility.yul\":18527:18540   */\n      mul\n        /* \"#utility.yul\":18498:18549   */\n      tag_225\n      jump\t// in\n    tag_417:\n        /* \"#utility.yul\":18494:18550   */\n      not\n        /* \"#utility.yul\":18579:18583   */\n      dup1\n        /* \"#utility.yul\":18573:18577   */\n      dup4\n        /* \"#utility.yul\":18569:18584   */\n      and\n        /* \"#utility.yul\":18559:18584   */\n      swap2\n      pop\n        /* \"#utility.yul\":18472:18590   */\n      pop\n        /* \"#utility.yul\":18421:18590   */\n      swap3\n      swap2\n      pop\n      pop\n      jump\t// out\n        /* \"#utility.yul\":18595:18890   */\n    tag_227:\n        /* \"#utility.yul\":18671:18675   */\n      0x00\n        /* \"#utility.yul\":18817:18846   */\n      tag_419\n        /* \"#utility.yul\":18842:18845   */\n      dup4\n        /* \"#utility.yul\":18836:18840   */\n      dup4\n        /* \"#utility.yul\":18817:18846   */\n      tag_226\n      jump\t// in\n    tag_419:\n        /* \"#utility.yul\":18809:18846   */\n      swap2\n      pop\n        /* \"#utility.yul\":18879:18882   */\n      dup3\n        /* \"#utility.yul\":18876:18877   */\n      0x02\n        /* \"#utility.yul\":18872:18883   */\n      mul\n        /* \"#utility.yul\":18866:18870   */\n      dup3\n        /* \"#utility.yul\":18863:18884   */\n      or\n        /* \"#utility.yul\":18855:18884   */\n      swap1\n      pop\n        /* \"#utility.yul\":18595:18890   */\n      swap3\n      swap2\n      pop\n      pop\n      jump\t// out\n        /* \"#utility.yul\":18895:20290   */\n    tag_101:\n        /* \"#utility.yul\":19012:19049   */\n      tag_421\n        /* \"#utility.yul\":19045:19048   */\n      dup3\n        /* \"#utility.yul\":19012:19049   */\n      tag_188\n      jump\t// in\n    tag_421:\n        /* \"#utility.yul\":19114:19132   */\n      0xffffffffffffffff\n        /* \"#utility.yul\":19106:19112   */\n      dup2\n        /* \"#utility.yul\":19103:19133   */\n      gt\n        /* \"#utility.yul\":19100:19156   */\n      iszero\n      tag_422\n      jumpi\n        /* \"#utility.yul\":19136:19154   */\n      tag_423\n      tag_181\n      jump\t// in\n    tag_423:\n        /* \"#utility.yul\":19100:19156   */\n    tag_422:\n        /* \"#utility.yul\":19180:19218   */\n      tag_424\n        /* \"#utility.yul\":19212:19216   */\n      dup3\n        /* \"#utility.yul\":19206:19217   */\n      sload\n        /* \"#utility.yul\":19180:19218   */\n      tag_106\n      jump\t// in\n    tag_424:\n        /* \"#utility.yul\":19265:19332   */\n      tag_425\n        /* \"#utility.yul\":19325:19331   */\n      dup3\n        /* \"#utility.yul\":19317:19323   */\n      dup3\n        /* \"#utility.yul\":19311:19315   */\n      dup6\n        /* \"#utility.yul\":19265:19332   */\n      tag_224\n      jump\t// in\n    tag_425:\n        /* \"#utility.yul\":19359:19360   */\n      0x00\n        /* \"#utility.yul\":19383:19387   */\n      0x20\n        /* \"#utility.yul\":19370:19387   */\n      swap1\n      pop\n        /* \"#utility.yul\":19415:19417   */\n      0x1f\n        /* \"#utility.yul\":19407:19413   */\n      dup4\n        /* \"#utility.yul\":19404:19418   */\n      gt\n        /* \"#utility.yul\":19432:19433   */\n      0x01\n        /* \"#utility.yul\":19427:20045   */\n      dup2\n      eq\n      tag_427\n      jumpi\n        /* \"#utility.yul\":20089:20090   */\n      0x00\n        /* \"#utility.yul\":20106:20112   */\n      dup5\n        /* \"#utility.yul\":20103:20180   */\n      iszero\n      tag_428\n      jumpi\n        /* \"#utility.yul\":20155:20164   */\n      dup3\n        /* \"#utility.yul\":20150:20153   */\n      dup8\n        /* \"#utility.yul\":20146:20165   */\n      add\n        /* \"#utility.yul\":20140:20166   */\n      mload\n        /* \"#utility.yul\":20131:20166   */\n      swap1\n      pop\n        /* \"#utility.yul\":20103:20180   */\n    tag_428:\n        /* \"#utility.yul\":20206:20273   */\n      tag_429\n        /* \"#utility.yul\":20266:20272   */\n      dup6\n        /* \"#utility.yul\":20259:20264   */\n      dup3\n        /* \"#utility.yul\":20206:20273   */\n      tag_227\n      jump\t// in\n    tag_429:\n        /* \"#utility.yul\":20200:20204   */\n      dup7\n        /* \"#utility.yul\":20193:20274   */\n      sstore\n        /* \"#utility.yul\":20062:20284   */\n      pop\n        /* \"#utility.yul\":19397:20284   */\n      jump(tag_426)\n        /* \"#utility.yul\":19427:20045   */\n    tag_427:\n        /* \"#utility.yul\":19479:19483   */\n      0x1f\n        /* \"#utility.yul\":19475:19484   */\n      not\n        /* \"#utility.yul\":19467:19473   */\n      dup5\n        /* \"#utility.yul\":19463:19485   */\n      and\n        /* \"#utility.yul\":19513:19550   */\n      tag_430\n        /* \"#utility.yul\":19545:19549   */\n      dup7\n        /* \"#utility.yul\":19513:19550   */\n      tag_213\n      jump\t// in\n    tag_430:\n        /* \"#utility.yul\":19572:19573   */\n      0x00\n        /* \"#utility.yul\":19586:19794   */\n    tag_431:\n        /* \"#utility.yul\":19600:19607   */\n      dup3\n        /* \"#utility.yul\":19597:19598   */\n      dup2\n        /* \"#utility.yul\":19594:19608   */\n      lt\n        /* \"#utility.yul\":19586:19794   */\n      iszero\n      tag_433\n      jumpi\n        /* \"#utility.yul\":19679:19688   */\n      dup5\n        /* \"#utility.yul\":19674:19677   */\n      dup10\n        /* \"#utility.yul\":19670:19689   */\n      add\n        /* \"#utility.yul\":19664:19690   */\n      mload\n        /* \"#utility.yul\":19656:19662   */\n      dup3\n        /* \"#utility.yul\":19649:19691   */\n      sstore\n        /* \"#utility.yul\":19730:19731   */\n      0x01\n        /* \"#utility.yul\":19722:19728   */\n      dup3\n        /* \"#utility.yul\":19718:19732   */\n      add\n        /* \"#utility.yul\":19708:19732   */\n      swap2\n      pop\n        /* \"#utility.yul\":19777:19779   */\n      0x20\n        /* \"#utility.yul\":19766:19775   */\n      dup6\n        /* \"#utility.yul\":19762:19780   */\n      add\n        /* \"#utility.yul\":19749:19780   */\n      swap5\n      pop\n        /* \"#utility.yul\":19623:19627   */\n      0x20\n        /* \"#utility.yul\":19620:19621   */\n      dup2\n        /* \"#utility.yul\":19616:19628   */\n      add\n        /* \"#utility.yul\":19611:19628   */\n      swap1\n      pop\n        /* \"#utility.yul\":19586:19794   */\n      jump(tag_431)\n    tag_433:\n        /* \"#utility.yul\":19822:19828   */\n      dup7\n        /* \"#utility.yul\":19813:19820   */\n      dup4\n        /* \"#utility.yul\":19810:19829   */\n      lt\n        /* \"#utility.yul\":19807:19986   */\n      iszero\n      tag_434\n      jumpi\n        /* \"#utility.yul\":19880:19889   */\n      dup5\n        /* \"#utility.yul\":19875:19878   */\n      dup10\n        /* \"#utility.yul\":19871:19890   */\n      add\n        /* \"#utility.yul\":19865:19891   */\n      mload\n        /* \"#utility.yul\":19923:19971   */\n      tag_435\n        /* \"#utility.yul\":19965:19969   */\n      0x1f\n        /* \"#utility.yul\":19957:19963   */\n      dup10\n        /* \"#utility.yul\":19953:19970   */\n      and\n        /* \"#utility.yul\":19942:19951   */\n      dup3\n        /* \"#utility.yul\":19923:19971   */\n      tag_226\n      jump\t// in\n    tag_435:\n        /* \"#utility.yul\":19915:19921   */\n      dup4\n        /* \"#utility.yul\":19908:19972   */\n      sstore\n        /* \"#utility.yul\":19830:19986   */\n      pop\n        /* \"#utility.yul\":19807:19986   */\n    tag_434:\n        /* \"#utility.yul\":20032:20033   */\n      0x01\n        /* \"#utility.yul\":20028:20029   */\n      0x02\n        /* \"#utility.yul\":20020:20026   */\n      dup9\n        /* \"#utility.yul\":20016:20030   */\n      mul\n        /* \"#utility.yul\":20012:20034   */\n      add\n        /* \"#utility.yul\":20006:20010   */\n      dup9\n        /* \"#utility.yul\":19999:20035   */\n      sstore\n        /* \"#utility.yul\":19434:20045   */\n      pop\n      pop\n      pop\n        /* \"#utility.yul\":19397:20284   */\n    tag_426:\n      pop\n        /* \"#utility.yul\":18987:20290   */\n      pop\n      pop\n      pop\n        /* \"#utility.yul\":18895:20290   */\n      pop\n      pop\n      jump\t// out\n        /* \"#utility.yul\":20296:20920   */\n    tag_104:\n        /* \"#utility.yul\":20485:20489   */\n      0x00\n        /* \"#utility.yul\":20523:20525   */\n      0x60\n        /* \"#utility.yul\":20512:20521   */\n      dup3\n        /* \"#utility.yul\":20508:20526   */\n      add\n        /* \"#utility.yul\":20500:20526   */\n      swap1\n      pop\n        /* \"#utility.yul\":20536:20607   */\n      tag_437\n        /* \"#utility.yul\":20604:20605   */\n      0x00\n        /* \"#utility.yul\":20593:20602   */\n      dup4\n        /* \"#utility.yul\":20589:20606   */\n      add\n        /* \"#utility.yul\":20580:20586   */\n      dup7\n        /* \"#utility.yul\":20536:20607   */\n      tag_177\n      jump\t// in\n    tag_437:\n        /* \"#utility.yul\":20654:20663   */\n      dup2\n        /* \"#utility.yul\":20648:20652   */\n      dup2\n        /* \"#utility.yul\":20644:20664   */\n      sub\n        /* \"#utility.yul\":20639:20641   */\n      0x20\n        /* \"#utility.yul\":20628:20637   */\n      dup4\n        /* \"#utility.yul\":20624:20642   */\n      add\n        /* \"#utility.yul\":20617:20665   */\n      mstore\n        /* \"#utility.yul\":20682:20760   */\n      tag_438\n        /* \"#utility.yul\":20755:20759   */\n      dup2\n        /* \"#utility.yul\":20746:20752   */\n      dup6\n        /* \"#utility.yul\":20682:20760   */\n      tag_191\n      jump\t// in\n    tag_438:\n        /* \"#utility.yul\":20674:20760   */\n      swap1\n      pop\n        /* \"#utility.yul\":20807:20816   */\n      dup2\n        /* \"#utility.yul\":20801:20805   */\n      dup2\n        /* \"#utility.yul\":20797:20817   */\n      sub\n        /* \"#utility.yul\":20792:20794   */\n      0x40\n        /* \"#utility.yul\":20781:20790   */\n      dup4\n        /* \"#utility.yul\":20777:20795   */\n      add\n        /* \"#utility.yul\":20770:20818   */\n      mstore\n        /* \"#utility.yul\":20835:20913   */\n      tag_439\n        /* \"#utility.yul\":20908:20912   */\n      dup2\n        /* \"#utility.yul\":20899:20905   */\n      dup5\n        /* \"#utility.yul\":20835:20913   */\n      tag_191\n      jump\t// in\n    tag_439:\n        /* \"#utility.yul\":20827:20913   */\n      swap1\n      pop\n        /* \"#utility.yul\":20296:20920   */\n      swap5\n      swap4\n      pop\n      pop\n      pop\n      pop\n      jump\t// out\n        /* \"#utility.yul\":20926:21102   */\n    tag_228:\n        /* \"#utility.yul\":21066:21094   */\n      0x566f74696e6720706572696f64206973206e6f74206f7665722e000000000000\n        /* \"#utility.yul\":21062:21063   */\n      0x00\n        /* \"#utility.yul\":21054:21060   */\n      dup3\n        /* \"#utility.yul\":21050:21064   */\n      add\n        /* \"#utility.yul\":21043:21095   */\n      mstore\n        /* \"#utility.yul\":20926:21102   */\n      pop\n      jump\t// out\n        /* \"#utility.yul\":21108:21474   */\n    tag_229:\n        /* \"#utility.yul\":21250:21253   */\n      0x00\n        /* \"#utility.yul\":21271:21338   */\n      tag_442\n        /* \"#utility.yul\":21335:21337   */\n      0x1a\n        /* \"#utility.yul\":21330:21333   */\n      dup4\n        /* \"#utility.yul\":21271:21338   */\n      tag_189\n      jump\t// in\n    tag_442:\n        /* \"#utility.yul\":21264:21338   */\n      swap2\n      pop\n        /* \"#utility.yul\":21347:21440   */\n      tag_443\n        /* \"#utility.yul\":21436:21439   */\n      dup3\n        /* \"#utility.yul\":21347:21440   */\n      tag_228\n      jump\t// in\n    tag_443:\n        /* \"#utility.yul\":21465:21467   */\n      0x20\n        /* \"#utility.yul\":21460:21463   */\n      dup3\n        /* \"#utility.yul\":21456:21468   */\n      add\n        /* \"#utility.yul\":21449:21468   */\n      swap1\n      pop\n        /* \"#utility.yul\":21108:21474   */\n      swap2\n      swap1\n      pop\n      jump\t// out\n        /* \"#utility.yul\":21480:21899   */\n    tag_136:\n        /* \"#utility.yul\":21646:21650   */\n      0x00\n        /* \"#utility.yul\":21684:21686   */\n      0x20\n        /* \"#utility.yul\":21673:21682   */\n      dup3\n        /* \"#utility.yul\":21669:21687   */\n      add\n        /* \"#utility.yul\":21661:21687   */\n      swap1\n      pop\n        /* \"#utility.yul\":21733:21742   */\n      dup2\n        /* \"#utility.yul\":21727:21731   */\n      dup2\n        /* \"#utility.yul\":21723:21743   */\n      sub\n        /* \"#utility.yul\":21719:21720   */\n      0x00\n        /* \"#utility.yul\":21708:21717   */\n      dup4\n        /* \"#utility.yul\":21704:21721   */\n      add\n        /* \"#utility.yul\":21697:21744   */\n      mstore\n        /* \"#utility.yul\":21761:21892   */\n      tag_445\n        /* \"#utility.yul\":21887:21891   */\n      dup2\n        /* \"#utility.yul\":21761:21892   */\n      tag_229\n      jump\t// in\n    tag_445:\n        /* \"#utility.yul\":21753:21892   */\n      swap1\n      pop\n        /* \"#utility.yul\":21480:21899   */\n      swap2\n      swap1\n      pop\n      jump\t// out\n        /* \"#utility.yul\":21905:22069   */\n    tag_230:\n        /* \"#utility.yul\":22045:22061   */\n      0x4e6f20766f74657320636173742e000000000000000000000000000000000000\n        /* \"#utility.yul\":22041:22042   */\n      0x00\n        /* \"#utility.yul\":22033:22039   */\n      dup3\n        /* \"#utility.yul\":22029:22043   */\n      add\n        /* \"#utility.yul\":22022:22062   */\n      mstore\n        /* \"#utility.yul\":21905:22069   */\n      pop\n      jump\t// out\n        /* \"#utility.yul\":22075:22441   */\n    tag_231:\n        /* \"#utility.yul\":22217:22220   */\n      0x00\n        /* \"#utility.yul\":22238:22305   */\n      tag_448\n        /* \"#utility.yul\":22302:22304   */\n      0x0e\n        /* \"#utility.yul\":22297:22300   */\n      dup4\n        /* \"#utility.yul\":22238:22305   */\n      tag_189\n      jump\t// in\n    tag_448:\n        /* \"#utility.yul\":22231:22305   */\n      swap2\n      pop\n        /* \"#utility.yul\":22314:22407   */\n      tag_449\n        /* \"#utility.yul\":22403:22406   */\n      dup3\n        /* \"#utility.yul\":22314:22407   */\n      tag_230\n      jump\t// in\n    tag_449:\n        /* \"#utility.yul\":22432:22434   */\n      0x20\n        /* \"#utility.yul\":22427:22430   */\n      dup3\n        /* \"#utility.yul\":22423:22435   */\n      add\n        /* \"#utility.yul\":22416:22435   */\n      swap1\n      pop\n        /* \"#utility.yul\":22075:22441   */\n      swap2\n      swap1\n      pop\n      jump\t// out\n        /* \"#utility.yul\":22447:22866   */\n    tag_144:\n        /* \"#utility.yul\":22613:22617   */\n      0x00\n        /* \"#utility.yul\":22651:22653   */\n      0x20\n        /* \"#utility.yul\":22640:22649   */\n      dup3\n        /* \"#utility.yul\":22636:22654   */\n      add\n        /* \"#utility.yul\":22628:22654   */\n      swap1\n      pop\n        /* \"#utility.yul\":22700:22709   */\n      dup2\n        /* \"#utility.yul\":22694:22698   */\n      dup2\n        /* \"#utility.yul\":22690:22710   */\n      sub\n        /* \"#utility.yul\":22686:22687   */\n      0x00\n        /* \"#utility.yul\":22675:22684   */\n      dup4\n        /* \"#utility.yul\":22671:22688   */\n      add\n        /* \"#utility.yul\":22664:22711   */\n      mstore\n        /* \"#utility.yul\":22728:22859   */\n      tag_451\n        /* \"#utility.yul\":22854:22858   */\n      dup2\n        /* \"#utility.yul\":22728:22859   */\n      tag_231\n      jump\t// in\n    tag_451:\n        /* \"#utility.yul\":22720:22859   */\n      swap1\n      pop\n        /* \"#utility.yul\":22447:22866   */\n      swap2\n      swap1\n      pop\n      jump\t// out\n        /* \"#utility.yul\":22872:23047   */\n    tag_232:\n        /* \"#utility.yul\":23012:23039   */\n      0x566f74696e6720446174657320616c7265616479207365742e00000000000000\n        /* \"#utility.yul\":23008:23009   */\n      0x00\n        /* \"#utility.yul\":23000:23006   */\n      dup3\n        /* \"#utility.yul\":22996:23010   */\n      add\n        /* \"#utility.yul\":22989:23040   */\n      mstore\n        /* \"#utility.yul\":22872:23047   */\n      pop\n      jump\t// out\n        /* \"#utility.yul\":23053:23419   */\n    tag_233:\n        /* \"#utility.yul\":23195:23198   */\n      0x00\n        /* \"#utility.yul\":23216:23283   */\n      tag_454\n        /* \"#utility.yul\":23280:23282   */\n      0x19\n        /* \"#utility.yul\":23275:23278   */\n      dup4\n        /* \"#utility.yul\":23216:23283   */\n      tag_189\n      jump\t// in\n    tag_454:\n        /* \"#utility.yul\":23209:23283   */\n      swap2\n      pop\n        /* \"#utility.yul\":23292:23385   */\n      tag_455\n        /* \"#utility.yul\":23381:23384   */\n      dup3\n        /* \"#utility.yul\":23292:23385   */\n      tag_232\n      jump\t// in\n    tag_455:\n        /* \"#utility.yul\":23410:23412   */\n      0x20\n        /* \"#utility.yul\":23405:23408   */\n      dup3\n        /* \"#utility.yul\":23401:23413   */\n      add\n        /* \"#utility.yul\":23394:23413   */\n      swap1\n      pop\n        /* \"#utility.yul\":23053:23419   */\n      swap2\n      swap1\n      pop\n      jump\t// out\n        /* \"#utility.yul\":23425:23844   */\n    tag_163:\n        /* \"#utility.yul\":23591:23595   */\n      0x00\n        /* \"#utility.yul\":23629:23631   */\n      0x20\n        /* \"#utility.yul\":23618:23627   */\n      dup3\n        /* \"#utility.yul\":23614:23632   */\n      add\n        /* \"#utility.yul\":23606:23632   */\n      swap1\n      pop\n        /* \"#utility.yul\":23678:23687   */\n      dup2\n        /* \"#utility.yul\":23672:23676   */\n      dup2\n        /* \"#utility.yul\":23668:23688   */\n      sub\n        /* \"#utility.yul\":23664:23665   */\n      0x00\n        /* \"#utility.yul\":23653:23662   */\n      dup4\n        /* \"#utility.yul\":23649:23666   */\n      add\n        /* \"#utility.yul\":23642:23689   */\n      mstore\n        /* \"#utility.yul\":23706:23837   */\n      tag_457\n        /* \"#utility.yul\":23832:23836   */\n      dup2\n        /* \"#utility.yul\":23706:23837   */\n      tag_233\n      jump\t// in\n    tag_457:\n        /* \"#utility.yul\":23698:23837   */\n      swap1\n      pop\n        /* \"#utility.yul\":23425:23844   */\n      swap2\n      swap1\n      pop\n      jump\t// out\n        /* \"#utility.yul\":23850:24032   */\n    tag_234:\n        /* \"#utility.yul\":23990:24024   */\n      0x566f74696e6720686173206e6f74206265656e2073746172746564207965742e\n        /* \"#utility.yul\":23986:23987   */\n      0x00\n        /* \"#utility.yul\":23978:23984   */\n      dup3\n        /* \"#utility.yul\":23974:23988   */\n      add\n        /* \"#utility.yul\":23967:24025   */\n      mstore\n        /* \"#utility.yul\":23850:24032   */\n      pop\n      jump\t// out\n        /* \"#utility.yul\":24038:24404   */\n    tag_235:\n        /* \"#utility.yul\":24180:24183   */\n      0x00\n        /* \"#utility.yul\":24201:24268   */\n      tag_460\n        /* \"#utility.yul\":24265:24267   */\n      0x20\n        /* \"#utility.yul\":24260:24263   */\n      dup4\n        /* \"#utility.yul\":24201:24268   */\n      tag_189\n      jump\t// in\n    tag_460:\n        /* \"#utility.yul\":24194:24268   */\n      swap2\n      pop\n        /* \"#utility.yul\":24277:24370   */\n      tag_461\n        /* \"#utility.yul\":24366:24369   */\n      dup3\n        /* \"#utility.yul\":24277:24370   */\n      tag_234\n      jump\t// in\n    tag_461:\n        /* \"#utility.yul\":24395:24397   */\n      0x20\n        /* \"#utility.yul\":24390:24393   */\n      dup3\n        /* \"#utility.yul\":24386:24398   */\n      add\n        /* \"#utility.yul\":24379:24398   */\n      swap1\n      pop\n        /* \"#utility.yul\":24038:24404   */\n      swap2\n      swap1\n      pop\n      jump\t// out\n        /* \"#utility.yul\":24410:24829   */\n    tag_166:\n        /* \"#utility.yul\":24576:24580   */\n      0x00\n        /* \"#utility.yul\":24614:24616   */\n      0x20\n        /* \"#utility.yul\":24603:24612   */\n      dup3\n        /* \"#utility.yul\":24599:24617   */\n      add\n        /* \"#utility.yul\":24591:24617   */\n      swap1\n      pop\n        /* \"#utility.yul\":24663:24672   */\n      dup2\n        /* \"#utility.yul\":24657:24661   */\n      dup2\n        /* \"#utility.yul\":24653:24673   */\n      sub\n        /* \"#utility.yul\":24649:24650   */\n      0x00\n        /* \"#utility.yul\":24638:24647   */\n      dup4\n        /* \"#utility.yul\":24634:24651   */\n      add\n        /* \"#utility.yul\":24627:24674   */\n      mstore\n        /* \"#utility.yul\":24691:24822   */\n      tag_463\n        /* \"#utility.yul\":24817:24821   */\n      dup2\n        /* \"#utility.yul\":24691:24822   */\n      tag_235\n      jump\t// in\n    tag_463:\n        /* \"#utility.yul\":24683:24822   */\n      swap1\n      pop\n        /* \"#utility.yul\":24410:24829   */\n      swap2\n      swap1\n      pop\n      jump\t// out\n        /* \"#utility.yul\":24835:25060   */\n    tag_236:\n        /* \"#utility.yul\":24975:25009   */\n      0x456e642064617465206d75737420626520616674657220746865207374617274\n        /* \"#utility.yul\":24971:24972   */\n      0x00\n        /* \"#utility.yul\":24963:24969   */\n      dup3\n        /* \"#utility.yul\":24959:24973   */\n      add\n        /* \"#utility.yul\":24952:25010   */\n      mstore\n        /* \"#utility.yul\":25044:25052   */\n      0x20646174652e0000000000000000000000000000000000000000000000000000\n        /* \"#utility.yul\":25039:25041   */\n      0x20\n        /* \"#utility.yul\":25031:25037   */\n      dup3\n        /* \"#utility.yul\":25027:25042   */\n      add\n        /* \"#utility.yul\":25020:25053   */\n      mstore\n        /* \"#utility.yul\":24835:25060   */\n      pop\n      jump\t// out\n        /* \"#utility.yul\":25066:25432   */\n    tag_237:\n        /* \"#utility.yul\":25208:25211   */\n      0x00\n        /* \"#utility.yul\":25229:25296   */\n      tag_466\n        /* \"#utility.yul\":25293:25295   */\n      0x26\n        /* \"#utility.yul\":25288:25291   */\n      dup4\n        /* \"#utility.yul\":25229:25296   */\n      tag_189\n      jump\t// in\n    tag_466:\n        /* \"#utility.yul\":25222:25296   */\n      swap2\n      pop\n        /* \"#utility.yul\":25305:25398   */\n      tag_467\n        /* \"#utility.yul\":25394:25397   */\n      dup3\n        /* \"#utility.yul\":25305:25398   */\n      tag_236\n      jump\t// in\n    tag_467:\n        /* \"#utility.yul\":25423:25425   */\n      0x40\n        /* \"#utility.yul\":25418:25421   */\n      dup3\n        /* \"#utility.yul\":25414:25426   */\n      add\n        /* \"#utility.yul\":25407:25426   */\n      swap1\n      pop\n        /* \"#utility.yul\":25066:25432   */\n      swap2\n      swap1\n      pop\n      jump\t// out\n        /* \"#utility.yul\":25438:25857   */\n    tag_169:\n        /* \"#utility.yul\":25604:25608   */\n      0x00\n        /* \"#utility.yul\":25642:25644   */\n      0x20\n        /* \"#utility.yul\":25631:25640   */\n      dup3\n        /* \"#utility.yul\":25627:25645   */\n      add\n        /* \"#utility.yul\":25619:25645   */\n      swap1\n      pop\n        /* \"#utility.yul\":25691:25700   */\n      dup2\n        /* \"#utility.yul\":25685:25689   */\n      dup2\n        /* \"#utility.yul\":25681:25701   */\n      sub\n        /* \"#utility.yul\":25677:25678   */\n      0x00\n        /* \"#utility.yul\":25666:25675   */\n      dup4\n        /* \"#utility.yul\":25662:25679   */\n      add\n        /* \"#utility.yul\":25655:25702   */\n      mstore\n        /* \"#utility.yul\":25719:25850   */\n      tag_469\n        /* \"#utility.yul\":25845:25849   */\n      dup2\n        /* \"#utility.yul\":25719:25850   */\n      tag_237\n      jump\t// in\n    tag_469:\n        /* \"#utility.yul\":25711:25850   */\n      swap1\n      pop\n        /* \"#utility.yul\":25438:25857   */\n      swap2\n      swap1\n      pop\n      jump\t// out\n\n    auxdata: 0xa2646970667358221220f26cd2c49210ba9631690bd1616de41cf8a5f30191294cd16b9fb2ee32e3f1d664736f6c634300081a0033\n}\n",
				"bytecode": {
					"linkReferences": {},
					"object": "6080604052348015600e575f80fd5b50335f806101000a81548173ffffffffffffffffffffffffffffffffffffffff021916908373ffffffffffffffffffffffffffffffffffffffff160217905550611bf58061005b5f395ff3fe608060405234801561000f575f80fd5b50600436106100cd575f3560e01c80634c0831411161008a578063a3ec138d11610064578063a3ec138d1461021c578063b0417e981461024c578063b4a99a4e1461026a578063dedf141e14610288576100cd565b80634c083141146101c057806385a38635146101de5780638e7ea5b2146101fc576100cd565b80630121b93f146100d1578063101158af146100ed578063164418131461010b57806326541b561461012a5780633477ee2e1461015a57806335b8e8201461018d575b5f80fd5b6100eb60048036038101906100e69190610f17565b6102a4565b005b6100f56104a0565b6040516101029190610f51565b60405180910390f35b6101136104a6565b604051610121929190610f6a565b60405180910390f35b610144600480360381019061013f91906110cd565b6104b6565b6040516101519190610f51565b60405180910390f35b610174600480360381019061016f9190610f17565b6106a1565b60405161018494939291906111a3565b60405180910390f35b6101a760048036038101906101a29190610f17565b6107d9565b6040516101b794939291906111a3565b60405180910390f35b6101c86109a4565b6040516101d59190610f51565b60405180910390f35b6101e66109aa565b6040516101f39190610f51565b60405180910390f35b6102046109b0565b604051610213939291906111f4565b60405180910390f35b61023660048036038101906102319190611291565b610c92565b60405161024391906112d6565b60405180910390f35b610254610caf565b60405161026191906112d6565b60405180910390f35b610272610cff565b60405161027f91906112fe565b60405180910390f35b6102a2600480360381019061029d9190611317565b610d22565b005b60025442101580156102b857506003544211155b6102f7576040517f08c379a00000000000000000000000000000000000000000000000000000000081526004016102ee9061139f565b60405180910390fd5b5f8111801561030857506001548111155b610347576040517f08c379a000000000000000000000000000000000000000000000000000000000815260040161033e90611407565b60405180910390fd5b60055f3373ffffffffffffffffffffffffffffffffffffffff1673ffffffffffffffffffffffffffffffffffffffff1681526020019081526020015f205f9054906101000a900460ff16156103d1576040517f08c379a00000000000000000000000000000000000000000000000000000000081526004016103c89061146f565b60405180910390fd5b600160055f3373ffffffffffffffffffffffffffffffffffffffff1673ffffffffffffffffffffffffffffffffffffffff1681526020019081526020015f205f6101000a81548160ff02191690831515021790555060045f8281526020019081526020015f206003015f81548092919061044a906114ba565b91905055503373ffffffffffffffffffffffffffffffffffffffff167fc591aa98f3e7d1c3a106f4653e39eba694fcc03ba3c686dfbefbf82f6b06bcea826040516104959190610f51565b60405180910390a250565b60025481565b5f80600254600354915091509091565b5f805f9054906101000a900473ffffffffffffffffffffffffffffffffffffffff1673ffffffffffffffffffffffffffffffffffffffff163373ffffffffffffffffffffffffffffffffffffffff1614610545576040517f08c379a000000000000000000000000000000000000000000000000000000000815260040161053c90611571565b60405180910390fd5b5f835111610588576040517f08c379a000000000000000000000000000000000000000000000000000000000815260040161057f906115d9565b60405180910390fd5b5f8251116105cb576040517f08c379a00000000000000000000000000000000000000000000000000000000081526004016105c290611667565b60405180910390fd5b60015f8154809291906105dd906114ba565b9190505550604051806080016040528084815260200160015481526020018381526020015f81525060045f60015481526020019081526020015f205f820151815f01908161062b919061187f565b5060208201518160010155604082015181600201908161064b919061187f565b50606082015181600301559050507fe64f834082661dd9ed89427b87edb6270fd6dad17198b0938f0edd058914c87f600154848460405161068e9392919061194e565b60405180910390a1600154905092915050565b6004602052805f5260405f205f91509050805f0180546106c0906116b2565b80601f01602080910402602001604051908101604052809291908181526020018280546106ec906116b2565b80156107375780601f1061070e57610100808354040283529160200191610737565b820191905f5260205f20905b81548152906001019060200180831161071a57829003601f168201915b505050505090806001015490806002018054610752906116b2565b80601f016020809104026020016040519081016040528092919081815260200182805461077e906116b2565b80156107c95780601f106107a0576101008083540402835291602001916107c9565b820191905f5260205f20905b8154815290600101906020018083116107ac57829003601f168201915b5050505050908060030154905084565b60605f60605f80851180156107f057506001548511155b61082f576040517f08c379a000000000000000000000000000000000000000000000000000000000815260040161082690611407565b60405180910390fd5b5f60045f8781526020019081526020015f206040518060800160405290815f8201805461085b906116b2565b80601f0160208091040260200160405190810160405280929190818152602001828054610887906116b2565b80156108d25780601f106108a9576101008083540402835291602001916108d2565b820191905f5260205f20905b8154815290600101906020018083116108b557829003601f168201915b50505050508152602001600182015481526020016002820180546108f5906116b2565b80601f0160208091040260200160405190810160405280929190818152602001828054610921906116b2565b801561096c5780601f106109435761010080835404028352916020019161096c565b820191905f5260205f20905b81548152906001019060200180831161094f57829003601f168201915b505050505081526020016003820154815250509050805f01518160200151826040015183606001519450945094509450509193509193565b60015481565b60035481565b6060805f805f9054906101000a900473ffffffffffffffffffffffffffffffffffffffff1673ffffffffffffffffffffffffffffffffffffffff163373ffffffffffffffffffffffffffffffffffffffff1614610a42576040517f08c379a0000000000000000000000000000000000000000000000000000000008152600401610a3990611571565b60405180910390fd5b6003544211610a86576040517f08c379a0000000000000000000000000000000000000000000000000000000008152600401610a7d906119db565b60405180910390fd5b5f805f600190505b6001548111610ae1578260045f8381526020019081526020015f20600301541115610ace5760045f8281526020019081526020015f206003015492508091505b8080610ad9906114ba565b915050610a8e565b505f8103610b24576040517f08c379a0000000000000000000000000000000000000000000000000000000008152600401610b1b90611a43565b60405180910390fd5b5f60045f8381526020019081526020015f206040518060800160405290815f82018054610b50906116b2565b80601f0160208091040260200160405190810160405280929190818152602001828054610b7c906116b2565b8015610bc75780601f10610b9e57610100808354040283529160200191610bc7565b820191905f5260205f20905b815481529060010190602001808311610baa57829003601f168201915b5050505050815260200160018201548152602001600282018054610bea906116b2565b80601f0160208091040260200160405190810160405280929190818152602001828054610c16906116b2565b8015610c615780601f10610c3857610100808354040283529160200191610c61565b820191905f5260205f20905b815481529060010190602001808311610c4457829003601f168201915b505050505081526020016003820154815250509050805f015181604001518260600151955095509550505050909192565b6005602052805f5260405f205f915054906101000a900460ff1681565b5f60055f3373ffffffffffffffffffffffffffffffffffffffff1673ffffffffffffffffffffffffffffffffffffffff1681526020019081526020015f205f9054906101000a900460ff16905090565b5f8054906101000a900473ffffffffffffffffffffffffffffffffffffffff1681565b5f8054906101000a900473ffffffffffffffffffffffffffffffffffffffff1673ffffffffffffffffffffffffffffffffffffffff163373ffffffffffffffffffffffffffffffffffffffff1614610daf576040517f08c379a0000000000000000000000000000000000000000000000000000000008152600401610da690611571565b60405180910390fd5b5f600254148015610dc157505f600354145b610e00576040517f08c379a0000000000000000000000000000000000000000000000000000000008152600401610df790611aab565b60405180910390fd5b428211610e42576040517f08c379a0000000000000000000000000000000000000000000000000000000008152600401610e3990611b13565b60405180910390fd5b818111610e84576040517f08c379a0000000000000000000000000000000000000000000000000000000008152600401610e7b90611ba1565b60405180910390fd5b81600281905550806003819055507f5a6072db5fcfd686f9c78d6f55fa1ac09576848e350673f1c3ec3c8f433346a3600254600354604051610ec7929190610f6a565b60405180910390a15050565b5f604051905090565b5f80fd5b5f80fd5b5f819050919050565b610ef681610ee4565b8114610f00575f80fd5b50565b5f81359050610f1181610eed565b92915050565b5f60208284031215610f2c57610f2b610edc565b5b5f610f3984828501610f03565b91505092915050565b610f4b81610ee4565b82525050565b5f602082019050610f645f830184610f42565b92915050565b5f604082019050610f7d5f830185610f42565b610f8a6020830184610f42565b9392505050565b5f80fd5b5f80fd5b5f601f19601f8301169050919050565b7f4e487b71000000000000000000000000000000000000000000000000000000005f52604160045260245ffd5b610fdf82610f99565b810181811067ffffffffffffffff82111715610ffe57610ffd610fa9565b5b80604052505050565b5f611010610ed3565b905061101c8282610fd6565b919050565b5f67ffffffffffffffff82111561103b5761103a610fa9565b5b61104482610f99565b9050602081019050919050565b828183375f83830152505050565b5f61107161106c84611021565b611007565b90508281526020810184848401111561108d5761108c610f95565b5b611098848285611051565b509392505050565b5f82601f8301126110b4576110b3610f91565b5b81356110c484826020860161105f565b91505092915050565b5f80604083850312156110e3576110e2610edc565b5b5f83013567ffffffffffffffff811115611100576110ff610ee0565b5b61110c858286016110a0565b925050602083013567ffffffffffffffff81111561112d5761112c610ee0565b5b611139858286016110a0565b9150509250929050565b5f81519050919050565b5f82825260208201905092915050565b8281835e5f83830152505050565b5f61117582611143565b61117f818561114d565b935061118f81856020860161115d565b61119881610f99565b840191505092915050565b5f6080820190508181035f8301526111bb818761116b565b90506111ca6020830186610f42565b81810360408301526111dc818561116b565b90506111eb6060830184610f42565b95945050505050565b5f6060820190508181035f83015261120c818661116b565b90508181036020830152611220818561116b565b905061122f6040830184610f42565b949350505050565b5f73ffffffffffffffffffffffffffffffffffffffff82169050919050565b5f61126082611237565b9050919050565b61127081611256565b811461127a575f80fd5b50565b5f8135905061128b81611267565b92915050565b5f602082840312156112a6576112a5610edc565b5b5f6112b38482850161127d565b91505092915050565b5f8115159050919050565b6112d0816112bc565b82525050565b5f6020820190506112e95f8301846112c7565b92915050565b6112f881611256565b82525050565b5f6020820190506113115f8301846112ef565b92915050565b5f806040838503121561132d5761132c610edc565b5b5f61133a85828601610f03565b925050602061134b85828601610f03565b9150509250929050565b7f566f74696e67206973206e6f74206163746976652e00000000000000000000005f82015250565b5f61138960158361114d565b915061139482611355565b602082019050919050565b5f6020820190508181035f8301526113b68161137d565b9050919050565b7f496e76616c69642043616e6469646174652049442e00000000000000000000005f82015250565b5f6113f160158361114d565b91506113fc826113bd565b602082019050919050565b5f6020820190508181035f83015261141e816113e5565b9050919050565b7f596f75206861766520616c726561647920766f7465642e0000000000000000005f82015250565b5f61145960178361114d565b915061146482611425565b602082019050919050565b5f6020820190508181035f8301526114868161144d565b9050919050565b7f4e487b71000000000000000000000000000000000000000000000000000000005f52601160045260245ffd5b5f6114c482610ee4565b91507fffffffffffffffffffffffffffffffffffffffffffffffffffffffffffffffff82036114f6576114f561148d565b5b600182019050919050565b7f4f6e6c79206f776e65722063616e20706572666f726d207468697320616374695f8201527f6f6e2e0000000000000000000000000000000000000000000000000000000000602082015250565b5f61155b60238361114d565b915061156682611501565b604082019050919050565b5f6020820190508181035f8301526115888161154f565b9050919050565b7f43616e646964617465204e616d652063616e6e6f7420626520656d7074792e005f82015250565b5f6115c3601f8361114d565b91506115ce8261158f565b602082019050919050565b5f6020820190508181035f8301526115f0816115b7565b9050919050565b7f43616e6469646174652773207061727479206e616d652063616e6e6f742062655f8201527f20656d7074792e00000000000000000000000000000000000000000000000000602082015250565b5f61165160278361114d565b915061165c826115f7565b604082019050919050565b5f6020820190508181035f83015261167e81611645565b9050919050565b7f4e487b71000000000000000000000000000000000000000000000000000000005f52602260045260245ffd5b5f60028204905060018216806116c957607f821691505b6020821081036116dc576116db611685565b5b50919050565b5f819050815f5260205f209050919050565b5f6020601f8301049050919050565b5f82821b905092915050565b5f6008830261173e7fffffffffffffffffffffffffffffffffffffffffffffffffffffffffffffffff82611703565b6117488683611703565b95508019841693508086168417925050509392505050565b5f819050919050565b5f61178361177e61177984610ee4565b611760565b610ee4565b9050919050565b5f819050919050565b61179c83611769565b6117b06117a88261178a565b84845461170f565b825550505050565b5f90565b6117c46117b8565b6117cf818484611793565b505050565b5b818110156117f2576117e75f826117bc565b6001810190506117d5565b5050565b601f82111561183757611808816116e2565b611811846116f4565b81016020851015611820578190505b61183461182c856116f4565b8301826117d4565b50505b505050565b5f82821c905092915050565b5f6118575f198460080261183c565b1980831691505092915050565b5f61186f8383611848565b9150826002028217905092915050565b61188882611143565b67ffffffffffffffff8111156118a1576118a0610fa9565b5b6118ab82546116b2565b6118b68282856117f6565b5f60209050601f8311600181146118e7575f84156118d5578287015190505b6118df8582611864565b865550611946565b601f1984166118f5866116e2565b5f5b8281101561191c578489015182556001820191506020850194506020810190506118f7565b868310156119395784890151611935601f891682611848565b8355505b6001600288020188555050505b505050505050565b5f6060820190506119615f830186610f42565b8181036020830152611973818561116b565b90508181036040830152611987818461116b565b9050949350505050565b7f566f74696e6720706572696f64206973206e6f74206f7665722e0000000000005f82015250565b5f6119c5601a8361114d565b91506119d082611991565b602082019050919050565b5f6020820190508181035f8301526119f2816119b9565b9050919050565b7f4e6f20766f74657320636173742e0000000000000000000000000000000000005f82015250565b5f611a2d600e8361114d565b9150611a38826119f9565b602082019050919050565b5f6020820190508181035f830152611a5a81611a21565b9050919050565b7f566f74696e6720446174657320616c7265616479207365742e000000000000005f82015250565b5f611a9560198361114d565b9150611aa082611a61565b602082019050919050565b5f6020820190508181035f830152611ac281611a89565b9050919050565b7f566f74696e6720686173206e6f74206265656e2073746172746564207965742e5f82015250565b5f611afd60208361114d565b9150611b0882611ac9565b602082019050919050565b5f6020820190508181035f830152611b2a81611af1565b9050919050565b7f456e642064617465206d757374206265206166746572207468652073746172745f8201527f20646174652e0000000000000000000000000000000000000000000000000000602082015250565b5f611b8b60268361114d565b9150611b9682611b31565b604082019050919050565b5f6020820190508181035f830152611bb881611b7f565b905091905056fea2646970667358221220f26cd2c49210ba9631690bd1616de41cf8a5f30191294cd16b9fb2ee32e3f1d664736f6c634300081a0033",
					"opcodes": "PUSH1 0x80 PUSH1 0x40 MSTORE CALLVALUE DUP1 ISZERO PUSH1 0xE JUMPI PUSH0 DUP1 REVERT JUMPDEST POP CALLER PUSH0 DUP1 PUSH2 0x100 EXP DUP2 SLOAD DUP2 PUSH20 0xFFFFFFFFFFFFFFFFFFFFFFFFFFFFFFFFFFFFFFFF MUL NOT AND SWAP1 DUP4 PUSH20 0xFFFFFFFFFFFFFFFFFFFFFFFFFFFFFFFFFFFFFFFF AND MUL OR SWAP1 SSTORE POP PUSH2 0x1BF5 DUP1 PUSH2 0x5B PUSH0 CODECOPY PUSH0 RETURN INVALID PUSH1 0x80 PUSH1 0x40 MSTORE CALLVALUE DUP1 ISZERO PUSH2 0xF JUMPI PUSH0 DUP1 REVERT JUMPDEST POP PUSH1 0x4 CALLDATASIZE LT PUSH2 0xCD JUMPI PUSH0 CALLDATALOAD PUSH1 0xE0 SHR DUP1 PUSH4 0x4C083141 GT PUSH2 0x8A JUMPI DUP1 PUSH4 0xA3EC138D GT PUSH2 0x64 JUMPI DUP1 PUSH4 0xA3EC138D EQ PUSH2 0x21C JUMPI DUP1 PUSH4 0xB0417E98 EQ PUSH2 0x24C JUMPI DUP1 PUSH4 0xB4A99A4E EQ PUSH2 0x26A JUMPI DUP1 PUSH4 0xDEDF141E EQ PUSH2 0x288 JUMPI PUSH2 0xCD JUMP JUMPDEST DUP1 PUSH4 0x4C083141 EQ PUSH2 0x1C0 JUMPI DUP1 PUSH4 0x85A38635 EQ PUSH2 0x1DE JUMPI DUP1 PUSH4 0x8E7EA5B2 EQ PUSH2 0x1FC JUMPI PUSH2 0xCD JUMP JUMPDEST DUP1 PUSH4 0x121B93F EQ PUSH2 0xD1 JUMPI DUP1 PUSH4 0x101158AF EQ PUSH2 0xED JUMPI DUP1 PUSH4 0x16441813 EQ PUSH2 0x10B JUMPI DUP1 PUSH4 0x26541B56 EQ PUSH2 0x12A JUMPI DUP1 PUSH4 0x3477EE2E EQ PUSH2 0x15A JUMPI DUP1 PUSH4 0x35B8E820 EQ PUSH2 0x18D JUMPI JUMPDEST PUSH0 DUP1 REVERT JUMPDEST PUSH2 0xEB PUSH1 0x4 DUP1 CALLDATASIZE SUB DUP2 ADD SWAP1 PUSH2 0xE6 SWAP2 SWAP1 PUSH2 0xF17 JUMP JUMPDEST PUSH2 0x2A4 JUMP JUMPDEST STOP JUMPDEST PUSH2 0xF5 PUSH2 0x4A0 JUMP JUMPDEST PUSH1 0x40 MLOAD PUSH2 0x102 SWAP2 SWAP1 PUSH2 0xF51 JUMP JUMPDEST PUSH1 0x40 MLOAD DUP1 SWAP2 SUB SWAP1 RETURN JUMPDEST PUSH2 0x113 PUSH2 0x4A6 JUMP JUMPDEST PUSH1 0x40 MLOAD PUSH2 0x121 SWAP3 SWAP2 SWAP1 PUSH2 0xF6A JUMP JUMPDEST PUSH1 0x40 MLOAD DUP1 SWAP2 SUB SWAP1 RETURN JUMPDEST PUSH2 0x144 PUSH1 0x4 DUP1 CALLDATASIZE SUB DUP2 ADD SWAP1 PUSH2 0x13F SWAP2 SWAP1 PUSH2 0x10CD JUMP JUMPDEST PUSH2 0x4B6 JUMP JUMPDEST PUSH1 0x40 MLOAD PUSH2 0x151 SWAP2 SWAP1 PUSH2 0xF51 JUMP JUMPDEST PUSH1 0x40 MLOAD DUP1 SWAP2 SUB SWAP1 RETURN JUMPDEST PUSH2 0x174 PUSH1 0x4 DUP1 CALLDATASIZE SUB DUP2 ADD SWAP1 PUSH2 0x16F SWAP2 SWAP1 PUSH2 0xF17 JUMP JUMPDEST PUSH2 0x6A1 JUMP JUMPDEST PUSH1 0x40 MLOAD PUSH2 0x184 SWAP5 SWAP4 SWAP3 SWAP2 SWAP1 PUSH2 0x11A3 JUMP JUMPDEST PUSH1 0x40 MLOAD DUP1 SWAP2 SUB SWAP1 RETURN JUMPDEST PUSH2 0x1A7 PUSH1 0x4 DUP1 CALLDATASIZE SUB DUP2 ADD SWAP1 PUSH2 0x1A2 SWAP2 SWAP1 PUSH2 0xF17 JUMP JUMPDEST PUSH2 0x7D9 JUMP JUMPDEST PUSH1 0x40 MLOAD PUSH2 0x1B7 SWAP5 SWAP4 SWAP3 SWAP2 SWAP1 PUSH2 0x11A3 JUMP JUMPDEST PUSH1 0x40 MLOAD DUP1 SWAP2 SUB SWAP1 RETURN JUMPDEST PUSH2 0x1C8 PUSH2 0x9A4 JUMP JUMPDEST PUSH1 0x40 MLOAD PUSH2 0x1D5 SWAP2 SWAP1 PUSH2 0xF51 JUMP JUMPDEST PUSH1 0x40 MLOAD DUP1 SWAP2 SUB SWAP1 RETURN JUMPDEST PUSH2 0x1E6 PUSH2 0x9AA JUMP JUMPDEST PUSH1 0x40 MLOAD PUSH2 0x1F3 SWAP2 SWAP1 PUSH2 0xF51 JUMP JUMPDEST PUSH1 0x40 MLOAD DUP1 SWAP2 SUB SWAP1 RETURN JUMPDEST PUSH2 0x204 PUSH2 0x9B0 JUMP JUMPDEST PUSH1 0x40 MLOAD PUSH2 0x213 SWAP4 SWAP3 SWAP2 SWAP1 PUSH2 0x11F4 JUMP JUMPDEST PUSH1 0x40 MLOAD DUP1 SWAP2 SUB SWAP1 RETURN JUMPDEST PUSH2 0x236 PUSH1 0x4 DUP1 CALLDATASIZE SUB DUP2 ADD SWAP1 PUSH2 0x231 SWAP2 SWAP1 PUSH2 0x1291 JUMP JUMPDEST PUSH2 0xC92 JUMP JUMPDEST PUSH1 0x40 MLOAD PUSH2 0x243 SWAP2 SWAP1 PUSH2 0x12D6 JUMP JUMPDEST PUSH1 0x40 MLOAD DUP1 SWAP2 SUB SWAP1 RETURN JUMPDEST PUSH2 0x254 PUSH2 0xCAF JUMP JUMPDEST PUSH1 0x40 MLOAD PUSH2 0x261 SWAP2 SWAP1 PUSH2 0x12D6 JUMP JUMPDEST PUSH1 0x40 MLOAD DUP1 SWAP2 SUB SWAP1 RETURN JUMPDEST PUSH2 0x272 PUSH2 0xCFF JUMP JUMPDEST PUSH1 0x40 MLOAD PUSH2 0x27F SWAP2 SWAP1 PUSH2 0x12FE JUMP JUMPDEST PUSH1 0x40 MLOAD DUP1 SWAP2 SUB SWAP1 RETURN JUMPDEST PUSH2 0x2A2 PUSH1 0x4 DUP1 CALLDATASIZE SUB DUP2 ADD SWAP1 PUSH2 0x29D SWAP2 SWAP1 PUSH2 0x1317 JUMP JUMPDEST PUSH2 0xD22 JUMP JUMPDEST STOP JUMPDEST PUSH1 0x2 SLOAD TIMESTAMP LT ISZERO DUP1 ISZERO PUSH2 0x2B8 JUMPI POP PUSH1 0x3 SLOAD TIMESTAMP GT ISZERO JUMPDEST PUSH2 0x2F7 JUMPI PUSH1 0x40 MLOAD PUSH32 0x8C379A000000000000000000000000000000000000000000000000000000000 DUP2 MSTORE PUSH1 0x4 ADD PUSH2 0x2EE SWAP1 PUSH2 0x139F JUMP JUMPDEST PUSH1 0x40 MLOAD DUP1 SWAP2 SUB SWAP1 REVERT JUMPDEST PUSH0 DUP2 GT DUP1 ISZERO PUSH2 0x308 JUMPI POP PUSH1 0x1 SLOAD DUP2 GT ISZERO JUMPDEST PUSH2 0x347 JUMPI PUSH1 0x40 MLOAD PUSH32 0x8C379A000000000000000000000000000000000000000000000000000000000 DUP2 MSTORE PUSH1 0x4 ADD PUSH2 0x33E SWAP1 PUSH2 0x1407 JUMP JUMPDEST PUSH1 0x40 MLOAD DUP1 SWAP2 SUB SWAP1 REVERT JUMPDEST PUSH1 0x5 PUSH0 CALLER PUSH20 0xFFFFFFFFFFFFFFFFFFFFFFFFFFFFFFFFFFFFFFFF AND PUSH20 0xFFFFFFFFFFFFFFFFFFFFFFFFFFFFFFFFFFFFFFFF AND DUP2 MSTORE PUSH1 0x20 ADD SWAP1 DUP2 MSTORE PUSH1 0x20 ADD PUSH0 KECCAK256 PUSH0 SWAP1 SLOAD SWAP1 PUSH2 0x100 EXP SWAP1 DIV PUSH1 0xFF AND ISZERO PUSH2 0x3D1 JUMPI PUSH1 0x40 MLOAD PUSH32 0x8C379A000000000000000000000000000000000000000000000000000000000 DUP2 MSTORE PUSH1 0x4 ADD PUSH2 0x3C8 SWAP1 PUSH2 0x146F JUMP JUMPDEST PUSH1 0x40 MLOAD DUP1 SWAP2 SUB SWAP1 REVERT JUMPDEST PUSH1 0x1 PUSH1 0x5 PUSH0 CALLER PUSH20 0xFFFFFFFFFFFFFFFFFFFFFFFFFFFFFFFFFFFFFFFF AND PUSH20 0xFFFFFFFFFFFFFFFFFFFFFFFFFFFFFFFFFFFFFFFF AND DUP2 MSTORE PUSH1 0x20 ADD SWAP1 DUP2 MSTORE PUSH1 0x20 ADD PUSH0 KECCAK256 PUSH0 PUSH2 0x100 EXP DUP2 SLOAD DUP2 PUSH1 0xFF MUL NOT AND SWAP1 DUP4 ISZERO ISZERO MUL OR SWAP1 SSTORE POP PUSH1 0x4 PUSH0 DUP3 DUP2 MSTORE PUSH1 0x20 ADD SWAP1 DUP2 MSTORE PUSH1 0x20 ADD PUSH0 KECCAK256 PUSH1 0x3 ADD PUSH0 DUP2 SLOAD DUP1 SWAP3 SWAP2 SWAP1 PUSH2 0x44A SWAP1 PUSH2 0x14BA JUMP JUMPDEST SWAP2 SWAP1 POP SSTORE POP CALLER PUSH20 0xFFFFFFFFFFFFFFFFFFFFFFFFFFFFFFFFFFFFFFFF AND PUSH32 0xC591AA98F3E7D1C3A106F4653E39EBA694FCC03BA3C686DFBEFBF82F6B06BCEA DUP3 PUSH1 0x40 MLOAD PUSH2 0x495 SWAP2 SWAP1 PUSH2 0xF51 JUMP JUMPDEST PUSH1 0x40 MLOAD DUP1 SWAP2 SUB SWAP1 LOG2 POP JUMP JUMPDEST PUSH1 0x2 SLOAD DUP2 JUMP JUMPDEST PUSH0 DUP1 PUSH1 0x2 SLOAD PUSH1 0x3 SLOAD SWAP2 POP SWAP2 POP SWAP1 SWAP2 JUMP JUMPDEST PUSH0 DUP1 PUSH0 SWAP1 SLOAD SWAP1 PUSH2 0x100 EXP SWAP1 DIV PUSH20 0xFFFFFFFFFFFFFFFFFFFFFFFFFFFFFFFFFFFFFFFF AND PUSH20 0xFFFFFFFFFFFFFFFFFFFFFFFFFFFFFFFFFFFFFFFF AND CALLER PUSH20 0xFFFFFFFFFFFFFFFFFFFFFFFFFFFFFFFFFFFFFFFF AND EQ PUSH2 0x545 JUMPI PUSH1 0x40 MLOAD PUSH32 0x8C379A000000000000000000000000000000000000000000000000000000000 DUP2 MSTORE PUSH1 0x4 ADD PUSH2 0x53C SWAP1 PUSH2 0x1571 JUMP JUMPDEST PUSH1 0x40 MLOAD DUP1 SWAP2 SUB SWAP1 REVERT JUMPDEST PUSH0 DUP4 MLOAD GT PUSH2 0x588 JUMPI PUSH1 0x40 MLOAD PUSH32 0x8C379A000000000000000000000000000000000000000000000000000000000 DUP2 MSTORE PUSH1 0x4 ADD PUSH2 0x57F SWAP1 PUSH2 0x15D9 JUMP JUMPDEST PUSH1 0x40 MLOAD DUP1 SWAP2 SUB SWAP1 REVERT JUMPDEST PUSH0 DUP3 MLOAD GT PUSH2 0x5CB JUMPI PUSH1 0x40 MLOAD PUSH32 0x8C379A000000000000000000000000000000000000000000000000000000000 DUP2 MSTORE PUSH1 0x4 ADD PUSH2 0x5C2 SWAP1 PUSH2 0x1667 JUMP JUMPDEST PUSH1 0x40 MLOAD DUP1 SWAP2 SUB SWAP1 REVERT JUMPDEST PUSH1 0x1 PUSH0 DUP2 SLOAD DUP1 SWAP3 SWAP2 SWAP1 PUSH2 0x5DD SWAP1 PUSH2 0x14BA JUMP JUMPDEST SWAP2 SWAP1 POP SSTORE POP PUSH1 0x40 MLOAD DUP1 PUSH1 0x80 ADD PUSH1 0x40 MSTORE DUP1 DUP5 DUP2 MSTORE PUSH1 0x20 ADD PUSH1 0x1 SLOAD DUP2 MSTORE PUSH1 0x20 ADD DUP4 DUP2 MSTORE PUSH1 0x20 ADD PUSH0 DUP2 MSTORE POP PUSH1 0x4 PUSH0 PUSH1 0x1 SLOAD DUP2 MSTORE PUSH1 0x20 ADD SWAP1 DUP2 MSTORE PUSH1 0x20 ADD PUSH0 KECCAK256 PUSH0 DUP3 ADD MLOAD DUP2 PUSH0 ADD SWAP1 DUP2 PUSH2 0x62B SWAP2 SWAP1 PUSH2 0x187F JUMP JUMPDEST POP PUSH1 0x20 DUP3 ADD MLOAD DUP2 PUSH1 0x1 ADD SSTORE PUSH1 0x40 DUP3 ADD MLOAD DUP2 PUSH1 0x2 ADD SWAP1 DUP2 PUSH2 0x64B SWAP2 SWAP1 PUSH2 0x187F JUMP JUMPDEST POP PUSH1 0x60 DUP3 ADD MLOAD DUP2 PUSH1 0x3 ADD SSTORE SWAP1 POP POP PUSH32 0xE64F834082661DD9ED89427B87EDB6270FD6DAD17198B0938F0EDD058914C87F PUSH1 0x1 SLOAD DUP5 DUP5 PUSH1 0x40 MLOAD PUSH2 0x68E SWAP4 SWAP3 SWAP2 SWAP1 PUSH2 0x194E JUMP JUMPDEST PUSH1 0x40 MLOAD DUP1 SWAP2 SUB SWAP1 LOG1 PUSH1 0x1 SLOAD SWAP1 POP SWAP3 SWAP2 POP POP JUMP JUMPDEST PUSH1 0x4 PUSH1 0x20 MSTORE DUP1 PUSH0 MSTORE PUSH1 0x40 PUSH0 KECCAK256 PUSH0 SWAP2 POP SWAP1 POP DUP1 PUSH0 ADD DUP1 SLOAD PUSH2 0x6C0 SWAP1 PUSH2 0x16B2 JUMP JUMPDEST DUP1 PUSH1 0x1F ADD PUSH1 0x20 DUP1 SWAP2 DIV MUL PUSH1 0x20 ADD PUSH1 0x40 MLOAD SWAP1 DUP2 ADD PUSH1 0x40 MSTORE DUP1 SWAP3 SWAP2 SWAP1 DUP2 DUP2 MSTORE PUSH1 0x20 ADD DUP3 DUP1 SLOAD PUSH2 0x6EC SWAP1 PUSH2 0x16B2 JUMP JUMPDEST DUP1 ISZERO PUSH2 0x737 JUMPI DUP1 PUSH1 0x1F LT PUSH2 0x70E JUMPI PUSH2 0x100 DUP1 DUP4 SLOAD DIV MUL DUP4 MSTORE SWAP2 PUSH1 0x20 ADD SWAP2 PUSH2 0x737 JUMP JUMPDEST DUP3 ADD SWAP2 SWAP1 PUSH0 MSTORE PUSH1 0x20 PUSH0 KECCAK256 SWAP1 JUMPDEST DUP2 SLOAD DUP2 MSTORE SWAP1 PUSH1 0x1 ADD SWAP1 PUSH1 0x20 ADD DUP1 DUP4 GT PUSH2 0x71A JUMPI DUP3 SWAP1 SUB PUSH1 0x1F AND DUP3 ADD SWAP2 JUMPDEST POP POP POP POP POP SWAP1 DUP1 PUSH1 0x1 ADD SLOAD SWAP1 DUP1 PUSH1 0x2 ADD DUP1 SLOAD PUSH2 0x752 SWAP1 PUSH2 0x16B2 JUMP JUMPDEST DUP1 PUSH1 0x1F ADD PUSH1 0x20 DUP1 SWAP2 DIV MUL PUSH1 0x20 ADD PUSH1 0x40 MLOAD SWAP1 DUP2 ADD PUSH1 0x40 MSTORE DUP1 SWAP3 SWAP2 SWAP1 DUP2 DUP2 MSTORE PUSH1 0x20 ADD DUP3 DUP1 SLOAD PUSH2 0x77E SWAP1 PUSH2 0x16B2 JUMP JUMPDEST DUP1 ISZERO PUSH2 0x7C9 JUMPI DUP1 PUSH1 0x1F LT PUSH2 0x7A0 JUMPI PUSH2 0x100 DUP1 DUP4 SLOAD DIV MUL DUP4 MSTORE SWAP2 PUSH1 0x20 ADD SWAP2 PUSH2 0x7C9 JUMP JUMPDEST DUP3 ADD SWAP2 SWAP1 PUSH0 MSTORE PUSH1 0x20 PUSH0 KECCAK256 SWAP1 JUMPDEST DUP2 SLOAD DUP2 MSTORE SWAP1 PUSH1 0x1 ADD SWAP1 PUSH1 0x20 ADD DUP1 DUP4 GT PUSH2 0x7AC JUMPI DUP3 SWAP1 SUB PUSH1 0x1F AND DUP3 ADD SWAP2 JUMPDEST POP POP POP POP POP SWAP1 DUP1 PUSH1 0x3 ADD SLOAD SWAP1 POP DUP5 JUMP JUMPDEST PUSH1 0x60 PUSH0 PUSH1 0x60 PUSH0 DUP1 DUP6 GT DUP1 ISZERO PUSH2 0x7F0 JUMPI POP PUSH1 0x1 SLOAD DUP6 GT ISZERO JUMPDEST PUSH2 0x82F JUMPI PUSH1 0x40 MLOAD PUSH32 0x8C379A000000000000000000000000000000000000000000000000000000000 DUP2 MSTORE PUSH1 0x4 ADD PUSH2 0x826 SWAP1 PUSH2 0x1407 JUMP JUMPDEST PUSH1 0x40 MLOAD DUP1 SWAP2 SUB SWAP1 REVERT JUMPDEST PUSH0 PUSH1 0x4 PUSH0 DUP8 DUP2 MSTORE PUSH1 0x20 ADD SWAP1 DUP2 MSTORE PUSH1 0x20 ADD PUSH0 KECCAK256 PUSH1 0x40 MLOAD DUP1 PUSH1 0x80 ADD PUSH1 0x40 MSTORE SWAP1 DUP2 PUSH0 DUP3 ADD DUP1 SLOAD PUSH2 0x85B SWAP1 PUSH2 0x16B2 JUMP JUMPDEST DUP1 PUSH1 0x1F ADD PUSH1 0x20 DUP1 SWAP2 DIV MUL PUSH1 0x20 ADD PUSH1 0x40 MLOAD SWAP1 DUP2 ADD PUSH1 0x40 MSTORE DUP1 SWAP3 SWAP2 SWAP1 DUP2 DUP2 MSTORE PUSH1 0x20 ADD DUP3 DUP1 SLOAD PUSH2 0x887 SWAP1 PUSH2 0x16B2 JUMP JUMPDEST DUP1 ISZERO PUSH2 0x8D2 JUMPI DUP1 PUSH1 0x1F LT PUSH2 0x8A9 JUMPI PUSH2 0x100 DUP1 DUP4 SLOAD DIV MUL DUP4 MSTORE SWAP2 PUSH1 0x20 ADD SWAP2 PUSH2 0x8D2 JUMP JUMPDEST DUP3 ADD SWAP2 SWAP1 PUSH0 MSTORE PUSH1 0x20 PUSH0 KECCAK256 SWAP1 JUMPDEST DUP2 SLOAD DUP2 MSTORE SWAP1 PUSH1 0x1 ADD SWAP1 PUSH1 0x20 ADD DUP1 DUP4 GT PUSH2 0x8B5 JUMPI DUP3 SWAP1 SUB PUSH1 0x1F AND DUP3 ADD SWAP2 JUMPDEST POP POP POP POP POP DUP2 MSTORE PUSH1 0x20 ADD PUSH1 0x1 DUP3 ADD SLOAD DUP2 MSTORE PUSH1 0x20 ADD PUSH1 0x2 DUP3 ADD DUP1 SLOAD PUSH2 0x8F5 SWAP1 PUSH2 0x16B2 JUMP JUMPDEST DUP1 PUSH1 0x1F ADD PUSH1 0x20 DUP1 SWAP2 DIV MUL PUSH1 0x20 ADD PUSH1 0x40 MLOAD SWAP1 DUP2 ADD PUSH1 0x40 MSTORE DUP1 SWAP3 SWAP2 SWAP1 DUP2 DUP2 MSTORE PUSH1 0x20 ADD DUP3 DUP1 SLOAD PUSH2 0x921 SWAP1 PUSH2 0x16B2 JUMP JUMPDEST DUP1 ISZERO PUSH2 0x96C JUMPI DUP1 PUSH1 0x1F LT PUSH2 0x943 JUMPI PUSH2 0x100 DUP1 DUP4 SLOAD DIV MUL DUP4 MSTORE SWAP2 PUSH1 0x20 ADD SWAP2 PUSH2 0x96C JUMP JUMPDEST DUP3 ADD SWAP2 SWAP1 PUSH0 MSTORE PUSH1 0x20 PUSH0 KECCAK256 SWAP1 JUMPDEST DUP2 SLOAD DUP2 MSTORE SWAP1 PUSH1 0x1 ADD SWAP1 PUSH1 0x20 ADD DUP1 DUP4 GT PUSH2 0x94F JUMPI DUP3 SWAP1 SUB PUSH1 0x1F AND DUP3 ADD SWAP2 JUMPDEST POP POP POP POP POP DUP2 MSTORE PUSH1 0x20 ADD PUSH1 0x3 DUP3 ADD SLOAD DUP2 MSTORE POP POP SWAP1 POP DUP1 PUSH0 ADD MLOAD DUP2 PUSH1 0x20 ADD MLOAD DUP3 PUSH1 0x40 ADD MLOAD DUP4 PUSH1 0x60 ADD MLOAD SWAP5 POP SWAP5 POP SWAP5 POP SWAP5 POP POP SWAP2 SWAP4 POP SWAP2 SWAP4 JUMP JUMPDEST PUSH1 0x1 SLOAD DUP2 JUMP JUMPDEST PUSH1 0x3 SLOAD DUP2 JUMP JUMPDEST PUSH1 0x60 DUP1 PUSH0 DUP1 PUSH0 SWAP1 SLOAD SWAP1 PUSH2 0x100 EXP SWAP1 DIV PUSH20 0xFFFFFFFFFFFFFFFFFFFFFFFFFFFFFFFFFFFFFFFF AND PUSH20 0xFFFFFFFFFFFFFFFFFFFFFFFFFFFFFFFFFFFFFFFF AND CALLER PUSH20 0xFFFFFFFFFFFFFFFFFFFFFFFFFFFFFFFFFFFFFFFF AND EQ PUSH2 0xA42 JUMPI PUSH1 0x40 MLOAD PUSH32 0x8C379A000000000000000000000000000000000000000000000000000000000 DUP2 MSTORE PUSH1 0x4 ADD PUSH2 0xA39 SWAP1 PUSH2 0x1571 JUMP JUMPDEST PUSH1 0x40 MLOAD DUP1 SWAP2 SUB SWAP1 REVERT JUMPDEST PUSH1 0x3 SLOAD TIMESTAMP GT PUSH2 0xA86 JUMPI PUSH1 0x40 MLOAD PUSH32 0x8C379A000000000000000000000000000000000000000000000000000000000 DUP2 MSTORE PUSH1 0x4 ADD PUSH2 0xA7D SWAP1 PUSH2 0x19DB JUMP JUMPDEST PUSH1 0x40 MLOAD DUP1 SWAP2 SUB SWAP1 REVERT JUMPDEST PUSH0 DUP1 PUSH0 PUSH1 0x1 SWAP1 POP JUMPDEST PUSH1 0x1 SLOAD DUP2 GT PUSH2 0xAE1 JUMPI DUP3 PUSH1 0x4 PUSH0 DUP4 DUP2 MSTORE PUSH1 0x20 ADD SWAP1 DUP2 MSTORE PUSH1 0x20 ADD PUSH0 KECCAK256 PUSH1 0x3 ADD SLOAD GT ISZERO PUSH2 0xACE JUMPI PUSH1 0x4 PUSH0 DUP3 DUP2 MSTORE PUSH1 0x20 ADD SWAP1 DUP2 MSTORE PUSH1 0x20 ADD PUSH0 KECCAK256 PUSH1 0x3 ADD SLOAD SWAP3 POP DUP1 SWAP2 POP JUMPDEST DUP1 DUP1 PUSH2 0xAD9 SWAP1 PUSH2 0x14BA JUMP JUMPDEST SWAP2 POP POP PUSH2 0xA8E JUMP JUMPDEST POP PUSH0 DUP2 SUB PUSH2 0xB24 JUMPI PUSH1 0x40 MLOAD PUSH32 0x8C379A000000000000000000000000000000000000000000000000000000000 DUP2 MSTORE PUSH1 0x4 ADD PUSH2 0xB1B SWAP1 PUSH2 0x1A43 JUMP JUMPDEST PUSH1 0x40 MLOAD DUP1 SWAP2 SUB SWAP1 REVERT JUMPDEST PUSH0 PUSH1 0x4 PUSH0 DUP4 DUP2 MSTORE PUSH1 0x20 ADD SWAP1 DUP2 MSTORE PUSH1 0x20 ADD PUSH0 KECCAK256 PUSH1 0x40 MLOAD DUP1 PUSH1 0x80 ADD PUSH1 0x40 MSTORE SWAP1 DUP2 PUSH0 DUP3 ADD DUP1 SLOAD PUSH2 0xB50 SWAP1 PUSH2 0x16B2 JUMP JUMPDEST DUP1 PUSH1 0x1F ADD PUSH1 0x20 DUP1 SWAP2 DIV MUL PUSH1 0x20 ADD PUSH1 0x40 MLOAD SWAP1 DUP2 ADD PUSH1 0x40 MSTORE DUP1 SWAP3 SWAP2 SWAP1 DUP2 DUP2 MSTORE PUSH1 0x20 ADD DUP3 DUP1 SLOAD PUSH2 0xB7C SWAP1 PUSH2 0x16B2 JUMP JUMPDEST DUP1 ISZERO PUSH2 0xBC7 JUMPI DUP1 PUSH1 0x1F LT PUSH2 0xB9E JUMPI PUSH2 0x100 DUP1 DUP4 SLOAD DIV MUL DUP4 MSTORE SWAP2 PUSH1 0x20 ADD SWAP2 PUSH2 0xBC7 JUMP JUMPDEST DUP3 ADD SWAP2 SWAP1 PUSH0 MSTORE PUSH1 0x20 PUSH0 KECCAK256 SWAP1 JUMPDEST DUP2 SLOAD DUP2 MSTORE SWAP1 PUSH1 0x1 ADD SWAP1 PUSH1 0x20 ADD DUP1 DUP4 GT PUSH2 0xBAA JUMPI DUP3 SWAP1 SUB PUSH1 0x1F AND DUP3 ADD SWAP2 JUMPDEST POP POP POP POP POP DUP2 MSTORE PUSH1 0x20 ADD PUSH1 0x1 DUP3 ADD SLOAD DUP2 MSTORE PUSH1 0x20 ADD PUSH1 0x2 DUP3 ADD DUP1 SLOAD PUSH2 0xBEA SWAP1 PUSH2 0x16B2 JUMP JUMPDEST DUP1 PUSH1 0x1F ADD PUSH1 0x20 DUP1 SWAP2 DIV MUL PUSH1 0x20 ADD PUSH1 0x40 MLOAD SWAP1 DUP2 ADD PUSH1 0x40 MSTORE DUP1 SWAP3 SWAP2 SWAP1 DUP2 DUP2 MSTORE PUSH1 0x20 ADD DUP3 DUP1 SLOAD PUSH2 0xC16 SWAP1 PUSH2 0x16B2 JUMP JUMPDEST DUP1 ISZERO PUSH2 0xC61 JUMPI DUP1 PUSH1 0x1F LT PUSH2 0xC38 JUMPI PUSH2 0x100 DUP1 DUP4 SLOAD DIV MUL DUP4 MSTORE SWAP2 PUSH1 0x20 ADD SWAP2 PUSH2 0xC61 JUMP JUMPDEST DUP3 ADD SWAP2 SWAP1 PUSH0 MSTORE PUSH1 0x20 PUSH0 KECCAK256 SWAP1 JUMPDEST DUP2 SLOAD DUP2 MSTORE SWAP1 PUSH1 0x1 ADD SWAP1 PUSH1 0x20 ADD DUP1 DUP4 GT PUSH2 0xC44 JUMPI DUP3 SWAP1 SUB PUSH1 0x1F AND DUP3 ADD SWAP2 JUMPDEST POP POP POP POP POP DUP2 MSTORE PUSH1 0x20 ADD PUSH1 0x3 DUP3 ADD SLOAD DUP2 MSTORE POP POP SWAP1 POP DUP1 PUSH0 ADD MLOAD DUP2 PUSH1 0x40 ADD MLOAD DUP3 PUSH1 0x60 ADD MLOAD SWAP6 POP SWAP6 POP SWAP6 POP POP POP POP SWAP1 SWAP2 SWAP3 JUMP JUMPDEST PUSH1 0x5 PUSH1 0x20 MSTORE DUP1 PUSH0 MSTORE PUSH1 0x40 PUSH0 KECCAK256 PUSH0 SWAP2 POP SLOAD SWAP1 PUSH2 0x100 EXP SWAP1 DIV PUSH1 0xFF AND DUP2 JUMP JUMPDEST PUSH0 PUSH1 0x5 PUSH0 CALLER PUSH20 0xFFFFFFFFFFFFFFFFFFFFFFFFFFFFFFFFFFFFFFFF AND PUSH20 0xFFFFFFFFFFFFFFFFFFFFFFFFFFFFFFFFFFFFFFFF AND DUP2 MSTORE PUSH1 0x20 ADD SWAP1 DUP2 MSTORE PUSH1 0x20 ADD PUSH0 KECCAK256 PUSH0 SWAP1 SLOAD SWAP1 PUSH2 0x100 EXP SWAP1 DIV PUSH1 0xFF AND SWAP1 POP SWAP1 JUMP JUMPDEST PUSH0 DUP1 SLOAD SWAP1 PUSH2 0x100 EXP SWAP1 DIV PUSH20 0xFFFFFFFFFFFFFFFFFFFFFFFFFFFFFFFFFFFFFFFF AND DUP2 JUMP JUMPDEST PUSH0 DUP1 SLOAD SWAP1 PUSH2 0x100 EXP SWAP1 DIV PUSH20 0xFFFFFFFFFFFFFFFFFFFFFFFFFFFFFFFFFFFFFFFF AND PUSH20 0xFFFFFFFFFFFFFFFFFFFFFFFFFFFFFFFFFFFFFFFF AND CALLER PUSH20 0xFFFFFFFFFFFFFFFFFFFFFFFFFFFFFFFFFFFFFFFF AND EQ PUSH2 0xDAF JUMPI PUSH1 0x40 MLOAD PUSH32 0x8C379A000000000000000000000000000000000000000000000000000000000 DUP2 MSTORE PUSH1 0x4 ADD PUSH2 0xDA6 SWAP1 PUSH2 0x1571 JUMP JUMPDEST PUSH1 0x40 MLOAD DUP1 SWAP2 SUB SWAP1 REVERT JUMPDEST PUSH0 PUSH1 0x2 SLOAD EQ DUP1 ISZERO PUSH2 0xDC1 JUMPI POP PUSH0 PUSH1 0x3 SLOAD EQ JUMPDEST PUSH2 0xE00 JUMPI PUSH1 0x40 MLOAD PUSH32 0x8C379A000000000000000000000000000000000000000000000000000000000 DUP2 MSTORE PUSH1 0x4 ADD PUSH2 0xDF7 SWAP1 PUSH2 0x1AAB JUMP JUMPDEST PUSH1 0x40 MLOAD DUP1 SWAP2 SUB SWAP1 REVERT JUMPDEST TIMESTAMP DUP3 GT PUSH2 0xE42 JUMPI PUSH1 0x40 MLOAD PUSH32 0x8C379A000000000000000000000000000000000000000000000000000000000 DUP2 MSTORE PUSH1 0x4 ADD PUSH2 0xE39 SWAP1 PUSH2 0x1B13 JUMP JUMPDEST PUSH1 0x40 MLOAD DUP1 SWAP2 SUB SWAP1 REVERT JUMPDEST DUP2 DUP2 GT PUSH2 0xE84 JUMPI PUSH1 0x40 MLOAD PUSH32 0x8C379A000000000000000000000000000000000000000000000000000000000 DUP2 MSTORE PUSH1 0x4 ADD PUSH2 0xE7B SWAP1 PUSH2 0x1BA1 JUMP JUMPDEST PUSH1 0x40 MLOAD DUP1 SWAP2 SUB SWAP1 REVERT JUMPDEST DUP2 PUSH1 0x2 DUP2 SWAP1 SSTORE POP DUP1 PUSH1 0x3 DUP2 SWAP1 SSTORE POP PUSH32 0x5A6072DB5FCFD686F9C78D6F55FA1AC09576848E350673F1C3EC3C8F433346A3 PUSH1 0x2 SLOAD PUSH1 0x3 SLOAD PUSH1 0x40 MLOAD PUSH2 0xEC7 SWAP3 SWAP2 SWAP1 PUSH2 0xF6A JUMP JUMPDEST PUSH1 0x40 MLOAD DUP1 SWAP2 SUB SWAP1 LOG1 POP POP JUMP JUMPDEST PUSH0 PUSH1 0x40 MLOAD SWAP1 POP SWAP1 JUMP JUMPDEST PUSH0 DUP1 REVERT JUMPDEST PUSH0 DUP1 REVERT JUMPDEST PUSH0 DUP2 SWAP1 POP SWAP2 SWAP1 POP JUMP JUMPDEST PUSH2 0xEF6 DUP2 PUSH2 0xEE4 JUMP JUMPDEST DUP2 EQ PUSH2 0xF00 JUMPI PUSH0 DUP1 REVERT JUMPDEST POP JUMP JUMPDEST PUSH0 DUP2 CALLDATALOAD SWAP1 POP PUSH2 0xF11 DUP2 PUSH2 0xEED JUMP JUMPDEST SWAP3 SWAP2 POP POP JUMP JUMPDEST PUSH0 PUSH1 0x20 DUP3 DUP5 SUB SLT ISZERO PUSH2 0xF2C JUMPI PUSH2 0xF2B PUSH2 0xEDC JUMP JUMPDEST JUMPDEST PUSH0 PUSH2 0xF39 DUP5 DUP3 DUP6 ADD PUSH2 0xF03 JUMP JUMPDEST SWAP2 POP POP SWAP3 SWAP2 POP POP JUMP JUMPDEST PUSH2 0xF4B DUP2 PUSH2 0xEE4 JUMP JUMPDEST DUP3 MSTORE POP POP JUMP JUMPDEST PUSH0 PUSH1 0x20 DUP3 ADD SWAP1 POP PUSH2 0xF64 PUSH0 DUP4 ADD DUP5 PUSH2 0xF42 JUMP JUMPDEST SWAP3 SWAP2 POP POP JUMP JUMPDEST PUSH0 PUSH1 0x40 DUP3 ADD SWAP1 POP PUSH2 0xF7D PUSH0 DUP4 ADD DUP6 PUSH2 0xF42 JUMP JUMPDEST PUSH2 0xF8A PUSH1 0x20 DUP4 ADD DUP5 PUSH2 0xF42 JUMP JUMPDEST SWAP4 SWAP3 POP POP POP JUMP JUMPDEST PUSH0 DUP1 REVERT JUMPDEST PUSH0 DUP1 REVERT JUMPDEST PUSH0 PUSH1 0x1F NOT PUSH1 0x1F DUP4 ADD AND SWAP1 POP SWAP2 SWAP1 POP JUMP JUMPDEST PUSH32 0x4E487B7100000000000000000000000000000000000000000000000000000000 PUSH0 MSTORE PUSH1 0x41 PUSH1 0x4 MSTORE PUSH1 0x24 PUSH0 REVERT JUMPDEST PUSH2 0xFDF DUP3 PUSH2 0xF99 JUMP JUMPDEST DUP2 ADD DUP2 DUP2 LT PUSH8 0xFFFFFFFFFFFFFFFF DUP3 GT OR ISZERO PUSH2 0xFFE JUMPI PUSH2 0xFFD PUSH2 0xFA9 JUMP JUMPDEST JUMPDEST DUP1 PUSH1 0x40 MSTORE POP POP POP JUMP JUMPDEST PUSH0 PUSH2 0x1010 PUSH2 0xED3 JUMP JUMPDEST SWAP1 POP PUSH2 0x101C DUP3 DUP3 PUSH2 0xFD6 JUMP JUMPDEST SWAP2 SWAP1 POP JUMP JUMPDEST PUSH0 PUSH8 0xFFFFFFFFFFFFFFFF DUP3 GT ISZERO PUSH2 0x103B JUMPI PUSH2 0x103A PUSH2 0xFA9 JUMP JUMPDEST JUMPDEST PUSH2 0x1044 DUP3 PUSH2 0xF99 JUMP JUMPDEST SWAP1 POP PUSH1 0x20 DUP2 ADD SWAP1 POP SWAP2 SWAP1 POP JUMP JUMPDEST DUP3 DUP2 DUP4 CALLDATACOPY PUSH0 DUP4 DUP4 ADD MSTORE POP POP POP JUMP JUMPDEST PUSH0 PUSH2 0x1071 PUSH2 0x106C DUP5 PUSH2 0x1021 JUMP JUMPDEST PUSH2 0x1007 JUMP JUMPDEST SWAP1 POP DUP3 DUP2 MSTORE PUSH1 0x20 DUP2 ADD DUP5 DUP5 DUP5 ADD GT ISZERO PUSH2 0x108D JUMPI PUSH2 0x108C PUSH2 0xF95 JUMP JUMPDEST JUMPDEST PUSH2 0x1098 DUP5 DUP3 DUP6 PUSH2 0x1051 JUMP JUMPDEST POP SWAP4 SWAP3 POP POP POP JUMP JUMPDEST PUSH0 DUP3 PUSH1 0x1F DUP4 ADD SLT PUSH2 0x10B4 JUMPI PUSH2 0x10B3 PUSH2 0xF91 JUMP JUMPDEST JUMPDEST DUP2 CALLDATALOAD PUSH2 0x10C4 DUP5 DUP3 PUSH1 0x20 DUP7 ADD PUSH2 0x105F JUMP JUMPDEST SWAP2 POP POP SWAP3 SWAP2 POP POP JUMP JUMPDEST PUSH0 DUP1 PUSH1 0x40 DUP4 DUP6 SUB SLT ISZERO PUSH2 0x10E3 JUMPI PUSH2 0x10E2 PUSH2 0xEDC JUMP JUMPDEST JUMPDEST PUSH0 DUP4 ADD CALLDATALOAD PUSH8 0xFFFFFFFFFFFFFFFF DUP2 GT ISZERO PUSH2 0x1100 JUMPI PUSH2 0x10FF PUSH2 0xEE0 JUMP JUMPDEST JUMPDEST PUSH2 0x110C DUP6 DUP3 DUP7 ADD PUSH2 0x10A0 JUMP JUMPDEST SWAP3 POP POP PUSH1 0x20 DUP4 ADD CALLDATALOAD PUSH8 0xFFFFFFFFFFFFFFFF DUP2 GT ISZERO PUSH2 0x112D JUMPI PUSH2 0x112C PUSH2 0xEE0 JUMP JUMPDEST JUMPDEST PUSH2 0x1139 DUP6 DUP3 DUP7 ADD PUSH2 0x10A0 JUMP JUMPDEST SWAP2 POP POP SWAP3 POP SWAP3 SWAP1 POP JUMP JUMPDEST PUSH0 DUP2 MLOAD SWAP1 POP SWAP2 SWAP1 POP JUMP JUMPDEST PUSH0 DUP3 DUP3 MSTORE PUSH1 0x20 DUP3 ADD SWAP1 POP SWAP3 SWAP2 POP POP JUMP JUMPDEST DUP3 DUP2 DUP4 MCOPY PUSH0 DUP4 DUP4 ADD MSTORE POP POP POP JUMP JUMPDEST PUSH0 PUSH2 0x1175 DUP3 PUSH2 0x1143 JUMP JUMPDEST PUSH2 0x117F DUP2 DUP6 PUSH2 0x114D JUMP JUMPDEST SWAP4 POP PUSH2 0x118F DUP2 DUP6 PUSH1 0x20 DUP7 ADD PUSH2 0x115D JUMP JUMPDEST PUSH2 0x1198 DUP2 PUSH2 0xF99 JUMP JUMPDEST DUP5 ADD SWAP2 POP POP SWAP3 SWAP2 POP POP JUMP JUMPDEST PUSH0 PUSH1 0x80 DUP3 ADD SWAP1 POP DUP2 DUP2 SUB PUSH0 DUP4 ADD MSTORE PUSH2 0x11BB DUP2 DUP8 PUSH2 0x116B JUMP JUMPDEST SWAP1 POP PUSH2 0x11CA PUSH1 0x20 DUP4 ADD DUP7 PUSH2 0xF42 JUMP JUMPDEST DUP2 DUP2 SUB PUSH1 0x40 DUP4 ADD MSTORE PUSH2 0x11DC DUP2 DUP6 PUSH2 0x116B JUMP JUMPDEST SWAP1 POP PUSH2 0x11EB PUSH1 0x60 DUP4 ADD DUP5 PUSH2 0xF42 JUMP JUMPDEST SWAP6 SWAP5 POP POP POP POP POP JUMP JUMPDEST PUSH0 PUSH1 0x60 DUP3 ADD SWAP1 POP DUP2 DUP2 SUB PUSH0 DUP4 ADD MSTORE PUSH2 0x120C DUP2 DUP7 PUSH2 0x116B JUMP JUMPDEST SWAP1 POP DUP2 DUP2 SUB PUSH1 0x20 DUP4 ADD MSTORE PUSH2 0x1220 DUP2 DUP6 PUSH2 0x116B JUMP JUMPDEST SWAP1 POP PUSH2 0x122F PUSH1 0x40 DUP4 ADD DUP5 PUSH2 0xF42 JUMP JUMPDEST SWAP5 SWAP4 POP POP POP POP JUMP JUMPDEST PUSH0 PUSH20 0xFFFFFFFFFFFFFFFFFFFFFFFFFFFFFFFFFFFFFFFF DUP3 AND SWAP1 POP SWAP2 SWAP1 POP JUMP JUMPDEST PUSH0 PUSH2 0x1260 DUP3 PUSH2 0x1237 JUMP JUMPDEST SWAP1 POP SWAP2 SWAP1 POP JUMP JUMPDEST PUSH2 0x1270 DUP2 PUSH2 0x1256 JUMP JUMPDEST DUP2 EQ PUSH2 0x127A JUMPI PUSH0 DUP1 REVERT JUMPDEST POP JUMP JUMPDEST PUSH0 DUP2 CALLDATALOAD SWAP1 POP PUSH2 0x128B DUP2 PUSH2 0x1267 JUMP JUMPDEST SWAP3 SWAP2 POP POP JUMP JUMPDEST PUSH0 PUSH1 0x20 DUP3 DUP5 SUB SLT ISZERO PUSH2 0x12A6 JUMPI PUSH2 0x12A5 PUSH2 0xEDC JUMP JUMPDEST JUMPDEST PUSH0 PUSH2 0x12B3 DUP5 DUP3 DUP6 ADD PUSH2 0x127D JUMP JUMPDEST SWAP2 POP POP SWAP3 SWAP2 POP POP JUMP JUMPDEST PUSH0 DUP2 ISZERO ISZERO SWAP1 POP SWAP2 SWAP1 POP JUMP JUMPDEST PUSH2 0x12D0 DUP2 PUSH2 0x12BC JUMP JUMPDEST DUP3 MSTORE POP POP JUMP JUMPDEST PUSH0 PUSH1 0x20 DUP3 ADD SWAP1 POP PUSH2 0x12E9 PUSH0 DUP4 ADD DUP5 PUSH2 0x12C7 JUMP JUMPDEST SWAP3 SWAP2 POP POP JUMP JUMPDEST PUSH2 0x12F8 DUP2 PUSH2 0x1256 JUMP JUMPDEST DUP3 MSTORE POP POP JUMP JUMPDEST PUSH0 PUSH1 0x20 DUP3 ADD SWAP1 POP PUSH2 0x1311 PUSH0 DUP4 ADD DUP5 PUSH2 0x12EF JUMP JUMPDEST SWAP3 SWAP2 POP POP JUMP JUMPDEST PUSH0 DUP1 PUSH1 0x40 DUP4 DUP6 SUB SLT ISZERO PUSH2 0x132D JUMPI PUSH2 0x132C PUSH2 0xEDC JUMP JUMPDEST JUMPDEST PUSH0 PUSH2 0x133A DUP6 DUP3 DUP7 ADD PUSH2 0xF03 JUMP JUMPDEST SWAP3 POP POP PUSH1 0x20 PUSH2 0x134B DUP6 DUP3 DUP7 ADD PUSH2 0xF03 JUMP JUMPDEST SWAP2 POP POP SWAP3 POP SWAP3 SWAP1 POP JUMP JUMPDEST PUSH32 0x566F74696E67206973206E6F74206163746976652E0000000000000000000000 PUSH0 DUP3 ADD MSTORE POP JUMP JUMPDEST PUSH0 PUSH2 0x1389 PUSH1 0x15 DUP4 PUSH2 0x114D JUMP JUMPDEST SWAP2 POP PUSH2 0x1394 DUP3 PUSH2 0x1355 JUMP JUMPDEST PUSH1 0x20 DUP3 ADD SWAP1 POP SWAP2 SWAP1 POP JUMP JUMPDEST PUSH0 PUSH1 0x20 DUP3 ADD SWAP1 POP DUP2 DUP2 SUB PUSH0 DUP4 ADD MSTORE PUSH2 0x13B6 DUP2 PUSH2 0x137D JUMP JUMPDEST SWAP1 POP SWAP2 SWAP1 POP JUMP JUMPDEST PUSH32 0x496E76616C69642043616E6469646174652049442E0000000000000000000000 PUSH0 DUP3 ADD MSTORE POP JUMP JUMPDEST PUSH0 PUSH2 0x13F1 PUSH1 0x15 DUP4 PUSH2 0x114D JUMP JUMPDEST SWAP2 POP PUSH2 0x13FC DUP3 PUSH2 0x13BD JUMP JUMPDEST PUSH1 0x20 DUP3 ADD SWAP1 POP SWAP2 SWAP1 POP JUMP JUMPDEST PUSH0 PUSH1 0x20 DUP3 ADD SWAP1 POP DUP2 DUP2 SUB PUSH0 DUP4 ADD MSTORE PUSH2 0x141E DUP2 PUSH2 0x13E5 JUMP JUMPDEST SWAP1 POP SWAP2 SWAP1 POP JUMP JUMPDEST PUSH32 0x596F75206861766520616C726561647920766F7465642E000000000000000000 PUSH0 DUP3 ADD MSTORE POP JUMP JUMPDEST PUSH0 PUSH2 0x1459 PUSH1 0x17 DUP4 PUSH2 0x114D JUMP JUMPDEST SWAP2 POP PUSH2 0x1464 DUP3 PUSH2 0x1425 JUMP JUMPDEST PUSH1 0x20 DUP3 ADD SWAP1 POP SWAP2 SWAP1 POP JUMP JUMPDEST PUSH0 PUSH1 0x20 DUP3 ADD SWAP1 POP DUP2 DUP2 SUB PUSH0 DUP4 ADD MSTORE PUSH2 0x1486 DUP2 PUSH2 0x144D JUMP JUMPDEST SWAP1 POP SWAP2 SWAP1 POP JUMP JUMPDEST PUSH32 0x4E487B7100000000000000000000000000000000000000000000000000000000 PUSH0 MSTORE PUSH1 0x11 PUSH1 0x4 MSTORE PUSH1 0x24 PUSH0 REVERT JUMPDEST PUSH0 PUSH2 0x14C4 DUP3 PUSH2 0xEE4 JUMP JUMPDEST SWAP2 POP PUSH32 0xFFFFFFFFFFFFFFFFFFFFFFFFFFFFFFFFFFFFFFFFFFFFFFFFFFFFFFFFFFFFFFFF DUP3 SUB PUSH2 0x14F6 JUMPI PUSH2 0x14F5 PUSH2 0x148D JUMP JUMPDEST JUMPDEST PUSH1 0x1 DUP3 ADD SWAP1 POP SWAP2 SWAP1 POP JUMP JUMPDEST PUSH32 0x4F6E6C79206F776E65722063616E20706572666F726D20746869732061637469 PUSH0 DUP3 ADD MSTORE PUSH32 0x6F6E2E0000000000000000000000000000000000000000000000000000000000 PUSH1 0x20 DUP3 ADD MSTORE POP JUMP JUMPDEST PUSH0 PUSH2 0x155B PUSH1 0x23 DUP4 PUSH2 0x114D JUMP JUMPDEST SWAP2 POP PUSH2 0x1566 DUP3 PUSH2 0x1501 JUMP JUMPDEST PUSH1 0x40 DUP3 ADD SWAP1 POP SWAP2 SWAP1 POP JUMP JUMPDEST PUSH0 PUSH1 0x20 DUP3 ADD SWAP1 POP DUP2 DUP2 SUB PUSH0 DUP4 ADD MSTORE PUSH2 0x1588 DUP2 PUSH2 0x154F JUMP JUMPDEST SWAP1 POP SWAP2 SWAP1 POP JUMP JUMPDEST PUSH32 0x43616E646964617465204E616D652063616E6E6F7420626520656D7074792E00 PUSH0 DUP3 ADD MSTORE POP JUMP JUMPDEST PUSH0 PUSH2 0x15C3 PUSH1 0x1F DUP4 PUSH2 0x114D JUMP JUMPDEST SWAP2 POP PUSH2 0x15CE DUP3 PUSH2 0x158F JUMP JUMPDEST PUSH1 0x20 DUP3 ADD SWAP1 POP SWAP2 SWAP1 POP JUMP JUMPDEST PUSH0 PUSH1 0x20 DUP3 ADD SWAP1 POP DUP2 DUP2 SUB PUSH0 DUP4 ADD MSTORE PUSH2 0x15F0 DUP2 PUSH2 0x15B7 JUMP JUMPDEST SWAP1 POP SWAP2 SWAP1 POP JUMP JUMPDEST PUSH32 0x43616E6469646174652773207061727479206E616D652063616E6E6F74206265 PUSH0 DUP3 ADD MSTORE PUSH32 0x20656D7074792E00000000000000000000000000000000000000000000000000 PUSH1 0x20 DUP3 ADD MSTORE POP JUMP JUMPDEST PUSH0 PUSH2 0x1651 PUSH1 0x27 DUP4 PUSH2 0x114D JUMP JUMPDEST SWAP2 POP PUSH2 0x165C DUP3 PUSH2 0x15F7 JUMP JUMPDEST PUSH1 0x40 DUP3 ADD SWAP1 POP SWAP2 SWAP1 POP JUMP JUMPDEST PUSH0 PUSH1 0x20 DUP3 ADD SWAP1 POP DUP2 DUP2 SUB PUSH0 DUP4 ADD MSTORE PUSH2 0x167E DUP2 PUSH2 0x1645 JUMP JUMPDEST SWAP1 POP SWAP2 SWAP1 POP JUMP JUMPDEST PUSH32 0x4E487B7100000000000000000000000000000000000000000000000000000000 PUSH0 MSTORE PUSH1 0x22 PUSH1 0x4 MSTORE PUSH1 0x24 PUSH0 REVERT JUMPDEST PUSH0 PUSH1 0x2 DUP3 DIV SWAP1 POP PUSH1 0x1 DUP3 AND DUP1 PUSH2 0x16C9 JUMPI PUSH1 0x7F DUP3 AND SWAP2 POP JUMPDEST PUSH1 0x20 DUP3 LT DUP2 SUB PUSH2 0x16DC JUMPI PUSH2 0x16DB PUSH2 0x1685 JUMP JUMPDEST JUMPDEST POP SWAP2 SWAP1 POP JUMP JUMPDEST PUSH0 DUP2 SWAP1 POP DUP2 PUSH0 MSTORE PUSH1 0x20 PUSH0 KECCAK256 SWAP1 POP SWAP2 SWAP1 POP JUMP JUMPDEST PUSH0 PUSH1 0x20 PUSH1 0x1F DUP4 ADD DIV SWAP1 POP SWAP2 SWAP1 POP JUMP JUMPDEST PUSH0 DUP3 DUP3 SHL SWAP1 POP SWAP3 SWAP2 POP POP JUMP JUMPDEST PUSH0 PUSH1 0x8 DUP4 MUL PUSH2 0x173E PUSH32 0xFFFFFFFFFFFFFFFFFFFFFFFFFFFFFFFFFFFFFFFFFFFFFFFFFFFFFFFFFFFFFFFF DUP3 PUSH2 0x1703 JUMP JUMPDEST PUSH2 0x1748 DUP7 DUP4 PUSH2 0x1703 JUMP JUMPDEST SWAP6 POP DUP1 NOT DUP5 AND SWAP4 POP DUP1 DUP7 AND DUP5 OR SWAP3 POP POP POP SWAP4 SWAP3 POP POP POP JUMP JUMPDEST PUSH0 DUP2 SWAP1 POP SWAP2 SWAP1 POP JUMP JUMPDEST PUSH0 PUSH2 0x1783 PUSH2 0x177E PUSH2 0x1779 DUP5 PUSH2 0xEE4 JUMP JUMPDEST PUSH2 0x1760 JUMP JUMPDEST PUSH2 0xEE4 JUMP JUMPDEST SWAP1 POP SWAP2 SWAP1 POP JUMP JUMPDEST PUSH0 DUP2 SWAP1 POP SWAP2 SWAP1 POP JUMP JUMPDEST PUSH2 0x179C DUP4 PUSH2 0x1769 JUMP JUMPDEST PUSH2 0x17B0 PUSH2 0x17A8 DUP3 PUSH2 0x178A JUMP JUMPDEST DUP5 DUP5 SLOAD PUSH2 0x170F JUMP JUMPDEST DUP3 SSTORE POP POP POP POP JUMP JUMPDEST PUSH0 SWAP1 JUMP JUMPDEST PUSH2 0x17C4 PUSH2 0x17B8 JUMP JUMPDEST PUSH2 0x17CF DUP2 DUP5 DUP5 PUSH2 0x1793 JUMP JUMPDEST POP POP POP JUMP JUMPDEST JUMPDEST DUP2 DUP2 LT ISZERO PUSH2 0x17F2 JUMPI PUSH2 0x17E7 PUSH0 DUP3 PUSH2 0x17BC JUMP JUMPDEST PUSH1 0x1 DUP2 ADD SWAP1 POP PUSH2 0x17D5 JUMP JUMPDEST POP POP JUMP JUMPDEST PUSH1 0x1F DUP3 GT ISZERO PUSH2 0x1837 JUMPI PUSH2 0x1808 DUP2 PUSH2 0x16E2 JUMP JUMPDEST PUSH2 0x1811 DUP5 PUSH2 0x16F4 JUMP JUMPDEST DUP2 ADD PUSH1 0x20 DUP6 LT ISZERO PUSH2 0x1820 JUMPI DUP2 SWAP1 POP JUMPDEST PUSH2 0x1834 PUSH2 0x182C DUP6 PUSH2 0x16F4 JUMP JUMPDEST DUP4 ADD DUP3 PUSH2 0x17D4 JUMP JUMPDEST POP POP JUMPDEST POP POP POP JUMP JUMPDEST PUSH0 DUP3 DUP3 SHR SWAP1 POP SWAP3 SWAP2 POP POP JUMP JUMPDEST PUSH0 PUSH2 0x1857 PUSH0 NOT DUP5 PUSH1 0x8 MUL PUSH2 0x183C JUMP JUMPDEST NOT DUP1 DUP4 AND SWAP2 POP POP SWAP3 SWAP2 POP POP JUMP JUMPDEST PUSH0 PUSH2 0x186F DUP4 DUP4 PUSH2 0x1848 JUMP JUMPDEST SWAP2 POP DUP3 PUSH1 0x2 MUL DUP3 OR SWAP1 POP SWAP3 SWAP2 POP POP JUMP JUMPDEST PUSH2 0x1888 DUP3 PUSH2 0x1143 JUMP JUMPDEST PUSH8 0xFFFFFFFFFFFFFFFF DUP2 GT ISZERO PUSH2 0x18A1 JUMPI PUSH2 0x18A0 PUSH2 0xFA9 JUMP JUMPDEST JUMPDEST PUSH2 0x18AB DUP3 SLOAD PUSH2 0x16B2 JUMP JUMPDEST PUSH2 0x18B6 DUP3 DUP3 DUP6 PUSH2 0x17F6 JUMP JUMPDEST PUSH0 PUSH1 0x20 SWAP1 POP PUSH1 0x1F DUP4 GT PUSH1 0x1 DUP2 EQ PUSH2 0x18E7 JUMPI PUSH0 DUP5 ISZERO PUSH2 0x18D5 JUMPI DUP3 DUP8 ADD MLOAD SWAP1 POP JUMPDEST PUSH2 0x18DF DUP6 DUP3 PUSH2 0x1864 JUMP JUMPDEST DUP7 SSTORE POP PUSH2 0x1946 JUMP JUMPDEST PUSH1 0x1F NOT DUP5 AND PUSH2 0x18F5 DUP7 PUSH2 0x16E2 JUMP JUMPDEST PUSH0 JUMPDEST DUP3 DUP2 LT ISZERO PUSH2 0x191C JUMPI DUP5 DUP10 ADD MLOAD DUP3 SSTORE PUSH1 0x1 DUP3 ADD SWAP2 POP PUSH1 0x20 DUP6 ADD SWAP5 POP PUSH1 0x20 DUP2 ADD SWAP1 POP PUSH2 0x18F7 JUMP JUMPDEST DUP7 DUP4 LT ISZERO PUSH2 0x1939 JUMPI DUP5 DUP10 ADD MLOAD PUSH2 0x1935 PUSH1 0x1F DUP10 AND DUP3 PUSH2 0x1848 JUMP JUMPDEST DUP4 SSTORE POP JUMPDEST PUSH1 0x1 PUSH1 0x2 DUP9 MUL ADD DUP9 SSTORE POP POP POP JUMPDEST POP POP POP POP POP POP JUMP JUMPDEST PUSH0 PUSH1 0x60 DUP3 ADD SWAP1 POP PUSH2 0x1961 PUSH0 DUP4 ADD DUP7 PUSH2 0xF42 JUMP JUMPDEST DUP2 DUP2 SUB PUSH1 0x20 DUP4 ADD MSTORE PUSH2 0x1973 DUP2 DUP6 PUSH2 0x116B JUMP JUMPDEST SWAP1 POP DUP2 DUP2 SUB PUSH1 0x40 DUP4 ADD MSTORE PUSH2 0x1987 DUP2 DUP5 PUSH2 0x116B JUMP JUMPDEST SWAP1 POP SWAP5 SWAP4 POP POP POP POP JUMP JUMPDEST PUSH32 0x566F74696E6720706572696F64206973206E6F74206F7665722E000000000000 PUSH0 DUP3 ADD MSTORE POP JUMP JUMPDEST PUSH0 PUSH2 0x19C5 PUSH1 0x1A DUP4 PUSH2 0x114D JUMP JUMPDEST SWAP2 POP PUSH2 0x19D0 DUP3 PUSH2 0x1991 JUMP JUMPDEST PUSH1 0x20 DUP3 ADD SWAP1 POP SWAP2 SWAP1 POP JUMP JUMPDEST PUSH0 PUSH1 0x20 DUP3 ADD SWAP1 POP DUP2 DUP2 SUB PUSH0 DUP4 ADD MSTORE PUSH2 0x19F2 DUP2 PUSH2 0x19B9 JUMP JUMPDEST SWAP1 POP SWAP2 SWAP1 POP JUMP JUMPDEST PUSH32 0x4E6F20766F74657320636173742E000000000000000000000000000000000000 PUSH0 DUP3 ADD MSTORE POP JUMP JUMPDEST PUSH0 PUSH2 0x1A2D PUSH1 0xE DUP4 PUSH2 0x114D JUMP JUMPDEST SWAP2 POP PUSH2 0x1A38 DUP3 PUSH2 0x19F9 JUMP JUMPDEST PUSH1 0x20 DUP3 ADD SWAP1 POP SWAP2 SWAP1 POP JUMP JUMPDEST PUSH0 PUSH1 0x20 DUP3 ADD SWAP1 POP DUP2 DUP2 SUB PUSH0 DUP4 ADD MSTORE PUSH2 0x1A5A DUP2 PUSH2 0x1A21 JUMP JUMPDEST SWAP1 POP SWAP2 SWAP1 POP JUMP JUMPDEST PUSH32 0x566F74696E6720446174657320616C7265616479207365742E00000000000000 PUSH0 DUP3 ADD MSTORE POP JUMP JUMPDEST PUSH0 PUSH2 0x1A95 PUSH1 0x19 DUP4 PUSH2 0x114D JUMP JUMPDEST SWAP2 POP PUSH2 0x1AA0 DUP3 PUSH2 0x1A61 JUMP JUMPDEST PUSH1 0x20 DUP3 ADD SWAP1 POP SWAP2 SWAP1 POP JUMP JUMPDEST PUSH0 PUSH1 0x20 DUP3 ADD SWAP1 POP DUP2 DUP2 SUB PUSH0 DUP4 ADD MSTORE PUSH2 0x1AC2 DUP2 PUSH2 0x1A89 JUMP JUMPDEST SWAP1 POP SWAP2 SWAP1 POP JUMP JUMPDEST PUSH32 0x566F74696E6720686173206E6F74206265656E2073746172746564207965742E PUSH0 DUP3 ADD MSTORE POP JUMP JUMPDEST PUSH0 PUSH2 0x1AFD PUSH1 0x20 DUP4 PUSH2 0x114D JUMP JUMPDEST SWAP2 POP PUSH2 0x1B08 DUP3 PUSH2 0x1AC9 JUMP JUMPDEST PUSH1 0x20 DUP3 ADD SWAP1 POP SWAP2 SWAP1 POP JUMP JUMPDEST PUSH0 PUSH1 0x20 DUP3 ADD SWAP1 POP DUP2 DUP2 SUB PUSH0 DUP4 ADD MSTORE PUSH2 0x1B2A DUP2 PUSH2 0x1AF1 JUMP JUMPDEST SWAP1 POP SWAP2 SWAP1 POP JUMP JUMPDEST PUSH32 0x456E642064617465206D75737420626520616674657220746865207374617274 PUSH0 DUP3 ADD MSTORE PUSH32 0x20646174652E0000000000000000000000000000000000000000000000000000 PUSH1 0x20 DUP3 ADD MSTORE POP JUMP JUMPDEST PUSH0 PUSH2 0x1B8B PUSH1 0x26 DUP4 PUSH2 0x114D JUMP JUMPDEST SWAP2 POP PUSH2 0x1B96 DUP3 PUSH2 0x1B31 JUMP JUMPDEST PUSH1 0x40 DUP3 ADD SWAP1 POP SWAP2 SWAP1 POP JUMP JUMPDEST PUSH0 PUSH1 0x20 DUP3 ADD SWAP1 POP DUP2 DUP2 SUB PUSH0 DUP4 ADD MSTORE PUSH2 0x1BB8 DUP2 PUSH2 0x1B7F JUMP JUMPDEST SWAP1 POP SWAP2 SWAP1 POP JUMP INVALID LOG2 PUSH5 0x6970667358 0x22 SLT KECCAK256 CALLCODE PUSH13 0xD2C49210BA9631690BD1616DE4 SHR 0xF8 0xA5 RETURN ADD SWAP2 0x29 0x4C 0xD1 PUSH12 0x9FB2EE32E3F1D664736F6C63 NUMBER STOP ADDMOD BYTE STOP CALLER "
				},
				"gasEstimates": {
					"creation": {
						"codeDepositCost": "1431400",
						"executionCost": "25756",
						"totalCost": "1457156"
					},
					"external": {
						"CountCandidates()": "2448",
						"Owner()": "2571",
						"addCandidate(string,string)": "infinite",
						"candidates(uint256)": "infinite",
						"checkVote()": "2604",
						"getCandidate(uint256)": "infinite",
						"getDates()": "infinite",
						"getWinner()": "infinite",
						"setDates(uint256,uint256)": "infinite",
						"vote(uint256)": "infinite",
						"voters(address)": "2855",
						"votingEnd()": "2470",
						"votingStart()": "2448"
					}
				},
				"methodIdentifiers": {
					"CountCandidates()": "4c083141",
					"Owner()": "b4a99a4e",
					"addCandidate(string,string)": "26541b56",
					"candidates(uint256)": "3477ee2e",
					"checkVote()": "b0417e98",
					"getCandidate(uint256)": "35b8e820",
					"getDates()": "16441813",
					"getWinner()": "8e7ea5b2",
					"setDates(uint256,uint256)": "dedf141e",
					"vote(uint256)": "0121b93f",
					"voters(address)": "a3ec138d",
					"votingEnd()": "85a38635",
					"votingStart()": "101158af"
				}
			},
			"storageLayout": {
				"storage": [
					{
						"astId": 12,
						"contract": "voting.sol:Dv0TE",
						"label": "Owner",
						"offset": 0,
						"slot": "0",
						"type": "t_address"
					},
					{
						"astId": 14,
						"contract": "voting.sol:Dv0TE",
						"label": "CountCandidates",
						"offset": 0,
						"slot": "1",
						"type": "t_uint256"
					},
					{
						"astId": 16,
						"contract": "voting.sol:Dv0TE",
						"label": "votingStart",
						"offset": 0,
						"slot": "2",
						"type": "t_uint256"
					},
					{
						"astId": 18,
						"contract": "voting.sol:Dv0TE",
						"label": "votingEnd",
						"offset": 0,
						"slot": "3",
						"type": "t_uint256"
					},
					{
						"astId": 23,
						"contract": "voting.sol:Dv0TE",
						"label": "candidates",
						"offset": 0,
						"slot": "4",
						"type": "t_mapping(t_uint256,t_struct(Candidate)10_storage)"
					},
					{
						"astId": 27,
						"contract": "voting.sol:Dv0TE",
						"label": "voters",
						"offset": 0,
						"slot": "5",
						"type": "t_mapping(t_address,t_bool)"
					}
				],
				"types": {
					"t_address": {
						"encoding": "inplace",
						"label": "address",
						"numberOfBytes": "20"
					},
					"t_bool": {
						"encoding": "inplace",
						"label": "bool",
						"numberOfBytes": "1"
					},
					"t_mapping(t_address,t_bool)": {
						"encoding": "mapping",
						"key": "t_address",
						"label": "mapping(address => bool)",
						"numberOfBytes": "32",
						"value": "t_bool"
					},
					"t_mapping(t_uint256,t_struct(Candidate)10_storage)": {
						"encoding": "mapping",
						"key": "t_uint256",
						"label": "mapping(uint256 => struct Dv0TE.Candidate)",
						"numberOfBytes": "32",
						"value": "t_struct(Candidate)10_storage"
					},
					"t_string_storage": {
						"encoding": "bytes",
						"label": "string",
						"numberOfBytes": "32"
					},
					"t_struct(Candidate)10_storage": {
						"encoding": "inplace",
						"label": "struct Dv0TE.Candidate",
						"members": [
							{
								"astId": 3,
								"contract": "voting.sol:Dv0TE",
								"label": "name",
								"offset": 0,
								"slot": "0",
								"type": "t_string_storage"
							},
							{
								"astId": 5,
								"contract": "voting.sol:Dv0TE",
								"label": "id",
								"offset": 0,
								"slot": "1",
								"type": "t_uint256"
							},
							{
								"astId": 7,
								"contract": "voting.sol:Dv0TE",
								"label": "party",
								"offset": 0,
								"slot": "2",
								"type": "t_string_storage"
							},
							{
								"astId": 9,
								"contract": "voting.sol:Dv0TE",
								"label": "voteCount",
								"offset": 0,
								"slot": "3",
								"type": "t_uint256"
							}
						],
						"numberOfBytes": "128"
					},
					"t_uint256": {
						"encoding": "inplace",
						"label": "uint256",
						"numberOfBytes": "32"
					}
				}
			},
			"userdoc": {
				"kind": "user",
				"methods": {},
				"version": 1
			}
		}
	}
}